{
  "_format": "hh-sol-artifact-1",
  "contractName": "Governance",
  "sourceName": "hardhat/contracts/Governance.sol",
  "abi": [
    {
      "inputs": [
        {
          "internalType": "address",
          "name": "_nfticket",
          "type": "address"
        }
      ],
      "stateMutability": "nonpayable",
      "type": "constructor"
    },
    {
      "anonymous": false,
      "inputs": [
        {
          "indexed": true,
          "internalType": "address",
          "name": "previousOwner",
          "type": "address"
        },
        {
          "indexed": true,
          "internalType": "address",
          "name": "newOwner",
          "type": "address"
        }
      ],
      "name": "OwnershipTransferred",
      "type": "event"
    },
    {
      "inputs": [
        {
          "internalType": "uint256",
          "name": "_proposalId",
          "type": "uint256"
        }
      ],
      "name": "getVoteWinner",
      "outputs": [
        {
          "internalType": "string",
          "name": "",
          "type": "string"
        }
      ],
      "stateMutability": "nonpayable",
      "type": "function"
    },
    {
      "inputs": [],
      "name": "owner",
      "outputs": [
        {
          "internalType": "address",
          "name": "",
          "type": "address"
        }
      ],
      "stateMutability": "view",
      "type": "function"
    },
    {
      "inputs": [],
      "name": "renounceOwnership",
      "outputs": [],
      "stateMutability": "nonpayable",
      "type": "function"
    },
    {
      "inputs": [
        {
          "internalType": "uint256",
          "name": "_eventId",
          "type": "uint256"
        },
        {
          "internalType": "string",
          "name": "_proposing",
          "type": "string"
        },
        {
          "internalType": "uint256",
          "name": "_voteDelay",
          "type": "uint256"
        },
        {
          "internalType": "string[]",
          "name": "_options",
          "type": "string[]"
        }
      ],
      "name": "submitProposal",
      "outputs": [],
      "stateMutability": "nonpayable",
      "type": "function"
    },
    {
      "inputs": [
        {
          "internalType": "address",
          "name": "newOwner",
          "type": "address"
        }
      ],
      "name": "transferOwnership",
      "outputs": [],
      "stateMutability": "nonpayable",
      "type": "function"
    },
    {
      "inputs": [
        {
          "internalType": "uint256",
          "name": "_proposalId",
          "type": "uint256"
        },
        {
          "internalType": "string",
          "name": "_option",
          "type": "string"
        }
      ],
      "name": "vote",
      "outputs": [],
      "stateMutability": "nonpayable",
      "type": "function"
    }
  ],
  "bytecode": "0x608060405234801561001057600080fd5b50604051610d84380380610d8483398101604081905261002f916100ad565b6100383361005d565b600180546001600160a01b0319166001600160a01b03929092169190911790556100db565b600080546001600160a01b038381166001600160a01b0319831681178455604051919092169283917f8be0079c531659141344cd1fd0a4f28419497f9722a3daafe3b4186f6b6457e09190a35050565b6000602082840312156100be578081fd5b81516001600160a01b03811681146100d4578182fd5b9392505050565b610c9a806100ea6000396000f3fe608060405234801561001057600080fd5b50600436106100625760003560e01c806313a94942146100675780632410847514610090578063715018a6146100a55780637152d9d9146100ad5780638da5cb5b146100c0578063f2fde38b146100db575b600080fd5b61007a6100753660046109c7565b6100ee565b6040516100879190610b39565b60405180910390f35b6100a361009e3660046109df565b6103b0565b005b6100a3610475565b6100a36100bb366004610a24565b6104db565b6000546040516001600160a01b039091168152602001610087565b6100a36100e9366004610988565b6106b9565b60008181526004602052604081206003810154606092918391421161015a5760405162461bcd60e51b815260206004820152601860248201527f766f74696e6720706572696f64207374696c6c206f70656e000000000000000060448201526064015b60405180910390fd5b600081600201805480602002602001604051908101604052809291908181526020016000905b8282101561022c57838290600052602060002001805461019f90610bcd565b80601f01602080910402602001604051908101604052809291908181526020018280546101cb90610bcd565b80156102185780601f106101ed57610100808354040283529160200191610218565b820191906000526020600020905b8154815290600101906020018083116101fb57829003601f168201915b505050505081526020019060010190610180565b50505050905060005b60028301548110156103a557848360040183838151811061026657634e487b7160e01b600052603260045260246000fd5b602002602001015160405161027b9190610b1d565b908152602001604051809103902054111561039357826004018282815181106102b457634e487b7160e01b600052603260045260246000fd5b60200260200101516040516102c99190610b1d565b90815260200160405180910390205494508260020181815481106102fd57634e487b7160e01b600052603260045260246000fd5b90600052602060002001805461031290610bcd565b80601f016020809104026020016040519081016040528092919081815260200182805461033e90610bcd565b801561038b5780601f106103605761010080835404028352916020019161038b565b820191906000526020600020905b81548152906001019060200180831161036e57829003601f168201915b505050505093505b8061039d81610c08565b915050610235565b509195945050505050565b6000828152600360208181526040808420546004909252909220015442106104115760405162461bcd60e51b81526020600482015260146024820152731d9bdd1a5b99c81c195c9a5bd90818db1bdcd95960621b6044820152606401610151565b60008381526002602090815260408083203384529091529020805460ff1916905560405162461bcd60e51b8152600401610151906020808252601690820152751e5bdd481a185d9948185b1c9958591e481d9bdd195960521b604082015260600190565b6000546001600160a01b031633146104cf5760405162461bcd60e51b815260206004820181905260248201527f4f776e61626c653a2063616c6c6572206973206e6f7420746865206f776e65726044820152606401610151565b6104d96000610784565b565b60015460405163fe210f6960e01b81526004810186905233916001600160a01b03169063fe210f6990602401602060405180830381600087803b15801561052157600080fd5b505af1158015610535573d6000803e3d6000fd5b505050506040513d601f19601f8201168201806040525081019061055991906109ab565b6001600160a01b0316146105af5760405162461bcd60e51b815260206004820152601d60248201527f63616c6c6572206973206e6f7420746865206576656e74206f776e65720000006044820152606401610151565b6005805460009081526004602090815260408083208890559254825291902084516105e2926001909201918601906107d4565b506005546000908152600460209081526040909120825161060b92600290920191840190610858565b5060055460009081526004602052604081206003018390555b815181101561069e57600060046000600554815260200190815260200160002060040183838151811061066757634e487b7160e01b600052603260045260246000fd5b602002602001015160405161067c9190610b1d565b908152604051908190036020019020558061069681610c08565b915050610624565b50506005546000908152600360205260409020929092555050565b6000546001600160a01b031633146107135760405162461bcd60e51b815260206004820181905260248201527f4f776e61626c653a2063616c6c6572206973206e6f7420746865206f776e65726044820152606401610151565b6001600160a01b0381166107785760405162461bcd60e51b815260206004820152602660248201527f4f776e61626c653a206e6577206f776e657220697320746865207a65726f206160448201526564647265737360d01b6064820152608401610151565b61078181610784565b50565b600080546001600160a01b038381166001600160a01b0319831681178455604051919092169283917f8be0079c531659141344cd1fd0a4f28419497f9722a3daafe3b4186f6b6457e09190a35050565b8280546107e090610bcd565b90600052602060002090601f0160209004810192826108025760008555610848565b82601f1061081b57805160ff1916838001178555610848565b82800160010185558215610848579182015b8281111561084857825182559160200191906001019061082d565b506108549291506108b1565b5090565b8280548282559060005260206000209081019282156108a5579160200282015b828111156108a557825180516108959184916020909101906107d4565b5091602001919060010190610878565b506108549291506108c6565b5b8082111561085457600081556001016108b2565b808211156108545760006108da82826108e3565b506001016108c6565b5080546108ef90610bcd565b6000825580601f106108ff575050565b601f01602090049060005260206000209081019061078191906108b1565b600082601f83011261092d578081fd5b813567ffffffffffffffff81111561094757610947610c39565b61095a601f8201601f1916602001610b6c565b81815284602083860101111561096e578283fd5b816020850160208301379081016020019190915292915050565b600060208284031215610999578081fd5b81356109a481610c4f565b9392505050565b6000602082840312156109bc578081fd5b81516109a481610c4f565b6000602082840312156109d8578081fd5b5035919050565b600080604083850312156109f1578081fd5b82359150602083013567ffffffffffffffff811115610a0e578182fd5b610a1a8582860161091d565b9150509250929050565b60008060008060808587031215610a39578182fd5b8435935060208086013567ffffffffffffffff80821115610a58578485fd5b610a6489838a0161091d565b9550604088013594506060880135915080821115610a80578384fd5b818801915088601f830112610a93578384fd5b813581811115610aa557610aa5610c39565b8060051b610ab4858201610b6c565b8281528581019085870183870188018e1015610ace578889fd5b8893505b84841015610b0b57803586811115610ae857898afd5b610af68f8a838b010161091d565b84525060019390930192918701918701610ad2565b50999c989b5096995050505050505050565b60008251610b2f818460208701610b9d565b9190910192915050565b6020815260008251806020840152610b58816040850160208701610b9d565b601f01601f19169190910160400192915050565b604051601f8201601f1916810167ffffffffffffffff81118282101715610b9557610b95610c39565b604052919050565b60005b83811015610bb8578181015183820152602001610ba0565b83811115610bc7576000848401525b50505050565b600181811c90821680610be157607f821691505b60208210811415610c0257634e487b7160e01b600052602260045260246000fd5b50919050565b6000600019821415610c1c57610c1c610c23565b5060010190565b634e487b7160e01b600052601160045260246000fd5b634e487b7160e01b600052604160045260246000fd5b6001600160a01b038116811461078157600080fdfea264697066735822122034460960283411e9f68c531498d348b75862fd562a39ecf28efa1d53be4e207664736f6c63430008040033",
  "linkReferences": {},
  "deployedLinkReferences": {}
}