{
  "_format": "hh-sol-artifact-1",
  "contractName": "Governance",
  "sourceName": "hardhat/contracts/Governance.sol",
  "abi": [
    {
      "inputs": [
        {
          "internalType": "address",
          "name": "_nfticket",
          "type": "address"
        }
      ],
      "stateMutability": "nonpayable",
      "type": "constructor"
    },
    {
      "anonymous": false,
      "inputs": [
        {
          "indexed": true,
          "internalType": "address",
          "name": "previousOwner",
          "type": "address"
        },
        {
          "indexed": true,
          "internalType": "address",
          "name": "newOwner",
          "type": "address"
        }
      ],
      "name": "OwnershipTransferred",
      "type": "event"
    },
    {
      "inputs": [
        {
          "internalType": "uint256",
          "name": "_eventId",
          "type": "uint256"
        }
      ],
      "name": "getProposals",
      "outputs": [
        {
          "components": [
            {
              "internalType": "uint256",
              "name": "id",
              "type": "uint256"
            },
            {
              "internalType": "string",
              "name": "proposing",
              "type": "string"
            },
            {
              "internalType": "string[]",
              "name": "options",
              "type": "string[]"
            },
            {
              "internalType": "uint256",
              "name": "voteDelay",
              "type": "uint256"
            },
            {
              "internalType": "uint256",
              "name": "creationTime",
              "type": "uint256"
            },
            {
              "internalType": "uint256[]",
              "name": "votes",
              "type": "uint256[]"
            }
          ],
          "internalType": "struct Governance.Proposal[]",
          "name": "",
          "type": "tuple[]"
        }
      ],
      "stateMutability": "view",
      "type": "function"
    },
    {
      "inputs": [
        {
          "internalType": "uint256",
          "name": "_proposalId",
          "type": "uint256"
        }
      ],
      "name": "getVoteWinner",
      "outputs": [
        {
          "internalType": "string",
          "name": "",
          "type": "string"
        }
      ],
      "stateMutability": "nonpayable",
      "type": "function"
    },
    {
      "inputs": [],
      "name": "owner",
      "outputs": [
        {
          "internalType": "address",
          "name": "",
          "type": "address"
        }
      ],
      "stateMutability": "view",
      "type": "function"
    },
    {
      "inputs": [],
      "name": "renounceOwnership",
      "outputs": [],
      "stateMutability": "nonpayable",
      "type": "function"
    },
    {
      "inputs": [
        {
          "internalType": "address",
          "name": "_nfticket",
          "type": "address"
        }
      ],
      "name": "setNFT",
      "outputs": [],
      "stateMutability": "nonpayable",
      "type": "function"
    },
    {
      "inputs": [
        {
          "internalType": "uint256",
          "name": "_eventId",
          "type": "uint256"
        },
        {
          "internalType": "string",
          "name": "_proposing",
          "type": "string"
        },
        {
          "internalType": "uint256",
          "name": "_voteDelay",
          "type": "uint256"
        },
        {
          "internalType": "string[]",
          "name": "_options",
          "type": "string[]"
        }
      ],
      "name": "submitProposal",
      "outputs": [],
      "stateMutability": "nonpayable",
      "type": "function"
    },
    {
      "inputs": [
        {
          "internalType": "address",
          "name": "newOwner",
          "type": "address"
        }
      ],
      "name": "transferOwnership",
      "outputs": [],
      "stateMutability": "nonpayable",
      "type": "function"
    },
    {
      "inputs": [
        {
          "internalType": "uint256",
          "name": "_proposalId",
          "type": "uint256"
        },
        {
          "internalType": "string",
          "name": "_option",
          "type": "string"
        }
      ],
      "name": "vote",
      "outputs": [],
      "stateMutability": "nonpayable",
      "type": "function"
    }
  ],
  "bytecode": "0x608060405234801561001057600080fd5b5060405161153638038061153683398101604081905261002f916100ad565b6100383361005d565b600180546001600160a01b0319166001600160a01b03929092169190911790556100db565b600080546001600160a01b038381166001600160a01b0319831681178455604051919092169283917f8be0079c531659141344cd1fd0a4f28419497f9722a3daafe3b4186f6b6457e09190a35050565b6000602082840312156100be578081fd5b81516001600160a01b03811681146100d4578182fd5b9392505050565b61144c806100ea6000396000f3fe608060405234801561001057600080fd5b50600436106100885760003560e01c80637152d9d91161005b5780637152d9d9146100f35780638da5cb5b14610106578063f2fde38b14610121578063f56e9c661461013457600080fd5b806313a949421461008d57806324108475146100b65780632c72fdfc146100cb578063715018a6146100eb575b600080fd5b6100a061009b366004610fe6565b610147565b6040516100ad91906112be565b60405180910390f35b6100c96100c4366004610ffe565b6103e8565b005b6100de6100d9366004610fe6565b610731565b6040516100ad91906111be565b6100c9610a71565b6100c9610101366004611043565b610aa7565b6000546040516001600160a01b0390911681526020016100ad565b6100c961012f366004610fa7565b610c82565b6100c9610142366004610fa7565b610d1d565b6000818152600660205260408120600481015460038201546060939284929091426101728383611337565b106101c45760405162461bcd60e51b815260206004820152601860248201527f766f74696e6720706572696f64207374696c6c206f70656e000000000000000060448201526064015b60405180910390fd5b600083600201805480602002602001604051908101604052809291908181526020016000905b828210156102965783829060005260206000200180546102099061137f565b80601f01602080910402602001604051908101604052809291908181526020018280546102359061137f565b80156102825780601f1061025757610100808354040283529160200191610282565b820191906000526020600020905b81548152906001019060200180831161026557829003601f168201915b5050505050815260200190600101906101ea565b50505050905060005b60058501548110156103db57868560050182815481106102cf57634e487b7160e01b600052603260045260246000fd5b906000526020600020015411156103c95784600501818154811061030357634e487b7160e01b600052603260045260246000fd5b9060005260206000200154965084600201818154811061033357634e487b7160e01b600052603260045260246000fd5b9060005260206000200180546103489061137f565b80601f01602080910402602001604051908101604052809291908181526020018280546103749061137f565b80156103c15780601f10610396576101008083540402835291602001916103c1565b820191906000526020600020905b8154815290600101906020018083116103a457829003601f168201915b505050505095505b806103d3816113ba565b91505061029f565b5093979650505050505050565b60008281526003602081815260408084205460069092529092206004810154910154426104158383611337565b116104595760405162461bcd60e51b81526020600482015260146024820152731d9bdd1a5b99c81c195c9a5bd90818db1bdcd95960621b60448201526064016101bb565b60008581526002602090815260408083203384529091529020805460ff1916905560405162461bcd60e51b81526004016101bb906020808252601690820152751e5bdd481a185d9948185b1c9958591e481d9bdd195960521b604082015260600190565b8154815290600101906020018083116104bd575050509183525050600282018054604080516020838102820181019092528281529381019392919060009084015b828210156105aa57838290600052602060002001805461051d9061137f565b80601f01602080910402602001604051908101604052809291908181526020018280546105499061137f565b80156105965780601f1061056b57610100808354040283529160200191610596565b820191906000526020600020905b81548152906001019060200180831161057957829003601f168201915b5050505050815260200190600101906104fe565b50505050815260200160038201548152602001600482015481526020016005820180548060200260200160405190810160405280929190818152602001828054801561061557602002820191906000526020600020905b815481526020019060010190808311610601575b50505050508152505090506000805b8260400151518110156106c6578660405160200161064291906111a2565b604051602081830303815290604052805190602001208360400151828151811061067c57634e487b7160e01b600052603260045260246000fd5b602002602001015160405160200161069491906111a2565b6040516020818303038152906040528051906020012014156106b4578091505b806106be816113ba565b915050610624565b5060018260a0015182815181106106ed57634e487b7160e01b600052603260045260246000fd5b602002602001018181516107019190611337565b905250505060009485525050600260209081526040808520338652909152909220805460ff191660011790555050565b6000818152600460205260408120546060919067ffffffffffffffff81111561076a57634e487b7160e01b600052604160045260246000fd5b6040519080825280602002602001820160405280156107d457816020015b6107c16040518060c001604052806000815260200160608152602001606081526020016000815260200160008152602001606081525090565b8152602001906001900390816107885790505b50905060005b600084815260046020526040902054811015610a6a576000848152600460205260408120805460069183918590811061082357634e487b7160e01b600052603260045260246000fd5b906000526020600020015481526020019081526020016000206040518060c0016040529081600082015481526020016001820180546108619061137f565b80601f016020809104026020016040519081016040528092919081815260200182805461088d9061137f565b80156108da5780601f106108af576101008083540402835291602001916108da565b820191906000526020600020905b8154815290600101906020018083116108bd57829003601f168201915b5050505050815260200160028201805480602002602001604051908101604052809291908181526020016000905b828210156109b45783829060005260206000200180546109279061137f565b80601f01602080910402602001604051908101604052809291908181526020018280546109539061137f565b80156109a05780601f10610975576101008083540402835291602001916109a0565b820191906000526020600020905b81548152906001019060200180831161098357829003601f168201915b505050505081526020019060010190610908565b505050508152602001600382015481526020016004820154815260200160058201805480602002602001604051908101604052809291908181526020018280548015610a1f57602002820191906000526020600020905b815481526020019060010190808311610a0b575b505050505081525050905080838381518110610a4b57634e487b7160e01b600052603260045260246000fd5b6020026020010181905250508080610a62906113ba565b9150506107da565b5092915050565b6000546001600160a01b03163314610a9b5760405162461bcd60e51b81526004016101bb906112d1565b610aa56000610d69565b565b60015460405163fe210f6960e01b81526004810186905233916001600160a01b03169063fe210f699060240160206040518083038186803b158015610aeb57600080fd5b505afa158015610aff573d6000803e3d6000fd5b505050506040513d601f19601f82011682018060405250810190610b239190610fca565b6001600160a01b031614610b795760405162461bcd60e51b815260206004820152601d60248201527f63616c6c6572206973206e6f7420746865206576656e74206f776e657200000060448201526064016101bb565b600780546000908152600660209081526040808320889055925482529190208451606092610bae926001019190870190610db9565b5060075460009081526006602090815260409091208351610bd792600290920191850190610e3d565b506007805460009081526006602090815260408083206003018790558354835280832042600490910155925482529190208251610c1c92600590920191840190610e96565b506007805460009081526003602090815260408083208990558883526004825280832093548352600682528083205484546001810186559484528284209094019390935587825260059052908120805491610c76836113ba565b91905055505050505050565b6000546001600160a01b03163314610cac5760405162461bcd60e51b81526004016101bb906112d1565b6001600160a01b038116610d115760405162461bcd60e51b815260206004820152602660248201527f4f776e61626c653a206e6577206f776e657220697320746865207a65726f206160448201526564647265737360d01b60648201526084016101bb565b610d1a81610d69565b50565b6000546001600160a01b03163314610d475760405162461bcd60e51b81526004016101bb906112d1565b600180546001600160a01b0319166001600160a01b0392909216919091179055565b600080546001600160a01b038381166001600160a01b0319831681178455604051919092169283917f8be0079c531659141344cd1fd0a4f28419497f9722a3daafe3b4186f6b6457e09190a35050565b828054610dc59061137f565b90600052602060002090601f016020900481019282610de75760008555610e2d565b82601f10610e0057805160ff1916838001178555610e2d565b82800160010185558215610e2d579182015b82811115610e2d578251825591602001919060010190610e12565b50610e39929150610ed0565b5090565b828054828255906000526020600020908101928215610e8a579160200282015b82811115610e8a5782518051610e7a918491602090910190610db9565b5091602001919060010190610e5d565b50610e39929150610ee5565b828054828255906000526020600020908101928215610e2d5791602002820182811115610e2d578251825591602001919060010190610e12565b5b80821115610e395760008155600101610ed1565b80821115610e39576000610ef98282610f02565b50600101610ee5565b508054610f0e9061137f565b6000825580601f10610f1e575050565b601f016020900490600052602060002090810190610d1a9190610ed0565b600082601f830112610f4c578081fd5b813567ffffffffffffffff811115610f6657610f666113eb565b610f79601f8201601f1916602001611306565b818152846020838601011115610f8d578283fd5b816020850160208301379081016020019190915292915050565b600060208284031215610fb8578081fd5b8135610fc381611401565b9392505050565b600060208284031215610fdb578081fd5b8151610fc381611401565b600060208284031215610ff7578081fd5b5035919050565b60008060408385031215611010578081fd5b82359150602083013567ffffffffffffffff81111561102d578182fd5b61103985828601610f3c565b9150509250929050565b60008060008060808587031215611058578182fd5b8435935060208086013567ffffffffffffffff80821115611077578485fd5b61108389838a01610f3c565b955060408801359450606088013591508082111561109f578384fd5b818801915088601f8301126110b2578384fd5b8135818111156110c4576110c46113eb565b8060051b6110d3858201611306565b8281528581019085870183870188018e10156110ed578889fd5b8893505b8484101561112a5780358681111561110757898afd5b6111158f8a838b0101610f3c565b845250600193909301929187019187016110f1565b50999c989b5096995050505050505050565b6000815180845260208085019450808401835b8381101561116b5781518752958201959082019060010161114f565b509495945050505050565b6000815180845261118e81602086016020860161134f565b601f01601f19169290920160200192915050565b600082516111b481846020870161134f565b9190910192915050565b602080825282518282018190526000919060409081850190600581811b87018401888601875b848110156112af57603f198a8403018652815160c08151855289820151818b87015261121282870182611176565b838b0151878203888d015280518083529193508c0191508b83019080891b84018d018e5b8281101561126457601f19868303018452611252828651611176565b948f0194938f01939150600101611236565b50606086810151908a0152608080870151908a015260a095860151898203878b0152959450611293818761113c565b9b8e019b98505050948b019450505060019190910190506111e4565b50909998505050505050505050565b602081526000610fc36020830184611176565b6020808252818101527f4f776e61626c653a2063616c6c6572206973206e6f7420746865206f776e6572604082015260600190565b604051601f8201601f1916810167ffffffffffffffff8111828210171561132f5761132f6113eb565b604052919050565b6000821982111561134a5761134a6113d5565b500190565b60005b8381101561136a578181015183820152602001611352565b83811115611379576000848401525b50505050565b600181811c9082168061139357607f821691505b602082108114156113b457634e487b7160e01b600052602260045260246000fd5b50919050565b60006000198214156113ce576113ce6113d5565b5060010190565b634e487b7160e01b600052601160045260246000fd5b634e487b7160e01b600052604160045260246000fd5b6001600160a01b0381168114610d1a57600080fdfea264697066735822122055c59bd15b4117f6925a59f40837c2b72d1eef6b2ee418bcc0c7f68fe9d121a664736f6c63430008040033",
  "linkReferences": {},
  "deployedLinkReferences": {}
}