{
  "_format": "hh-sol-artifact-1",
  "contractName": "Governance",
  "sourceName": "hardhat/contracts/Governance.sol",
  "abi": [
    {
      "inputs": [
        {
          "internalType": "address",
          "name": "_nfticket",
          "type": "address"
        }
      ],
      "stateMutability": "nonpayable",
      "type": "constructor"
    },
    {
      "anonymous": false,
      "inputs": [
        {
          "indexed": true,
          "internalType": "address",
          "name": "previousOwner",
          "type": "address"
        },
        {
          "indexed": true,
          "internalType": "address",
          "name": "newOwner",
          "type": "address"
        }
      ],
      "name": "OwnershipTransferred",
      "type": "event"
    },
    {
      "inputs": [
        {
          "internalType": "uint256",
          "name": "_eventId",
          "type": "uint256"
        }
      ],
      "name": "getProposals",
      "outputs": [
        {
          "components": [
            {
              "internalType": "uint256",
              "name": "propID",
              "type": "uint256"
            },
            {
              "internalType": "uint256",
              "name": "id",
              "type": "uint256"
            },
            {
              "internalType": "string",
              "name": "proposing",
              "type": "string"
            },
            {
              "internalType": "string[]",
              "name": "options",
              "type": "string[]"
            },
            {
              "internalType": "uint256",
              "name": "voteDelay",
              "type": "uint256"
            },
            {
              "internalType": "uint256",
              "name": "creationTime",
              "type": "uint256"
            },
            {
              "internalType": "uint256[]",
              "name": "votes",
              "type": "uint256[]"
            }
          ],
          "internalType": "struct Governance.Proposal[]",
          "name": "",
          "type": "tuple[]"
        }
      ],
      "stateMutability": "view",
      "type": "function"
    },
    {
      "inputs": [
        {
          "internalType": "uint256",
          "name": "_proposalId",
          "type": "uint256"
        }
      ],
      "name": "getVoteWinner",
      "outputs": [
        {
          "internalType": "string",
          "name": "",
          "type": "string"
        }
      ],
      "stateMutability": "view",
      "type": "function"
    },
    {
      "inputs": [],
      "name": "owner",
      "outputs": [
        {
          "internalType": "address",
          "name": "",
          "type": "address"
        }
      ],
      "stateMutability": "view",
      "type": "function"
    },
    {
      "inputs": [],
      "name": "renounceOwnership",
      "outputs": [],
      "stateMutability": "nonpayable",
      "type": "function"
    },
    {
      "inputs": [
        {
          "internalType": "address",
          "name": "_nfticket",
          "type": "address"
        }
      ],
      "name": "setNFT",
      "outputs": [],
      "stateMutability": "nonpayable",
      "type": "function"
    },
    {
      "inputs": [
        {
          "internalType": "uint256",
          "name": "_eventId",
          "type": "uint256"
        },
        {
          "internalType": "string",
          "name": "_proposing",
          "type": "string"
        },
        {
          "internalType": "uint256",
          "name": "_voteDelay",
          "type": "uint256"
        },
        {
          "internalType": "string[]",
          "name": "_options",
          "type": "string[]"
        }
      ],
      "name": "submitProposal",
      "outputs": [],
      "stateMutability": "nonpayable",
      "type": "function"
    },
    {
      "inputs": [
        {
          "internalType": "address",
          "name": "newOwner",
          "type": "address"
        }
      ],
      "name": "transferOwnership",
      "outputs": [],
      "stateMutability": "nonpayable",
      "type": "function"
    },
    {
      "inputs": [
        {
          "internalType": "uint256",
          "name": "_proposalId",
          "type": "uint256"
        },
        {
          "internalType": "string",
          "name": "_option",
          "type": "string"
        }
      ],
      "name": "vote",
      "outputs": [],
      "stateMutability": "nonpayable",
      "type": "function"
    }
  ],
  "bytecode": "0x608060405234801561001057600080fd5b5060405161167138038061167183398101604081905261002f916100ad565b6100383361005d565b600180546001600160a01b0319166001600160a01b03929092169190911790556100db565b600080546001600160a01b038381166001600160a01b0319831681178455604051919092169283917f8be0079c531659141344cd1fd0a4f28419497f9722a3daafe3b4186f6b6457e09190a35050565b6000602082840312156100be578081fd5b81516001600160a01b03811681146100d4578182fd5b9392505050565b611587806100ea6000396000f3fe608060405234801561001057600080fd5b50600436106100885760003560e01c80637152d9d91161005b5780637152d9d9146100f35780638da5cb5b14610106578063f2fde38b14610121578063f56e9c661461013457600080fd5b806313a949421461008d57806324108475146100b65780632c72fdfc146100cb578063715018a6146100eb575b600080fd5b6100a061009b366004611129565b610147565b6040516100ad919061140e565b60405180910390f35b6100c96100c4366004611141565b6103e8565b005b6100de6100d9366004611129565b6108bf565b6040516100ad9190611301565b6100c9610c10565b6100c9610101366004611186565b610c46565b6000546040516001600160a01b0390911681526020016100ad565b6100c961012f3660046110db565b610db6565b6100c96101423660046110db565b610e51565b6000818152600660205260408120600581015460048201546060939284929091426101728383611487565b106101c45760405162461bcd60e51b815260206004820152601860248201527f766f74696e6720706572696f64207374696c6c206f70656e000000000000000060448201526064015b60405180910390fd5b600083600301805480602002602001604051908101604052809291908181526020016000905b82821015610296578382906000526020600020018054610209906114cf565b80601f0160208091040260200160405190810160405280929190818152602001828054610235906114cf565b80156102825780601f1061025757610100808354040283529160200191610282565b820191906000526020600020905b81548152906001019060200180831161026557829003601f168201915b5050505050815260200190600101906101ea565b50505050905060005b60068501548110156103db57868560060182815481106102cf57634e487b7160e01b600052603260045260246000fd5b906000526020600020015411156103c95784600601818154811061030357634e487b7160e01b600052603260045260246000fd5b9060005260206000200154965084600301818154811061033357634e487b7160e01b600052603260045260246000fd5b906000526020600020018054610348906114cf565b80601f0160208091040260200160405190810160405280929190818152602001828054610374906114cf565b80156103c15780601f10610396576101008083540402835291602001916103c1565b820191906000526020600020905b8154815290600101906020018083116103a457829003601f168201915b505050505095505b806103d38161150a565b91505061029f565b5093979650505050505050565b60008281526003602090815260408083205460069092529091206005810154600490910154426104188383611487565b1161045c5760405162461bcd60e51b81526020600482015260146024820152731d9bdd1a5b99c81c195c9a5bd90818db1bdcd95960621b60448201526064016101bb565b600085815260026020908152604080832033845290915290205460ff16156104bf5760405162461bcd60e51b81526020600482015260166024820152751e5bdd481a185d9948185b1c9958591e481d9bdd195960521b60448201526064016101bb565b60015460405163a52901b560e01b8152600481018590523360248201526001600160a01b039091169063a52901b59060440160206040518083038186803b15801561050957600080fd5b505afa15801561051d573d6000803e3d6000fd5b505050506040513d601f19601f820116820180604052508101906105419190611109565b15156001146105a15760405162461bcd60e51b815260206004820152602660248201527f796f7520646f6e277420686176652061207469636b657420666f72207468697360448201526508195d995b9d60d21b60648201526084016101bb565b6000600660008781526020019081526020016000206040518060e001604052908160008201548152602001600182015481526020016002820180546105e5906114cf565b80601f0160208091040260200160405190810160405280929190818152602001828054610611906114cf565b801561065e5780601f106106335761010080835404028352916020019161065e565b820191906000526020600020905b81548152906001019060200180831161064157829003601f168201915b5050505050815260200160038201805480602002602001604051908101604052809291908181526020016000905b828210156107385783829060005260206000200180546106ab906114cf565b80601f01602080910402602001604051908101604052809291908181526020018280546106d7906114cf565b80156107245780601f106106f957610100808354040283529160200191610724565b820191906000526020600020905b81548152906001019060200180831161070757829003601f168201915b50505050508152602001906001019061068c565b5050505081526020016004820154815260200160058201548152602001600682018054806020026020016040519081016040528092919081815260200182805480156107a357602002820191906000526020600020905b81548152602001906001019080831161078f575b50505050508152505090506000805b82606001515181101561085457866040516020016107d091906112e5565b604051602081830303815290604052805190602001208360600151828151811061080a57634e487b7160e01b600052603260045260246000fd5b602002602001015160405160200161082291906112e5565b604051602081830303815290604052805190602001201415610842578091505b8061084c8161150a565b9150506107b2565b5060018260c00151828151811061087b57634e487b7160e01b600052603260045260246000fd5b6020026020010181815161088f9190611487565b905250505060009485525050600260209081526040808520338652909152909220805460ff191660011790555050565b6000818152600460205260408120546060919067ffffffffffffffff8111156108f857634e487b7160e01b600052604160045260246000fd5b60405190808252806020026020018201604052801561096957816020015b6109566040518060e00160405280600081526020016000815260200160608152602001606081526020016000815260200160008152602001606081525090565b8152602001906001900390816109165790505b50905060005b600084815260046020526040902054811015610c0957600084815260046020526040812080546006918391859081106109b857634e487b7160e01b600052603260045260246000fd5b906000526020600020015481526020019081526020016000206040518060e00160405290816000820154815260200160018201548152602001600282018054610a00906114cf565b80601f0160208091040260200160405190810160405280929190818152602001828054610a2c906114cf565b8015610a795780601f10610a4e57610100808354040283529160200191610a79565b820191906000526020600020905b815481529060010190602001808311610a5c57829003601f168201915b5050505050815260200160038201805480602002602001604051908101604052809291908181526020016000905b82821015610b53578382906000526020600020018054610ac6906114cf565b80601f0160208091040260200160405190810160405280929190818152602001828054610af2906114cf565b8015610b3f5780601f10610b1457610100808354040283529160200191610b3f565b820191906000526020600020905b815481529060010190602001808311610b2257829003601f168201915b505050505081526020019060010190610aa7565b505050508152602001600482015481526020016005820154815260200160068201805480602002602001604051908101604052809291908181526020018280548015610bbe57602002820191906000526020600020905b815481526020019060010190808311610baa575b505050505081525050905080838381518110610bea57634e487b7160e01b600052603260045260246000fd5b6020026020010181905250508080610c019061150a565b91505061096f565b5092915050565b6000546001600160a01b03163314610c3a5760405162461bcd60e51b81526004016101bb90611421565b610c446000610e9d565b565b6000815167ffffffffffffffff811115610c7057634e487b7160e01b600052604160045260246000fd5b604051908082528060200260200182016040528015610c99578160200160208202803683370190505b5060078054600081815260066020908152604080832093845560019093018a905592548152208651929350610cd692600290910191870190610eed565b5060075460009081526006602090815260409091208351610cff92600390920191850190610f71565b50600780546000908152600660208181526040808420600401889055845484528084204260059091015593548352929091208351610d4593919092019190840190610fca565b5060078054600090815260036020908152604080832089905588835260048252808320935484546001810186559484528284209094019390935587825260059052908120805491610d958361150a565b909155505060078054906000610daa8361150a565b91905055505050505050565b6000546001600160a01b03163314610de05760405162461bcd60e51b81526004016101bb90611421565b6001600160a01b038116610e455760405162461bcd60e51b815260206004820152602660248201527f4f776e61626c653a206e6577206f776e657220697320746865207a65726f206160448201526564647265737360d01b60648201526084016101bb565b610e4e81610e9d565b50565b6000546001600160a01b03163314610e7b5760405162461bcd60e51b81526004016101bb90611421565b600180546001600160a01b0319166001600160a01b0392909216919091179055565b600080546001600160a01b038381166001600160a01b0319831681178455604051919092169283917f8be0079c531659141344cd1fd0a4f28419497f9722a3daafe3b4186f6b6457e09190a35050565b828054610ef9906114cf565b90600052602060002090601f016020900481019282610f1b5760008555610f61565b82601f10610f3457805160ff1916838001178555610f61565b82800160010185558215610f61579182015b82811115610f61578251825591602001919060010190610f46565b50610f6d929150611004565b5090565b828054828255906000526020600020908101928215610fbe579160200282015b82811115610fbe5782518051610fae918491602090910190610eed565b5091602001919060010190610f91565b50610f6d929150611019565b828054828255906000526020600020908101928215610f615791602002820182811115610f61578251825591602001919060010190610f46565b5b80821115610f6d5760008155600101611005565b80821115610f6d57600061102d8282611036565b50600101611019565b508054611042906114cf565b6000825580601f10611052575050565b601f016020900490600052602060002090810190610e4e9190611004565b600082601f830112611080578081fd5b813567ffffffffffffffff81111561109a5761109a61153b565b6110ad601f8201601f1916602001611456565b8181528460208386010111156110c1578283fd5b816020850160208301379081016020019190915292915050565b6000602082840312156110ec578081fd5b81356001600160a01b0381168114611102578182fd5b9392505050565b60006020828403121561111a578081fd5b81518015158114611102578182fd5b60006020828403121561113a578081fd5b5035919050565b60008060408385031215611153578081fd5b82359150602083013567ffffffffffffffff811115611170578182fd5b61117c85828601611070565b9150509250929050565b6000806000806080858703121561119b578182fd5b8435935060208086013567ffffffffffffffff808211156111ba578485fd5b6111c689838a01611070565b95506040880135945060608801359150808211156111e2578384fd5b818801915088601f8301126111f5578384fd5b8135818111156112075761120761153b565b8060051b611216858201611456565b8281528581019085870183870188018e1015611230578889fd5b8893505b8484101561126d5780358681111561124a57898afd5b6112588f8a838b0101611070565b84525060019390930192918701918701611234565b50999c989b5096995050505050505050565b6000815180845260208085019450808401835b838110156112ae57815187529582019590820190600101611292565b509495945050505050565b600081518084526112d181602086016020860161149f565b601f01601f19169290920160200192915050565b600082516112f781846020870161149f565b9190910192915050565b602080825282518282018190526000919060409081850190600581811b87018401888601875b848110156113ff57603f198a8403018652815160e081518552898201518a86015288820151818a87015261135d828701826112b9565b6060848101518883039189019190915280518083529193508c840192508c019080891b84018d018e5b828110156113b457601f198683030185526113a28285516112b9565b948f0194938f01939150600101611386565b50608086810151908a015260a080870151908a015260c095860151898203878b01529594506113e3818761127f565b9b8e019b98505050948b01945050506001919091019050611327565b50909998505050505050505050565b60208152600061110260208301846112b9565b6020808252818101527f4f776e61626c653a2063616c6c6572206973206e6f7420746865206f776e6572604082015260600190565b604051601f8201601f1916810167ffffffffffffffff8111828210171561147f5761147f61153b565b604052919050565b6000821982111561149a5761149a611525565b500190565b60005b838110156114ba5781810151838201526020016114a2565b838111156114c9576000848401525b50505050565b600181811c908216806114e357607f821691505b6020821081141561150457634e487b7160e01b600052602260045260246000fd5b50919050565b600060001982141561151e5761151e611525565b5060010190565b634e487b7160e01b600052601160045260246000fd5b634e487b7160e01b600052604160045260246000fdfea264697066735822122078abe264a93cd3cf19447dfcfa5a4aabb28141b25d7bb576099fe1d0ec18098a64736f6c63430008040033",
  "linkReferences": {},
  "deployedLinkReferences": {}
}