{
  "_format": "hh-sol-artifact-1",
  "contractName": "Governance",
  "sourceName": "hardhat/contracts/Governance.sol",
  "abi": [
    {
      "inputs": [
        {
          "internalType": "address",
          "name": "_nfticket",
          "type": "address"
        }
      ],
      "stateMutability": "nonpayable",
      "type": "constructor"
    },
    {
      "anonymous": false,
      "inputs": [
        {
          "indexed": true,
          "internalType": "address",
          "name": "previousOwner",
          "type": "address"
        },
        {
          "indexed": true,
          "internalType": "address",
          "name": "newOwner",
          "type": "address"
        }
      ],
      "name": "OwnershipTransferred",
      "type": "event"
    },
    {
      "inputs": [
        {
          "internalType": "uint256",
          "name": "_proposalId",
          "type": "uint256"
        }
      ],
      "name": "getVoteWinner",
      "outputs": [
        {
          "internalType": "string",
          "name": "",
          "type": "string"
        }
      ],
      "stateMutability": "nonpayable",
      "type": "function"
    },
    {
      "inputs": [],
      "name": "owner",
      "outputs": [
        {
          "internalType": "address",
          "name": "",
          "type": "address"
        }
      ],
      "stateMutability": "view",
      "type": "function"
    },
    {
      "inputs": [],
      "name": "renounceOwnership",
      "outputs": [],
      "stateMutability": "nonpayable",
      "type": "function"
    },
    {
      "inputs": [
        {
          "internalType": "uint256",
          "name": "_eventId",
          "type": "uint256"
        },
        {
          "internalType": "string",
          "name": "_proposing",
          "type": "string"
        },
        {
          "internalType": "uint256",
          "name": "_voteDelay",
          "type": "uint256"
        },
        {
          "internalType": "string[]",
          "name": "_options",
          "type": "string[]"
        }
      ],
      "name": "submitProposal",
      "outputs": [],
      "stateMutability": "nonpayable",
      "type": "function"
    },
    {
      "inputs": [
        {
          "internalType": "address",
          "name": "newOwner",
          "type": "address"
        }
      ],
      "name": "transferOwnership",
      "outputs": [],
      "stateMutability": "nonpayable",
      "type": "function"
    },
    {
      "inputs": [
        {
          "internalType": "uint256",
          "name": "_proposalId",
          "type": "uint256"
        },
        {
          "internalType": "string",
          "name": "_option",
          "type": "string"
        }
      ],
      "name": "vote",
      "outputs": [],
      "stateMutability": "nonpayable",
      "type": "function"
    }
  ],
  "bytecode": "0x608060405234801561001057600080fd5b50604051610d82380380610d8283398101604081905261002f916100ad565b6100383361005d565b600180546001600160a01b0319166001600160a01b03929092169190911790556100db565b600080546001600160a01b038381166001600160a01b0319831681178455604051919092169283917f8be0079c531659141344cd1fd0a4f28419497f9722a3daafe3b4186f6b6457e09190a35050565b6000602082840312156100be578081fd5b81516001600160a01b03811681146100d4578182fd5b9392505050565b610c98806100ea6000396000f3fe608060405234801561001057600080fd5b50600436106100625760003560e01c806313a94942146100675780632410847514610090578063715018a6146100a55780637152d9d9146100ad5780638da5cb5b146100c0578063f2fde38b146100db575b600080fd5b61007a6100753660046109c5565b6100ee565b6040516100879190610b37565b60405180910390f35b6100a361009e3660046109dd565b6103b0565b005b6100a3610475565b6100a36100bb366004610a22565b6104db565b6000546040516001600160a01b039091168152602001610087565b6100a36100e9366004610986565b6106b7565b60008181526004602052604081206003810154606092918391421161015a5760405162461bcd60e51b815260206004820152601860248201527f766f74696e6720706572696f64207374696c6c206f70656e000000000000000060448201526064015b60405180910390fd5b600081600201805480602002602001604051908101604052809291908181526020016000905b8282101561022c57838290600052602060002001805461019f90610bcb565b80601f01602080910402602001604051908101604052809291908181526020018280546101cb90610bcb565b80156102185780601f106101ed57610100808354040283529160200191610218565b820191906000526020600020905b8154815290600101906020018083116101fb57829003601f168201915b505050505081526020019060010190610180565b50505050905060005b60028301548110156103a557848360040183838151811061026657634e487b7160e01b600052603260045260246000fd5b602002602001015160405161027b9190610b1b565b908152602001604051809103902054111561039357826004018282815181106102b457634e487b7160e01b600052603260045260246000fd5b60200260200101516040516102c99190610b1b565b90815260200160405180910390205494508260020181815481106102fd57634e487b7160e01b600052603260045260246000fd5b90600052602060002001805461031290610bcb565b80601f016020809104026020016040519081016040528092919081815260200182805461033e90610bcb565b801561038b5780601f106103605761010080835404028352916020019161038b565b820191906000526020600020905b81548152906001019060200180831161036e57829003601f168201915b505050505093505b8061039d81610c06565b915050610235565b509195945050505050565b6000828152600360208181526040808420546004909252909220015442106104115760405162461bcd60e51b81526020600482015260146024820152731d9bdd1a5b99c81c195c9a5bd90818db1bdcd95960621b6044820152606401610151565b60008381526002602090815260408083203384529091529020805460ff1916905560405162461bcd60e51b8152600401610151906020808252601690820152751e5bdd481a185d9948185b1c9958591e481d9bdd195960521b604082015260600190565b6000546001600160a01b031633146104cf5760405162461bcd60e51b815260206004820181905260248201527f4f776e61626c653a2063616c6c6572206973206e6f7420746865206f776e65726044820152606401610151565b6104d96000610782565b565b60015460405163fe210f6960e01b81526004810186905233916001600160a01b03169063fe210f699060240160206040518083038186803b15801561051f57600080fd5b505afa158015610533573d6000803e3d6000fd5b505050506040513d601f19601f8201168201806040525081019061055791906109a9565b6001600160a01b0316146105ad5760405162461bcd60e51b815260206004820152601d60248201527f63616c6c6572206973206e6f7420746865206576656e74206f776e65720000006044820152606401610151565b6005805460009081526004602090815260408083208890559254825291902084516105e0926001909201918601906107d2565b506005546000908152600460209081526040909120825161060992600290920191840190610856565b5060055460009081526004602052604081206003018390555b815181101561069c57600060046000600554815260200190815260200160002060040183838151811061066557634e487b7160e01b600052603260045260246000fd5b602002602001015160405161067a9190610b1b565b908152604051908190036020019020558061069481610c06565b915050610622565b50506005546000908152600360205260409020929092555050565b6000546001600160a01b031633146107115760405162461bcd60e51b815260206004820181905260248201527f4f776e61626c653a2063616c6c6572206973206e6f7420746865206f776e65726044820152606401610151565b6001600160a01b0381166107765760405162461bcd60e51b815260206004820152602660248201527f4f776e61626c653a206e6577206f776e657220697320746865207a65726f206160448201526564647265737360d01b6064820152608401610151565b61077f81610782565b50565b600080546001600160a01b038381166001600160a01b0319831681178455604051919092169283917f8be0079c531659141344cd1fd0a4f28419497f9722a3daafe3b4186f6b6457e09190a35050565b8280546107de90610bcb565b90600052602060002090601f0160209004810192826108005760008555610846565b82601f1061081957805160ff1916838001178555610846565b82800160010185558215610846579182015b8281111561084657825182559160200191906001019061082b565b506108529291506108af565b5090565b8280548282559060005260206000209081019282156108a3579160200282015b828111156108a357825180516108939184916020909101906107d2565b5091602001919060010190610876565b506108529291506108c4565b5b8082111561085257600081556001016108b0565b808211156108525760006108d882826108e1565b506001016108c4565b5080546108ed90610bcb565b6000825580601f106108fd575050565b601f01602090049060005260206000209081019061077f91906108af565b600082601f83011261092b578081fd5b813567ffffffffffffffff81111561094557610945610c37565b610958601f8201601f1916602001610b6a565b81815284602083860101111561096c578283fd5b816020850160208301379081016020019190915292915050565b600060208284031215610997578081fd5b81356109a281610c4d565b9392505050565b6000602082840312156109ba578081fd5b81516109a281610c4d565b6000602082840312156109d6578081fd5b5035919050565b600080604083850312156109ef578081fd5b82359150602083013567ffffffffffffffff811115610a0c578182fd5b610a188582860161091b565b9150509250929050565b60008060008060808587031215610a37578182fd5b8435935060208086013567ffffffffffffffff80821115610a56578485fd5b610a6289838a0161091b565b9550604088013594506060880135915080821115610a7e578384fd5b818801915088601f830112610a91578384fd5b813581811115610aa357610aa3610c37565b8060051b610ab2858201610b6a565b8281528581019085870183870188018e1015610acc578889fd5b8893505b84841015610b0957803586811115610ae657898afd5b610af48f8a838b010161091b565b84525060019390930192918701918701610ad0565b50999c989b5096995050505050505050565b60008251610b2d818460208701610b9b565b9190910192915050565b6020815260008251806020840152610b56816040850160208701610b9b565b601f01601f19169190910160400192915050565b604051601f8201601f1916810167ffffffffffffffff81118282101715610b9357610b93610c37565b604052919050565b60005b83811015610bb6578181015183820152602001610b9e565b83811115610bc5576000848401525b50505050565b600181811c90821680610bdf57607f821691505b60208210811415610c0057634e487b7160e01b600052602260045260246000fd5b50919050565b6000600019821415610c1a57610c1a610c21565b5060010190565b634e487b7160e01b600052601160045260246000fd5b634e487b7160e01b600052604160045260246000fd5b6001600160a01b038116811461077f57600080fdfea264697066735822122039511fce7688d0e89380c13520f18cdb6203067f042caea9cec233b7b303dc6c64736f6c63430008040033",
  "linkReferences": {},
  "deployedLinkReferences": {}
}