{
  "_format": "hh-sol-artifact-1",
  "contractName": "Governance",
  "sourceName": "hardhat/contracts/Governance.sol",
  "abi": [
    {
      "inputs": [
        {
          "internalType": "address",
          "name": "_nfticket",
          "type": "address"
        }
      ],
      "stateMutability": "nonpayable",
      "type": "constructor"
    },
    {
      "anonymous": false,
      "inputs": [
        {
          "indexed": true,
          "internalType": "address",
          "name": "previousOwner",
          "type": "address"
        },
        {
          "indexed": true,
          "internalType": "address",
          "name": "newOwner",
          "type": "address"
        }
      ],
      "name": "OwnershipTransferred",
      "type": "event"
    },
    {
      "inputs": [
        {
          "internalType": "uint256",
          "name": "_eventId",
          "type": "uint256"
        }
      ],
      "name": "getProposals",
      "outputs": [
        {
          "components": [
            {
              "internalType": "uint256",
              "name": "id",
              "type": "uint256"
            },
            {
              "internalType": "string",
              "name": "proposing",
              "type": "string"
            },
            {
              "internalType": "string[]",
              "name": "options",
              "type": "string[]"
            },
            {
              "internalType": "uint256",
              "name": "voteDelay",
              "type": "uint256"
            },
            {
              "internalType": "uint256",
              "name": "creationTime",
              "type": "uint256"
            },
            {
              "internalType": "uint256[]",
              "name": "votes",
              "type": "uint256[]"
            }
          ],
          "internalType": "struct Governance.Proposal[]",
          "name": "",
          "type": "tuple[]"
        }
      ],
      "stateMutability": "view",
      "type": "function"
    },
    {
      "inputs": [
        {
          "internalType": "uint256",
          "name": "_proposalId",
          "type": "uint256"
        }
      ],
      "name": "getVoteWinner",
      "outputs": [
        {
          "internalType": "string",
          "name": "",
          "type": "string"
        }
      ],
      "stateMutability": "nonpayable",
      "type": "function"
    },
    {
      "inputs": [],
      "name": "owner",
      "outputs": [
        {
          "internalType": "address",
          "name": "",
          "type": "address"
        }
      ],
      "stateMutability": "view",
      "type": "function"
    },
    {
      "inputs": [],
      "name": "renounceOwnership",
      "outputs": [],
      "stateMutability": "nonpayable",
      "type": "function"
    },
    {
      "inputs": [
        {
          "internalType": "uint256",
          "name": "_eventId",
          "type": "uint256"
        },
        {
          "internalType": "string",
          "name": "_proposing",
          "type": "string"
        },
        {
          "internalType": "uint256",
          "name": "_voteDelay",
          "type": "uint256"
        },
        {
          "internalType": "string[]",
          "name": "_options",
          "type": "string[]"
        }
      ],
      "name": "submitProposal",
      "outputs": [],
      "stateMutability": "nonpayable",
      "type": "function"
    },
    {
      "inputs": [
        {
          "internalType": "address",
          "name": "newOwner",
          "type": "address"
        }
      ],
      "name": "transferOwnership",
      "outputs": [],
      "stateMutability": "nonpayable",
      "type": "function"
    },
    {
      "inputs": [
        {
          "internalType": "uint256",
          "name": "_proposalId",
          "type": "uint256"
        },
        {
          "internalType": "string",
          "name": "_option",
          "type": "string"
        }
      ],
      "name": "vote",
      "outputs": [],
      "stateMutability": "nonpayable",
      "type": "function"
    }
  ],
  "bytecode": "0x608060405234801561001057600080fd5b5060405161157e38038061157e83398101604081905261002f916100ad565b6100383361005d565b600180546001600160a01b0319166001600160a01b03929092169190911790556100db565b600080546001600160a01b038381166001600160a01b0319831681178455604051919092169283917f8be0079c531659141344cd1fd0a4f28419497f9722a3daafe3b4186f6b6457e09190a35050565b6000602082840312156100be578081fd5b81516001600160a01b03811681146100d4578182fd5b9392505050565b611494806100ea6000396000f3fe608060405234801561001057600080fd5b506004361061007d5760003560e01c8063715018a61161005b578063715018a6146100e05780637152d9d9146100e85780638da5cb5b146100fb578063f2fde38b1461011657600080fd5b806313a949421461008257806324108475146100ab5780632c72fdfc146100c0575b600080fd5b610095610090366004611063565b610129565b6040516100a2919061133b565b60405180910390f35b6100be6100b936600461107b565b6103ca565b005b6100d36100ce366004611063565b610713565b6040516100a2919061123b565b6100be610b05565b6100be6100f63660046110c0565b610b6b565b6000546040516001600160a01b0390911681526020016100a2565b6100be610124366004611024565b610d1b565b600081815260056020526040812060048101546003820154606093928492909142610154838361137f565b106101a65760405162461bcd60e51b815260206004820152601860248201527f766f74696e6720706572696f64207374696c6c206f70656e000000000000000060448201526064015b60405180910390fd5b600083600201805480602002602001604051908101604052809291908181526020016000905b828210156102785783829060005260206000200180546101eb906113c7565b80601f0160208091040260200160405190810160405280929190818152602001828054610217906113c7565b80156102645780601f1061023957610100808354040283529160200191610264565b820191906000526020600020905b81548152906001019060200180831161024757829003601f168201915b5050505050815260200190600101906101cc565b50505050905060005b60058501548110156103bd57868560050182815481106102b157634e487b7160e01b600052603260045260246000fd5b906000526020600020015411156103ab578460050181815481106102e557634e487b7160e01b600052603260045260246000fd5b9060005260206000200154965084600201818154811061031557634e487b7160e01b600052603260045260246000fd5b90600052602060002001805461032a906113c7565b80601f0160208091040260200160405190810160405280929190818152602001828054610356906113c7565b80156103a35780601f10610378576101008083540402835291602001916103a3565b820191906000526020600020905b81548152906001019060200180831161038657829003601f168201915b505050505095505b806103b581611402565b915050610281565b5093979650505050505050565b60008281526003602081815260408084205460059092529092206004810154910154426103f7838361137f565b1161043b5760405162461bcd60e51b81526020600482015260146024820152731d9bdd1a5b99c81c195c9a5bd90818db1bdcd95960621b604482015260640161019d565b60008581526002602090815260408083203384529091529020805460ff1916905560405162461bcd60e51b815260040161019d906020808252601690820152751e5bdd481a185d9948185b1c9958591e481d9bdd195960521b604082015260600190565b81548152906001019060200180831161049f575050509183525050600282018054604080516020838102820181019092528281529381019392919060009084015b8282101561058c5783829060005260206000200180546104ff906113c7565b80601f016020809104026020016040519081016040528092919081815260200182805461052b906113c7565b80156105785780601f1061054d57610100808354040283529160200191610578565b820191906000526020600020905b81548152906001019060200180831161055b57829003601f168201915b5050505050815260200190600101906104e0565b5050505081526020016003820154815260200160048201548152602001600582018054806020026020016040519081016040528092919081815260200182805480156105f757602002820191906000526020600020905b8154815260200190600101908083116105e3575b50505050508152505090506000805b8260400151518110156106a85786604051602001610624919061121f565b604051602081830303815290604052805190602001208360400151828151811061065e57634e487b7160e01b600052603260045260246000fd5b6020026020010151604051602001610676919061121f565b604051602081830303815290604052805190602001201415610696578091505b806106a081611402565b915050610606565b5060018260a0015182815181106106cf57634e487b7160e01b600052603260045260246000fd5b602002602001018181516106e3919061137f565b905250505060009485525050600260209081526040808520338652909152909220805460ff191660011790555050565b6000818152600460205260408120546060919067ffffffffffffffff81111561074c57634e487b7160e01b600052604160045260246000fd5b604051908082528060200260200182016040528015610775578160200160208202803683370190505b5090506000805b6000858152600460205260409020548110156107f4576000818152600360205260409020548514156107e257808383815181106107c957634e487b7160e01b600052603260045260246000fd5b6020908102919091010152816107de81611402565b9250505b806107ec81611402565b91505061077c565b506000825167ffffffffffffffff81111561081f57634e487b7160e01b600052604160045260246000fd5b60405190808252806020026020018201604052801561088957816020015b6108766040518060c001604052806000815260200160608152602001606081526020016000815260200160008152602001606081525090565b81526020019060019003908161083d5790505b50905060005b8351811015610afc57600560008583815181106108bc57634e487b7160e01b600052603260045260246000fd5b602002602001015181526020019081526020016000206040518060c0016040529081600082015481526020016001820180546108f7906113c7565b80601f0160208091040260200160405190810160405280929190818152602001828054610923906113c7565b80156109705780601f1061094557610100808354040283529160200191610970565b820191906000526020600020905b81548152906001019060200180831161095357829003601f168201915b5050505050815260200160028201805480602002602001604051908101604052809291908181526020016000905b82821015610a4a5783829060005260206000200180546109bd906113c7565b80601f01602080910402602001604051908101604052809291908181526020018280546109e9906113c7565b8015610a365780601f10610a0b57610100808354040283529160200191610a36565b820191906000526020600020905b815481529060010190602001808311610a1957829003601f168201915b50505050508152602001906001019061099e565b505050508152602001600382015481526020016004820154815260200160058201805480602002602001604051908101604052809291908181526020018280548015610ab557602002820191906000526020600020905b815481526020019060010190808311610aa1575b505050505081525050828281518110610ade57634e487b7160e01b600052603260045260246000fd5b60200260200101819052508080610af490611402565b91505061088f565b50949350505050565b6000546001600160a01b03163314610b5f5760405162461bcd60e51b815260206004820181905260248201527f4f776e61626c653a2063616c6c6572206973206e6f7420746865206f776e6572604482015260640161019d565b610b696000610de6565b565b60015460405163fe210f6960e01b81526004810186905233916001600160a01b03169063fe210f699060240160206040518083038186803b158015610baf57600080fd5b505afa158015610bc3573d6000803e3d6000fd5b505050506040513d601f19601f82011682018060405250810190610be79190611047565b6001600160a01b031614610c3d5760405162461bcd60e51b815260206004820152601d60248201527f63616c6c6572206973206e6f7420746865206576656e74206f776e6572000000604482015260640161019d565b600680546000908152600560209081526040808320889055925482529190208451606092610c72926001019190870190610e36565b5060065460009081526005602090815260409091208351610c9b92600290920191850190610eba565b50600680546000908152600560208181526040808420600301889055845484528084204260049091015593548352929091208351610ce193919092019190840190610f13565b50600654600090815260036020908152604080832088905587835260049091528120805491610d0f83611402565b91905055505050505050565b6000546001600160a01b03163314610d755760405162461bcd60e51b815260206004820181905260248201527f4f776e61626c653a2063616c6c6572206973206e6f7420746865206f776e6572604482015260640161019d565b6001600160a01b038116610dda5760405162461bcd60e51b815260206004820152602660248201527f4f776e61626c653a206e6577206f776e657220697320746865207a65726f206160448201526564647265737360d01b606482015260840161019d565b610de381610de6565b50565b600080546001600160a01b038381166001600160a01b0319831681178455604051919092169283917f8be0079c531659141344cd1fd0a4f28419497f9722a3daafe3b4186f6b6457e09190a35050565b828054610e42906113c7565b90600052602060002090601f016020900481019282610e645760008555610eaa565b82601f10610e7d57805160ff1916838001178555610eaa565b82800160010185558215610eaa579182015b82811115610eaa578251825591602001919060010190610e8f565b50610eb6929150610f4d565b5090565b828054828255906000526020600020908101928215610f07579160200282015b82811115610f075782518051610ef7918491602090910190610e36565b5091602001919060010190610eda565b50610eb6929150610f62565b828054828255906000526020600020908101928215610eaa5791602002820182811115610eaa578251825591602001919060010190610e8f565b5b80821115610eb65760008155600101610f4e565b80821115610eb6576000610f768282610f7f565b50600101610f62565b508054610f8b906113c7565b6000825580601f10610f9b575050565b601f016020900490600052602060002090810190610de39190610f4d565b600082601f830112610fc9578081fd5b813567ffffffffffffffff811115610fe357610fe3611433565b610ff6601f8201601f191660200161134e565b81815284602083860101111561100a578283fd5b816020850160208301379081016020019190915292915050565b600060208284031215611035578081fd5b813561104081611449565b9392505050565b600060208284031215611058578081fd5b815161104081611449565b600060208284031215611074578081fd5b5035919050565b6000806040838503121561108d578081fd5b82359150602083013567ffffffffffffffff8111156110aa578182fd5b6110b685828601610fb9565b9150509250929050565b600080600080608085870312156110d5578182fd5b8435935060208086013567ffffffffffffffff808211156110f4578485fd5b61110089838a01610fb9565b955060408801359450606088013591508082111561111c578384fd5b818801915088601f83011261112f578384fd5b81358181111561114157611141611433565b8060051b61115085820161134e565b8281528581019085870183870188018e101561116a578889fd5b8893505b848410156111a75780358681111561118457898afd5b6111928f8a838b0101610fb9565b8452506001939093019291870191870161116e565b50999c989b5096995050505050505050565b6000815180845260208085019450808401835b838110156111e8578151875295820195908201906001016111cc565b509495945050505050565b6000815180845261120b816020860160208601611397565b601f01601f19169290920160200192915050565b60008251611231818460208701611397565b9190910192915050565b602080825282518282018190526000919060409081850190600581811b87018401888601875b8481101561132c57603f198a8403018652815160c08151855289820151818b87015261128f828701826111f3565b838b0151878203888d015280518083529193508c0191508b83019080891b84018d018e5b828110156112e157601f198683030184526112cf8286516111f3565b948f0194938f019391506001016112b3565b50606086810151908a0152608080870151908a015260a095860151898203878b015295945061131081876111b9565b9b8e019b98505050948b01945050506001919091019050611261565b50909998505050505050505050565b60208152600061104060208301846111f3565b604051601f8201601f1916810167ffffffffffffffff8111828210171561137757611377611433565b604052919050565b600082198211156113925761139261141d565b500190565b60005b838110156113b257818101518382015260200161139a565b838111156113c1576000848401525b50505050565b600181811c908216806113db57607f821691505b602082108114156113fc57634e487b7160e01b600052602260045260246000fd5b50919050565b60006000198214156114165761141661141d565b5060010190565b634e487b7160e01b600052601160045260246000fd5b634e487b7160e01b600052604160045260246000fd5b6001600160a01b0381168114610de357600080fdfea2646970667358221220ff33104dff730055714d097c816a3a52964141c4ad85f51ebda88b9849a3cb7a64736f6c63430008040033",
  "linkReferences": {},
  "deployedLinkReferences": {}
}