{
  "_format": "hh-sol-artifact-1",
  "contractName": "NFTicket1155",
  "sourceName": "hardhat/contracts/NFTicket1155.sol",
  "abi": [
    {
      "inputs": [],
      "stateMutability": "nonpayable",
      "type": "constructor"
    },
    {
      "anonymous": false,
      "inputs": [
        {
          "indexed": true,
          "internalType": "address",
          "name": "account",
          "type": "address"
        },
        {
          "indexed": true,
          "internalType": "address",
          "name": "operator",
          "type": "address"
        },
        {
          "indexed": false,
          "internalType": "bool",
          "name": "approved",
          "type": "bool"
        }
      ],
      "name": "ApprovalForAll",
      "type": "event"
    },
    {
      "anonymous": false,
      "inputs": [
        {
          "indexed": true,
          "internalType": "address",
          "name": "previousOwner",
          "type": "address"
        },
        {
          "indexed": true,
          "internalType": "address",
          "name": "newOwner",
          "type": "address"
        }
      ],
      "name": "OwnershipTransferred",
      "type": "event"
    },
    {
      "anonymous": false,
      "inputs": [
        {
          "indexed": true,
          "internalType": "address",
          "name": "operator",
          "type": "address"
        },
        {
          "indexed": true,
          "internalType": "address",
          "name": "from",
          "type": "address"
        },
        {
          "indexed": true,
          "internalType": "address",
          "name": "to",
          "type": "address"
        },
        {
          "indexed": false,
          "internalType": "uint256[]",
          "name": "ids",
          "type": "uint256[]"
        },
        {
          "indexed": false,
          "internalType": "uint256[]",
          "name": "values",
          "type": "uint256[]"
        }
      ],
      "name": "TransferBatch",
      "type": "event"
    },
    {
      "anonymous": false,
      "inputs": [
        {
          "indexed": true,
          "internalType": "address",
          "name": "operator",
          "type": "address"
        },
        {
          "indexed": true,
          "internalType": "address",
          "name": "from",
          "type": "address"
        },
        {
          "indexed": true,
          "internalType": "address",
          "name": "to",
          "type": "address"
        },
        {
          "indexed": false,
          "internalType": "uint256",
          "name": "id",
          "type": "uint256"
        },
        {
          "indexed": false,
          "internalType": "uint256",
          "name": "value",
          "type": "uint256"
        }
      ],
      "name": "TransferSingle",
      "type": "event"
    },
    {
      "anonymous": false,
      "inputs": [
        {
          "indexed": false,
          "internalType": "string",
          "name": "value",
          "type": "string"
        },
        {
          "indexed": true,
          "internalType": "uint256",
          "name": "id",
          "type": "uint256"
        }
      ],
      "name": "URI",
      "type": "event"
    },
    {
      "inputs": [
        {
          "internalType": "address",
          "name": "account",
          "type": "address"
        },
        {
          "internalType": "uint256",
          "name": "id",
          "type": "uint256"
        }
      ],
      "name": "balanceOf",
      "outputs": [
        {
          "internalType": "uint256",
          "name": "",
          "type": "uint256"
        }
      ],
      "stateMutability": "view",
      "type": "function"
    },
    {
      "inputs": [
        {
          "internalType": "address[]",
          "name": "accounts",
          "type": "address[]"
        },
        {
          "internalType": "uint256[]",
          "name": "ids",
          "type": "uint256[]"
        }
      ],
      "name": "balanceOfBatch",
      "outputs": [
        {
          "internalType": "uint256[]",
          "name": "",
          "type": "uint256[]"
        }
      ],
      "stateMutability": "view",
      "type": "function"
    },
    {
      "inputs": [
        {
          "internalType": "uint256",
          "name": "",
          "type": "uint256"
        },
        {
          "internalType": "address",
          "name": "",
          "type": "address"
        }
      ],
      "name": "bought",
      "outputs": [
        {
          "internalType": "bool",
          "name": "",
          "type": "bool"
        }
      ],
      "stateMutability": "view",
      "type": "function"
    },
    {
      "inputs": [
        {
          "internalType": "uint256",
          "name": "_id",
          "type": "uint256"
        },
        {
          "internalType": "address",
          "name": "_user",
          "type": "address"
        }
      ],
      "name": "claimTicket",
      "outputs": [],
      "stateMutability": "nonpayable",
      "type": "function"
    },
    {
      "inputs": [
        {
          "internalType": "uint256",
          "name": "_supply",
          "type": "uint256"
        },
        {
          "internalType": "string",
          "name": "_name",
          "type": "string"
        },
        {
          "internalType": "string",
          "name": "_description",
          "type": "string"
        },
        {
          "internalType": "string",
          "name": "_image",
          "type": "string"
        },
        {
          "internalType": "string",
          "name": "_location",
          "type": "string"
        },
        {
          "internalType": "string",
          "name": "_host",
          "type": "string"
        },
        {
          "internalType": "uint256",
          "name": "_eventDate",
          "type": "uint256"
        },
        {
          "internalType": "bool",
          "name": "_hasWhitelist",
          "type": "bool"
        },
        {
          "internalType": "string",
          "name": "_tokenURI",
          "type": "string"
        },
        {
          "internalType": "uint256",
          "name": "_price",
          "type": "uint256"
        },
        {
          "internalType": "string",
          "name": "_link",
          "type": "string"
        }
      ],
      "name": "createEvent",
      "outputs": [],
      "stateMutability": "nonpayable",
      "type": "function"
    },
    {
      "inputs": [
        {
          "internalType": "uint256",
          "name": "_id",
          "type": "uint256"
        },
        {
          "internalType": "address",
          "name": "user",
          "type": "address"
        }
      ],
      "name": "didUserBuy",
      "outputs": [
        {
          "internalType": "bool",
          "name": "",
          "type": "bool"
        }
      ],
      "stateMutability": "view",
      "type": "function"
    },
    {
      "inputs": [
        {
          "internalType": "uint256",
          "name": "",
          "type": "uint256"
        }
      ],
      "name": "eventOwner",
      "outputs": [
        {
          "internalType": "address",
          "name": "",
          "type": "address"
        }
      ],
      "stateMutability": "view",
      "type": "function"
    },
    {
      "inputs": [
        {
          "internalType": "uint256",
          "name": "id",
          "type": "uint256"
        }
      ],
      "name": "exists",
      "outputs": [
        {
          "internalType": "bool",
          "name": "",
          "type": "bool"
        }
      ],
      "stateMutability": "view",
      "type": "function"
    },
    {
      "inputs": [],
      "name": "getActiveEvents",
      "outputs": [
        {
          "components": [
            {
              "internalType": "uint256",
              "name": "id",
              "type": "uint256"
            },
            {
              "internalType": "uint256",
              "name": "supply",
              "type": "uint256"
            },
            {
              "internalType": "string",
              "name": "name",
              "type": "string"
            },
            {
              "internalType": "string",
              "name": "description",
              "type": "string"
            },
            {
              "internalType": "string",
              "name": "image",
              "type": "string"
            },
            {
              "internalType": "string",
              "name": "location",
              "type": "string"
            },
            {
              "internalType": "string",
              "name": "host",
              "type": "string"
            },
            {
              "internalType": "uint256",
              "name": "eventDate",
              "type": "uint256"
            },
            {
              "internalType": "bool",
              "name": "hasWhitelist",
              "type": "bool"
            },
            {
              "internalType": "string",
              "name": "tokenURI",
              "type": "string"
            },
            {
              "internalType": "uint256",
              "name": "price",
              "type": "uint256"
            },
            {
              "internalType": "address[]",
              "name": "whitelisted",
              "type": "address[]"
            },
            {
              "internalType": "string",
              "name": "link",
              "type": "string"
            }
          ],
          "internalType": "struct NFTicket1155.Event[]",
          "name": "",
          "type": "tuple[]"
        }
      ],
      "stateMutability": "view",
      "type": "function"
    },
    {
      "inputs": [
        {
          "internalType": "uint256",
          "name": "_eventId",
          "type": "uint256"
        }
      ],
      "name": "getEvent",
      "outputs": [
        {
          "components": [
            {
              "internalType": "uint256",
              "name": "id",
              "type": "uint256"
            },
            {
              "internalType": "uint256",
              "name": "supply",
              "type": "uint256"
            },
            {
              "internalType": "string",
              "name": "name",
              "type": "string"
            },
            {
              "internalType": "string",
              "name": "description",
              "type": "string"
            },
            {
              "internalType": "string",
              "name": "image",
              "type": "string"
            },
            {
              "internalType": "string",
              "name": "location",
              "type": "string"
            },
            {
              "internalType": "string",
              "name": "host",
              "type": "string"
            },
            {
              "internalType": "uint256",
              "name": "eventDate",
              "type": "uint256"
            },
            {
              "internalType": "bool",
              "name": "hasWhitelist",
              "type": "bool"
            },
            {
              "internalType": "string",
              "name": "tokenURI",
              "type": "string"
            },
            {
              "internalType": "uint256",
              "name": "price",
              "type": "uint256"
            },
            {
              "internalType": "address[]",
              "name": "whitelisted",
              "type": "address[]"
            },
            {
              "internalType": "string",
              "name": "link",
              "type": "string"
            }
          ],
          "internalType": "struct NFTicket1155.Event",
          "name": "",
          "type": "tuple"
        }
      ],
      "stateMutability": "view",
      "type": "function"
    },
    {
      "inputs": [
        {
          "internalType": "uint256",
          "name": "_id",
          "type": "uint256"
        }
      ],
      "name": "getEventOwner",
      "outputs": [
        {
          "internalType": "address",
          "name": "",
          "type": "address"
        }
      ],
      "stateMutability": "view",
      "type": "function"
    },
    {
      "inputs": [
        {
          "internalType": "address",
          "name": "_user",
          "type": "address"
        }
      ],
      "name": "getEventsByUser",
      "outputs": [
        {
          "components": [
            {
              "internalType": "uint256",
              "name": "id",
              "type": "uint256"
            },
            {
              "internalType": "uint256",
              "name": "supply",
              "type": "uint256"
            },
            {
              "internalType": "string",
              "name": "name",
              "type": "string"
            },
            {
              "internalType": "string",
              "name": "description",
              "type": "string"
            },
            {
              "internalType": "string",
              "name": "image",
              "type": "string"
            },
            {
              "internalType": "string",
              "name": "location",
              "type": "string"
            },
            {
              "internalType": "string",
              "name": "host",
              "type": "string"
            },
            {
              "internalType": "uint256",
              "name": "eventDate",
              "type": "uint256"
            },
            {
              "internalType": "bool",
              "name": "hasWhitelist",
              "type": "bool"
            },
            {
              "internalType": "string",
              "name": "tokenURI",
              "type": "string"
            },
            {
              "internalType": "uint256",
              "name": "price",
              "type": "uint256"
            },
            {
              "internalType": "address[]",
              "name": "whitelisted",
              "type": "address[]"
            },
            {
              "internalType": "string",
              "name": "link",
              "type": "string"
            }
          ],
          "internalType": "struct NFTicket1155.Event[]",
          "name": "",
          "type": "tuple[]"
        }
      ],
      "stateMutability": "view",
      "type": "function"
    },
    {
      "inputs": [
        {
          "internalType": "uint256",
          "name": "id",
          "type": "uint256"
        }
      ],
      "name": "getURI",
      "outputs": [
        {
          "internalType": "string",
          "name": "",
          "type": "string"
        }
      ],
      "stateMutability": "view",
      "type": "function"
    },
    {
      "inputs": [
        {
          "internalType": "address",
          "name": "account",
          "type": "address"
        },
        {
          "internalType": "address",
          "name": "operator",
          "type": "address"
        }
      ],
      "name": "isApprovedForAll",
      "outputs": [
        {
          "internalType": "bool",
          "name": "",
          "type": "bool"
        }
      ],
      "stateMutability": "view",
      "type": "function"
    },
    {
      "inputs": [
        {
          "internalType": "uint256",
          "name": "id",
          "type": "uint256"
        },
        {
          "internalType": "uint256",
          "name": "amount",
          "type": "uint256"
        },
        {
          "internalType": "bytes",
          "name": "data",
          "type": "bytes"
        }
      ],
      "name": "mint",
      "outputs": [],
      "stateMutability": "payable",
      "type": "function"
    },
    {
      "inputs": [
        {
          "internalType": "address",
          "name": "to",
          "type": "address"
        },
        {
          "internalType": "uint256[]",
          "name": "ids",
          "type": "uint256[]"
        },
        {
          "internalType": "uint256[]",
          "name": "amounts",
          "type": "uint256[]"
        },
        {
          "internalType": "bytes",
          "name": "data",
          "type": "bytes"
        }
      ],
      "name": "mintBatch",
      "outputs": [],
      "stateMutability": "nonpayable",
      "type": "function"
    },
    {
      "inputs": [],
      "name": "owner",
      "outputs": [
        {
          "internalType": "address",
          "name": "",
          "type": "address"
        }
      ],
      "stateMutability": "view",
      "type": "function"
    },
    {
      "inputs": [
        {
          "internalType": "uint256",
          "name": "_eventId",
          "type": "uint256"
        }
      ],
      "name": "payEventOwner",
      "outputs": [
        {
          "internalType": "bool",
          "name": "",
          "type": "bool"
        }
      ],
      "stateMutability": "nonpayable",
      "type": "function"
    },
    {
      "inputs": [
        {
          "internalType": "uint256",
          "name": "_id",
          "type": "uint256"
        },
        {
          "internalType": "address",
          "name": "_user",
          "type": "address"
        }
      ],
      "name": "queryPassword",
      "outputs": [
        {
          "internalType": "bytes32",
          "name": "",
          "type": "bytes32"
        }
      ],
      "stateMutability": "view",
      "type": "function"
    },
    {
      "inputs": [],
      "name": "renounceOwnership",
      "outputs": [],
      "stateMutability": "nonpayable",
      "type": "function"
    },
    {
      "inputs": [
        {
          "internalType": "address",
          "name": "from",
          "type": "address"
        },
        {
          "internalType": "address",
          "name": "to",
          "type": "address"
        },
        {
          "internalType": "uint256[]",
          "name": "ids",
          "type": "uint256[]"
        },
        {
          "internalType": "uint256[]",
          "name": "amounts",
          "type": "uint256[]"
        },
        {
          "internalType": "bytes",
          "name": "data",
          "type": "bytes"
        }
      ],
      "name": "safeBatchTransferFrom",
      "outputs": [],
      "stateMutability": "nonpayable",
      "type": "function"
    },
    {
      "inputs": [
        {
          "internalType": "address",
          "name": "from",
          "type": "address"
        },
        {
          "internalType": "address",
          "name": "to",
          "type": "address"
        },
        {
          "internalType": "uint256",
          "name": "id",
          "type": "uint256"
        },
        {
          "internalType": "uint256",
          "name": "amount",
          "type": "uint256"
        },
        {
          "internalType": "bytes",
          "name": "data",
          "type": "bytes"
        }
      ],
      "name": "safeTransferFrom",
      "outputs": [],
      "stateMutability": "nonpayable",
      "type": "function"
    },
    {
      "inputs": [
        {
          "internalType": "address",
          "name": "operator",
          "type": "address"
        },
        {
          "internalType": "bool",
          "name": "approved",
          "type": "bool"
        }
      ],
      "name": "setApprovalForAll",
      "outputs": [],
      "stateMutability": "nonpayable",
      "type": "function"
    },
    {
      "inputs": [
        {
          "internalType": "uint256",
          "name": "_eventId",
          "type": "uint256"
        },
        {
          "internalType": "bytes32",
          "name": "_password",
          "type": "bytes32"
        }
      ],
      "name": "setPassword",
      "outputs": [],
      "stateMutability": "nonpayable",
      "type": "function"
    },
    {
      "inputs": [
        {
          "internalType": "uint256",
          "name": "_eventId",
          "type": "uint256"
        },
        {
          "internalType": "address[]",
          "name": "_whitelisted",
          "type": "address[]"
        }
      ],
      "name": "setWhitelist",
      "outputs": [],
      "stateMutability": "nonpayable",
      "type": "function"
    },
    {
      "inputs": [
        {
          "internalType": "bytes4",
          "name": "interfaceId",
          "type": "bytes4"
        }
      ],
      "name": "supportsInterface",
      "outputs": [
        {
          "internalType": "bool",
          "name": "",
          "type": "bool"
        }
      ],
      "stateMutability": "view",
      "type": "function"
    },
    {
      "inputs": [
        {
          "internalType": "uint256",
          "name": "id",
          "type": "uint256"
        }
      ],
      "name": "totalSupply",
      "outputs": [
        {
          "internalType": "uint256",
          "name": "",
          "type": "uint256"
        }
      ],
      "stateMutability": "view",
      "type": "function"
    },
    {
      "inputs": [
        {
          "internalType": "address",
          "name": "newOwner",
          "type": "address"
        }
      ],
      "name": "transferOwnership",
      "outputs": [],
      "stateMutability": "nonpayable",
      "type": "function"
    },
    {
      "inputs": [
        {
          "internalType": "uint256",
          "name": "",
          "type": "uint256"
        }
      ],
      "name": "uri",
      "outputs": [
        {
          "internalType": "string",
          "name": "",
          "type": "string"
        }
      ],
      "stateMutability": "view",
      "type": "function"
    },
    {
      "inputs": [
        {
          "internalType": "uint256",
          "name": "_eventId",
          "type": "uint256"
        }
      ],
      "name": "voteOnComplaint",
      "outputs": [],
      "stateMutability": "nonpayable",
      "type": "function"
    },
    {
      "inputs": [
        {
          "internalType": "uint256",
          "name": "_eventId",
          "type": "uint256"
        }
      ],
      "name": "withdrawDeposit",
      "outputs": [],
      "stateMutability": "nonpayable",
      "type": "function"
    }
  ],
  "bytecode": "0x60806040523480156200001157600080fd5b506040805160208101909152600081526200002c816200003e565b50620000383362000057565b6200018c565b805162000053906002906020840190620000a9565b5050565b600380546001600160a01b038381166001600160a01b0319831681179093556040519116919082907f8be0079c531659141344cd1fd0a4f28419497f9722a3daafe3b4186f6b6457e090600090a35050565b828054620000b7906200014f565b90600052602060002090601f016020900481019282620000db576000855562000126565b82601f10620000f657805160ff191683800117855562000126565b8280016001018555821562000126579182015b828111156200012657825182559160200191906001019062000109565b506200013492915062000138565b5090565b5b8082111562000134576000815560010162000139565b600181811c908216806200016457607f821691505b602082108114156200018657634e487b7160e01b600052602260045260246000fd5b50919050565b61431f806200019c6000396000f3fe6080604052600436106101d75760003560e01c80636d1884e011610102578063bd85b03911610095578063e985e9c511610064578063e985e9c5146105f7578063f242432a14610640578063f2fde38b14610660578063fe210f691461068057600080fd5b8063bd85b0391461056a578063c219d5e914610597578063c75cb448146105b7578063e49cde77146105d757600080fd5b80638da5cb5b116100d15780638da5cb5b1461049c578063a22cb465146104ce578063a52901b5146104ee578063b4d59d271461053457600080fd5b80636d1884e01461041a578063715018a6146104475780637b6b3f181461045c578063848abd2d1461047c57600080fd5b80631f7fdffa1161017a5780633612280f116101495780633612280f1461037c5780634e1273f41461039e5780634f558e79146103cb57806365e07abe146103fa57600080fd5b80631f7fdffa146102e15780632c9b5e96146103015780632eb2c2d61461033c57806333289a461461035c57600080fd5b806308dc9f42116101b657806308dc9f42146102615780630e89341c1461027457806310240899146102a15780631aa347dc146102c157600080fd5b8062fdd58e146101dc57806301ffc9a71461020f57806307556b831461023f575b600080fd5b3480156101e857600080fd5b506101fc6101f73660046138f4565b6106b6565b6040519081526020015b60405180910390f35b34801561021b57600080fd5b5061022f61022a36600461397d565b61074d565b6040519015158152602001610206565b34801561024b57600080fd5b5061025f61025a3660046139cd565b61079f565b005b61025f61026f366004613b97565b610865565b34801561028057600080fd5b5061029461028f3660046139b5565b610b00565b6040516102069190613f01565b3480156102ad57600080fd5b5061025f6102bc3660046139b5565b610b94565b3480156102cd57600080fd5b506102946102dc3660046139b5565b610c4a565b3480156102ed57600080fd5b5061025f6102fc366004613837565b610c67565b34801561030d57600080fd5b5061022f61031c3660046139cd565b600b60209081526000928352604080842090915290825290205460ff1681565b34801561034857600080fd5b5061025f610357366004613730565b610ca3565b34801561036857600080fd5b5061025f6103773660046139b5565b610d3a565b34801561038857600080fd5b50610391610ea6565b6040516102069190613e5f565b3480156103aa57600080fd5b506103be6103b936600461391d565b61148a565b6040516102069190613ec0565b3480156103d757600080fd5b5061022f6103e63660046139b5565b600090815260046020526040902054151590565b34801561040657600080fd5b506103916104153660046136dd565b6115eb565b34801561042657600080fd5b5061043a6104353660046139b5565b611bc2565b60405161020691906140e0565b34801561045357600080fd5b5061025f612091565b34801561046857600080fd5b5061025f610477366004613a29565b6120c7565b34801561048857600080fd5b5061025f610497366004613a4a565b612125565b3480156104a857600080fd5b506003546001600160a01b03165b6040516001600160a01b039091168152602001610206565b3480156104da57600080fd5b5061025f6104e93660046138cb565b61237b565b3480156104fa57600080fd5b5061022f6105093660046139cd565b6000918252600b602090815260408084206001600160a01b0393909316845291905290205460ff1690565b34801561054057600080fd5b506104b661054f3660046139b5565b6005602052600090815260409020546001600160a01b031681565b34801561057657600080fd5b506101fc6105853660046139b5565b60009081526004602052604090205490565b3480156105a357600080fd5b5061022f6105b23660046139b5565b61238a565b3480156105c357600080fd5b506101fc6105d23660046139cd565b6124e6565b3480156105e357600080fd5b5061025f6105f23660046139ef565b61253c565b34801561060357600080fd5b5061022f6106123660046136fe565b6001600160a01b03918216600090815260016020908152604080832093909416825291909152205460ff1690565b34801561064c57600080fd5b5061025f61065b3660046137d5565b6125ca565b34801561066c57600080fd5b5061025f61067b3660046136dd565b612651565b34801561068c57600080fd5b506104b661069b3660046139b5565b6000908152600560205260409020546001600160a01b031690565b60006001600160a01b0383166107275760405162461bcd60e51b815260206004820152602b60248201527f455243313135353a2062616c616e636520717565727920666f7220746865207a60448201526a65726f206164647265737360a81b60648201526084015b60405180910390fd5b506000908152602081815260408083206001600160a01b03949094168352929052205490565b60006001600160e01b03198216636cdb3d1360e11b148061077e57506001600160e01b031982166303a24d0760e21b145b8061079957506301ffc9a760e01b6001600160e01b03198316145b92915050565b6003546001600160a01b031633146107c95760405162461bcd60e51b815260040161071e90613feb565b6000828152600a602090815260408083206001600160a01b038516845290915290205460ff16156108355760405162461bcd60e51b81526020600482015260166024820152751d1a58dad95d08185b1c9958591e4818db185a5b595960521b604482015260640161071e565b6000918252600a602090815260408084206001600160a01b0390931684529190529020805460ff19166001179055565b6000838152600b60209081526040808320338452909152902054839060ff16156108d15760405162461bcd60e51b815260206004820152601e60248201527f63616c6c657220616c7265616479206d696e7465642061207469636b65740000604482015260640161071e565b600084815260066020526040902060070154849042106109265760405162461bcd60e51b815260206004820152601060248201526f195d995b9d081a185cc81c185cdcd95960821b604482015260640161071e565b60008581526006602090815260408083206001810154600490935292205411156109925760405162461bcd60e51b815260206004820152601a60248201527f616c6c207469636b6574732068617665206265656e20736f6c64000000000000604482015260640161071e565b600881015460ff1615610a1757600086815260086020908152604080832033845290915290205460ff161515600114610a175760405162461bcd60e51b815260206004820152602160248201527f796f7520617265206e6f7420696e766974656420746f2074686973206576656e6044820152601d60fa1b606482015260840161071e565b80600a01543414610a615760405162461bcd60e51b81526020600482015260146024820152731a5b98dbdc9c9958dd081c1c9a58d9481cd95b9d60621b604482015260640161071e565b6000868152600d602052604081208054349290610a7f908490614116565b90915550506000868152600b6020908152604080832033808552908352818420805460ff191660019081179091558a8552600784528285208054918201815585528385200180546001600160a01b03191682179055600a8501548a8552600e8452828520828652909352922055610af8908787876126ec565b505050505050565b606060028054610b0f90614184565b80601f0160208091040260200160405190810160405280929190818152602001828054610b3b90614184565b8015610b885780601f10610b5d57610100808354040283529160200191610b88565b820191906000526020600020905b815481529060010190602001808311610b6b57829003601f168201915b50505050509050919050565b6000818152600b60209081526040808320338452909152902054819060ff161515600114610bd45760405162461bcd60e51b815260040161071e90614020565b6000828152600f60205260408120805460019290610bf3908490614116565b9091555050600082815260076020908152604080832054600f909252822054610c1c919061412e565b610c2790606461414e565b9050605a8110610c4557610c453384610c4033876106b6565b6127d5565b505050565b6000818152600c60205260409020805460609190610b0f90614184565b6003546001600160a01b03163314610c915760405162461bcd60e51b815260040161071e90613feb565b610c9d84848484612965565b50505050565b6001600160a01b038516331480610cbf5750610cbf8533610612565b610d265760405162461bcd60e51b815260206004820152603260248201527f455243313135353a207472616e736665722063616c6c6572206973206e6f74206044820152711bdddb995c881b9bdc88185c1c1c9bdd995960721b606482015260840161071e565b610d338585858585612adb565b5050505050565b6000818152600b60209081526040808320338452909152902054819060ff161515600114610d7a5760405162461bcd60e51b815260040161071e90614020565b6000828152600e6020908152604080832033845290915290205480610de15760405162461bcd60e51b815260206004820152601e60248201527f616d6f756e74206d6179206e6f74206265207a65726f206f72206c6573730000604482015260640161071e565b80471015610e285760405162461bcd60e51b8152602060048201526014602482015273636f6e7472616374206c61636b732066756e647360601b604482015260640161071e565b6000838152600e6020908152604080832033808552925280832083905551909183156108fc02918491818181858888f19350505050158015610e6e573d6000803e3d6000fd5b506000838152600660209081526040808320600a0154600d9092528220805491929091610e9c90849061416d565b9091555050505050565b60606000805b601054811015610eef57600081815260066020526040902060070154421115610edd5781610ed9816141eb565b9250505b80610ee7816141eb565b915050610eac565b506000816001600160401b03811115610f1857634e487b7160e01b600052604160045260246000fd5b604051908082528060200260200182016040528015610f5157816020015b610f3e61340e565b815260200190600190039081610f365790505b5090506000805b6010548110156114815760008181526006602052604090206007015442111561146f5760066000828152602001908152602001600020604051806101a00160405290816000820154815260200160018201548152602001600282018054610fbe90614184565b80601f0160208091040260200160405190810160405280929190818152602001828054610fea90614184565b80156110375780601f1061100c57610100808354040283529160200191611037565b820191906000526020600020905b81548152906001019060200180831161101a57829003601f168201915b5050505050815260200160038201805461105090614184565b80601f016020809104026020016040519081016040528092919081815260200182805461107c90614184565b80156110c95780601f1061109e576101008083540402835291602001916110c9565b820191906000526020600020905b8154815290600101906020018083116110ac57829003601f168201915b505050505081526020016004820180546110e290614184565b80601f016020809104026020016040519081016040528092919081815260200182805461110e90614184565b801561115b5780601f106111305761010080835404028352916020019161115b565b820191906000526020600020905b81548152906001019060200180831161113e57829003601f168201915b5050505050815260200160058201805461117490614184565b80601f01602080910402602001604051908101604052809291908181526020018280546111a090614184565b80156111ed5780601f106111c2576101008083540402835291602001916111ed565b820191906000526020600020905b8154815290600101906020018083116111d057829003601f168201915b5050505050815260200160068201805461120690614184565b80601f016020809104026020016040519081016040528092919081815260200182805461123290614184565b801561127f5780601f106112545761010080835404028352916020019161127f565b820191906000526020600020905b81548152906001019060200180831161126257829003601f168201915b505050918352505060078201546020820152600882015460ff16151560408201526009820180546060909201916112b590614184565b80601f01602080910402602001604051908101604052809291908181526020018280546112e190614184565b801561132e5780601f106113035761010080835404028352916020019161132e565b820191906000526020600020905b81548152906001019060200180831161131157829003601f168201915b50505050508152602001600a8201548152602001600b820180548060200260200160405190810160405280929190818152602001828054801561139a57602002820191906000526020600020905b81546001600160a01b0316815260019091019060200180831161137c575b50505050508152602001600c820180546113b390614184565b80601f01602080910402602001604051908101604052809291908181526020018280546113df90614184565b801561142c5780601f106114015761010080835404028352916020019161142c565b820191906000526020600020905b81548152906001019060200180831161140f57829003601f168201915b50505050508152505083838151811061145557634e487b7160e01b600052603260045260246000fd5b6020026020010181905250818061146b906141eb565b9250505b80611479816141eb565b915050610f58565b50909392505050565b606081518351146114ef5760405162461bcd60e51b815260206004820152602960248201527f455243313135353a206163636f756e747320616e6420696473206c656e677468604482015268040dad2e6dac2e8c6d60bb1b606482015260840161071e565b600083516001600160401b0381111561151857634e487b7160e01b600052604160045260246000fd5b604051908082528060200260200182016040528015611541578160200160208202803683370190505b50905060005b84518110156115e3576115a885828151811061157357634e487b7160e01b600052603260045260246000fd5b602002602001015185838151811061159b57634e487b7160e01b600052603260045260246000fd5b60200260200101516106b6565b8282815181106115c857634e487b7160e01b600052603260045260246000fd5b60209081029190910101526115dc816141eb565b9050611547565b509392505050565b60606000805b60105481101561162d57600061160785836106b6565b111561161b5781611617816141eb565b9250505b80611625816141eb565b9150506115f1565b506000816001600160401b0381111561165657634e487b7160e01b600052604160045260246000fd5b60405190808252806020026020018201604052801561168f57816020015b61167c61340e565b8152602001906001900390816116745790505b5090506000805b601054811015611bb85760006116ac87836106b6565b1115611ba65760066000828152602001908152602001600020604051806101a001604052908160008201548152602001600182015481526020016002820180546116f590614184565b80601f016020809104026020016040519081016040528092919081815260200182805461172190614184565b801561176e5780601f106117435761010080835404028352916020019161176e565b820191906000526020600020905b81548152906001019060200180831161175157829003601f168201915b5050505050815260200160038201805461178790614184565b80601f01602080910402602001604051908101604052809291908181526020018280546117b390614184565b80156118005780601f106117d557610100808354040283529160200191611800565b820191906000526020600020905b8154815290600101906020018083116117e357829003601f168201915b5050505050815260200160048201805461181990614184565b80601f016020809104026020016040519081016040528092919081815260200182805461184590614184565b80156118925780601f1061186757610100808354040283529160200191611892565b820191906000526020600020905b81548152906001019060200180831161187557829003601f168201915b505050505081526020016005820180546118ab90614184565b80601f01602080910402602001604051908101604052809291908181526020018280546118d790614184565b80156119245780601f106118f957610100808354040283529160200191611924565b820191906000526020600020905b81548152906001019060200180831161190757829003601f168201915b5050505050815260200160068201805461193d90614184565b80601f016020809104026020016040519081016040528092919081815260200182805461196990614184565b80156119b65780601f1061198b576101008083540402835291602001916119b6565b820191906000526020600020905b81548152906001019060200180831161199957829003601f168201915b505050918352505060078201546020820152600882015460ff16151560408201526009820180546060909201916119ec90614184565b80601f0160208091040260200160405190810160405280929190818152602001828054611a1890614184565b8015611a655780601f10611a3a57610100808354040283529160200191611a65565b820191906000526020600020905b815481529060010190602001808311611a4857829003601f168201915b50505050508152602001600a8201548152602001600b8201805480602002602001604051908101604052809291908181526020018280548015611ad157602002820191906000526020600020905b81546001600160a01b03168152600190910190602001808311611ab3575b50505050508152602001600c82018054611aea90614184565b80601f0160208091040260200160405190810160405280929190818152602001828054611b1690614184565b8015611b635780601f10611b3857610100808354040283529160200191611b63565b820191906000526020600020905b815481529060010190602001808311611b4657829003601f168201915b505050505081525050838381518110611b8c57634e487b7160e01b600052603260045260246000fd5b60200260200101819052508180611ba2906141eb565b9250505b80611bb0816141eb565b915050611696565b5090949350505050565b611bca61340e565b600060066000848152602001908152602001600020905080604051806101a00160405290816000820154815260200160018201548152602001600282018054611c1290614184565b80601f0160208091040260200160405190810160405280929190818152602001828054611c3e90614184565b8015611c8b5780601f10611c6057610100808354040283529160200191611c8b565b820191906000526020600020905b815481529060010190602001808311611c6e57829003601f168201915b50505050508152602001600382018054611ca490614184565b80601f0160208091040260200160405190810160405280929190818152602001828054611cd090614184565b8015611d1d5780601f10611cf257610100808354040283529160200191611d1d565b820191906000526020600020905b815481529060010190602001808311611d0057829003601f168201915b50505050508152602001600482018054611d3690614184565b80601f0160208091040260200160405190810160405280929190818152602001828054611d6290614184565b8015611daf5780601f10611d8457610100808354040283529160200191611daf565b820191906000526020600020905b815481529060010190602001808311611d9257829003601f168201915b50505050508152602001600582018054611dc890614184565b80601f0160208091040260200160405190810160405280929190818152602001828054611df490614184565b8015611e415780601f10611e1657610100808354040283529160200191611e41565b820191906000526020600020905b815481529060010190602001808311611e2457829003601f168201915b50505050508152602001600682018054611e5a90614184565b80601f0160208091040260200160405190810160405280929190818152602001828054611e8690614184565b8015611ed35780601f10611ea857610100808354040283529160200191611ed3565b820191906000526020600020905b815481529060010190602001808311611eb657829003601f168201915b505050918352505060078201546020820152600882015460ff1615156040820152600982018054606090920191611f0990614184565b80601f0160208091040260200160405190810160405280929190818152602001828054611f3590614184565b8015611f825780601f10611f5757610100808354040283529160200191611f82565b820191906000526020600020905b815481529060010190602001808311611f6557829003601f168201915b50505050508152602001600a8201548152602001600b8201805480602002602001604051908101604052809291908181526020018280548015611fee57602002820191906000526020600020905b81546001600160a01b03168152600190910190602001808311611fd0575b50505050508152602001600c8201805461200790614184565b80601f016020809104026020016040519081016040528092919081815260200182805461203390614184565b80156120805780601f1061205557610100808354040283529160200191612080565b820191906000526020600020905b81548152906001019060200180831161206357829003601f168201915b505050505081525050915050919050565b6003546001600160a01b031633146120bb5760405162461bcd60e51b815260040161071e90613feb565b6120c56000612c99565b565b6000828152600b60209081526040808320338452909152902054829060ff1615156001146121075760405162461bcd60e51b815260040161071e90614020565b50600091825260096020908152604080842033855290915290912055565b6001601060008282546121389190614116565b909155505042851161218c5760405162461bcd60e51b815260206004820152601f60248201527f6576656e74206d7573742068617070656e20696e207468652066757475726500604482015260640161071e565b6060604051806101a0016040528060105481526020018d81526020018c81526020018b81526020018a81526020018981526020018881526020018781526020018615158152602001858152602001848152602001828152602001838152506006600060105481526020019081526020016000206000820151816000015560208201518160010155604082015181600201908051906020019061222f929190613478565b506060820151805161224b916003840191602090910190613478565b5060808201518051612267916004840191602090910190613478565b5060a08201518051612283916005840191602090910190613478565b5060c0820151805161229f916006840191602090910190613478565b5060e0820151600782015561010082015160088201805460ff191691151591909117905561012082015180516122df916009840191602090910190613478565b50610140820151600a820155610160820151805161230791600b8401916020909101906134fc565b50610180820151805161232491600c840191602090910190613478565b50506010546000908152600c60209081526040909120865161234b93509091870190613478565b5050601054600090815260056020526040902080546001600160a01b031916331790555050505050505050505050565b612386338383612ceb565b5050565b6003546000906001600160a01b031633146123b75760405162461bcd60e51b815260040161071e90613feb565b6000828152600660205260409020600781015442906123d99062093a80614116565b106124265760405162461bcd60e51b815260206004820181905260248201527f64616d61676520636c61696d20706572696f64206e6f74206f76657220796574604482015260640161071e565b6000838152600d6020908152604080832054600590925280832054905191926001600160a01b0390911691829084908381818185875af1925050503d806000811461248d576040519150601f19603f3d011682016040523d82523d6000602084013e612492565b606091505b50509050806124d85760405162461bcd60e51b81526020600482015260126024820152711d1c985b9cd858dd1a5bdb8819985a5b195960721b604482015260640161071e565b60019450505050505b919050565b6003546000906001600160a01b031633146125135760405162461bcd60e51b815260040161071e90613feb565b5060009182526009602090815260408084206001600160a01b0393909316845291905290205490565b60008281526005602052604090205482906001600160a01b031633146125a45760405162461bcd60e51b815260206004820152601d60248201527f63616c6c6572206973206e6f7420746865206576656e74206f776e6572000000604482015260640161071e565b600083815260066020908152604090912083519091610d3391600b8401918601906134fc565b6001600160a01b0385163314806125e657506125e68533610612565b6126445760405162461bcd60e51b815260206004820152602960248201527f455243313135353a2063616c6c6572206973206e6f74206f776e6572206e6f7260448201526808185c1c1c9bdd995960ba1b606482015260840161071e565b610d338585858585612dcc565b6003546001600160a01b0316331461267b5760405162461bcd60e51b815260040161071e90613feb565b6001600160a01b0381166126e05760405162461bcd60e51b815260206004820152602660248201527f4f776e61626c653a206e6577206f776e657220697320746865207a65726f206160448201526564647265737360d01b606482015260840161071e565b6126e981612c99565b50565b6001600160a01b0384166127125760405162461bcd60e51b815260040161071e9061409f565b33600061271e85612f04565b9050600061272b85612f04565b905061273c83600089858589612f5d565b6000868152602081815260408083206001600160a01b038b1684529091528120805487929061276c908490614116565b909155505060408051878152602081018790526001600160a01b03808a1692600092918716917fc3d58168c5ae7397731d063d5bbf3d657854427343f4c083240f7aacaa2d0f62910160405180910390a46127cc83600089898989613028565b50505050505050565b6001600160a01b0383166128375760405162461bcd60e51b815260206004820152602360248201527f455243313135353a206275726e2066726f6d20746865207a65726f206164647260448201526265737360e81b606482015260840161071e565b33600061284384612f04565b9050600061285084612f04565b905061287083876000858560405180602001604052806000815250612f5d565b6000858152602081815260408083206001600160a01b038a168452909152902054848110156128ed5760405162461bcd60e51b8152602060048201526024808201527f455243313135353a206275726e20616d6f756e7420657863656564732062616c604482015263616e636560e01b606482015260840161071e565b6000868152602081815260408083206001600160a01b038b81168086529184528285208a8703905582518b81529384018a90529092908816917fc3d58168c5ae7397731d063d5bbf3d657854427343f4c083240f7aacaa2d0f62910160405180910390a46040805160208101909152600090526127cc565b6001600160a01b03841661298b5760405162461bcd60e51b815260040161071e9061409f565b81518351146129ac5760405162461bcd60e51b815260040161071e90614057565b336129bc81600087878787612f5d565b60005b8451811015612a73578381815181106129e857634e487b7160e01b600052603260045260246000fd5b6020026020010151600080878481518110612a1357634e487b7160e01b600052603260045260246000fd5b602002602001015181526020019081526020016000206000886001600160a01b03166001600160a01b031681526020019081526020016000206000828254612a5b9190614116565b90915550819050612a6b816141eb565b9150506129bf565b50846001600160a01b031660006001600160a01b0316826001600160a01b03167f4a39dc06d4c0dbc64b70af90fd698a233a518aa5d07e595d983b8c0526c8f7fb8787604051612ac4929190613ed3565b60405180910390a4610d3381600087878787613193565b8151835114612afc5760405162461bcd60e51b815260040161071e90614057565b6001600160a01b038416612b225760405162461bcd60e51b815260040161071e90613f5c565b33612b31818787878787612f5d565b60005b8451811015612c33576000858281518110612b5f57634e487b7160e01b600052603260045260246000fd5b602002602001015190506000858381518110612b8b57634e487b7160e01b600052603260045260246000fd5b602090810291909101810151600084815280835260408082206001600160a01b038e168352909352919091205490915081811015612bdb5760405162461bcd60e51b815260040161071e90613fa1565b6000838152602081815260408083206001600160a01b038e8116855292528083208585039055908b16825281208054849290612c18908490614116565b9250508190555050505080612c2c906141eb565b9050612b34565b50846001600160a01b0316866001600160a01b0316826001600160a01b03167f4a39dc06d4c0dbc64b70af90fd698a233a518aa5d07e595d983b8c0526c8f7fb8787604051612c83929190613ed3565b60405180910390a4610af8818787878787613193565b600380546001600160a01b038381166001600160a01b0319831681179093556040519116919082907f8be0079c531659141344cd1fd0a4f28419497f9722a3daafe3b4186f6b6457e090600090a35050565b816001600160a01b0316836001600160a01b03161415612d5f5760405162461bcd60e51b815260206004820152602960248201527f455243313135353a2073657474696e6720617070726f76616c20737461747573604482015268103337b91039b2b63360b91b606482015260840161071e565b6001600160a01b03838116600081815260016020908152604080832094871680845294825291829020805460ff191686151590811790915591519182527f17307eab39ab6107e8899845ad3d59bd9653f200f220920489ca2b5937696c31910160405180910390a3505050565b6001600160a01b038416612df25760405162461bcd60e51b815260040161071e90613f5c565b336000612dfe85612f04565b90506000612e0b85612f04565b9050612e1b838989858589612f5d565b6000868152602081815260408083206001600160a01b038c16845290915290205485811015612e5c5760405162461bcd60e51b815260040161071e90613fa1565b6000878152602081815260408083206001600160a01b038d8116855292528083208985039055908a16825281208054889290612e99908490614116565b909155505060408051888152602081018890526001600160a01b03808b16928c821692918816917fc3d58168c5ae7397731d063d5bbf3d657854427343f4c083240f7aacaa2d0f62910160405180910390a4612ef9848a8a8a8a8a613028565b505050505050505050565b60408051600180825281830190925260609160009190602080830190803683370190505090508281600081518110612f4c57634e487b7160e01b600052603260045260246000fd5b602090810291909101015292915050565b60005b835181101561301957600060066000868481518110612f8f57634e487b7160e01b600052603260045260246000fd5b602002602001015181526020019081526020016000209050428160070154116130065760405162461bcd60e51b815260206004820152602360248201527f43616e6e6f74207472616e73666572206166746572206576656e7420737461726044820152621d195960ea1b606482015260840161071e565b5080613011816141eb565b915050612f60565b50610af886868686868661325d565b6001600160a01b0384163b15610af85760405163f23a6e6160e01b81526001600160a01b0385169063f23a6e619061306c9089908990889088908890600401613e1a565b602060405180830381600087803b15801561308657600080fd5b505af19250505080156130b6575060408051601f3d908101601f191682019092526130b391810190613999565b60015b613163576130c2614232565b806308c379a014156130fc57506130d761424a565b806130e257506130fe565b8060405162461bcd60e51b815260040161071e9190613f01565b505b60405162461bcd60e51b815260206004820152603460248201527f455243313135353a207472616e7366657220746f206e6f6e20455243313135356044820152732932b1b2b4bb32b91034b6b83632b6b2b73a32b960611b606482015260840161071e565b6001600160e01b0319811663f23a6e6160e01b146127cc5760405162461bcd60e51b815260040161071e90613f14565b6001600160a01b0384163b15610af85760405163bc197c8160e01b81526001600160a01b0385169063bc197c81906131d79089908990889088908890600401613dbc565b602060405180830381600087803b1580156131f157600080fd5b505af1925050508015613221575060408051601f3d908101601f1916820190925261321e91810190613999565b60015b61322d576130c2614232565b6001600160e01b0319811663bc197c8160e01b146127cc5760405162461bcd60e51b815260040161071e90613f14565b6001600160a01b0385166133005760005b83518110156132fe5782818151811061329757634e487b7160e01b600052603260045260246000fd5b6020026020010151600460008684815181106132c357634e487b7160e01b600052603260045260246000fd5b6020026020010151815260200190815260200160002060008282546132e89190614116565b909155506132f79050816141eb565b905061326e565b505b6001600160a01b038416610af85760005b83518110156127cc57600084828151811061333c57634e487b7160e01b600052603260045260246000fd5b60200260200101519050600084838151811061336857634e487b7160e01b600052603260045260246000fd5b60200260200101519050600060046000848152602001908152602001600020549050818110156133eb5760405162461bcd60e51b815260206004820152602860248201527f455243313135353a206275726e20616d6f756e74206578636565647320746f74604482015267616c537570706c7960c01b606482015260840161071e565b60009283526004602052604090922091039055613407816141eb565b9050613311565b604051806101a001604052806000815260200160008152602001606081526020016060815260200160608152602001606081526020016060815260200160008152602001600015158152602001606081526020016000815260200160608152602001606081525090565b82805461348490614184565b90600052602060002090601f0160209004810192826134a657600085556134ec565b82601f106134bf57805160ff19168380011785556134ec565b828001600101855582156134ec579182015b828111156134ec5782518255916020019190600101906134d1565b506134f8929150613551565b5090565b8280548282559060005260206000209081019282156134ec579160200282015b828111156134ec57825182546001600160a01b0319166001600160a01b0390911617825560209092019160019091019061351c565b5b808211156134f85760008155600101613552565b80356001600160a01b03811681146124e157600080fd5b600082601f83011261358d578081fd5b8135602061359a826140f3565b6040516135a782826141bf565b8381528281019150858301600585901b870184018810156135c6578586fd5b855b858110156135eb576135d982613566565b845292840192908401906001016135c8565b5090979650505050505050565b600082601f830112613608578081fd5b81356020613615826140f3565b60405161362282826141bf565b8381528281019150858301600585901b87018401881015613641578586fd5b855b858110156135eb57813584529284019290840190600101613643565b803580151581146124e157600080fd5b600082601f83011261367f578081fd5b81356001600160401b038111156136985761369861421c565b6040516136af601f8301601f1916602001826141bf565b8181528460208386010111156136c3578283fd5b816020850160208301379081016020019190915292915050565b6000602082840312156136ee578081fd5b6136f782613566565b9392505050565b60008060408385031215613710578081fd5b61371983613566565b915061372760208401613566565b90509250929050565b600080600080600060a08688031215613747578081fd5b61375086613566565b945061375e60208701613566565b935060408601356001600160401b0380821115613779578283fd5b61378589838a016135f8565b9450606088013591508082111561379a578283fd5b6137a689838a016135f8565b935060808801359150808211156137bb578283fd5b506137c88882890161366f565b9150509295509295909350565b600080600080600060a086880312156137ec578081fd5b6137f586613566565b945061380360208701613566565b9350604086013592506060860135915060808601356001600160401b0381111561382b578182fd5b6137c88882890161366f565b6000806000806080858703121561384c578384fd5b61385585613566565b935060208501356001600160401b0380821115613870578485fd5b61387c888389016135f8565b94506040870135915080821115613891578384fd5b61389d888389016135f8565b935060608701359150808211156138b2578283fd5b506138bf8782880161366f565b91505092959194509250565b600080604083850312156138dd578182fd5b6138e683613566565b91506137276020840161365f565b60008060408385031215613906578182fd5b61390f83613566565b946020939093013593505050565b6000806040838503121561392f578182fd5b82356001600160401b0380821115613945578384fd5b6139518683870161357d565b93506020850135915080821115613966578283fd5b50613973858286016135f8565b9150509250929050565b60006020828403121561398e578081fd5b81356136f7816142d3565b6000602082840312156139aa578081fd5b81516136f7816142d3565b6000602082840312156139c6578081fd5b5035919050565b600080604083850312156139df578182fd5b8235915061372760208401613566565b60008060408385031215613a01578182fd5b8235915060208301356001600160401b03811115613a1d578182fd5b6139738582860161357d565b60008060408385031215613a3b578182fd5b50508035926020909101359150565b60008060008060008060008060008060006101608c8e031215613a6b578889fd5b8b359a506001600160401b038060208e01351115613a8757898afd5b613a978e60208f01358f0161366f565b9a508060408e01351115613aa957898afd5b613ab98e60408f01358f0161366f565b99508060608e01351115613acb578687fd5b613adb8e60608f01358f0161366f565b98508060808e01351115613aed578687fd5b613afd8e60808f01358f0161366f565b97508060a08e01351115613b0f578687fd5b613b1f8e60a08f01358f0161366f565b965060c08d01359550613b3460e08e0161365f565b9450806101008e01351115613b47578384fd5b613b588e6101008f01358f0161366f565b93506101208d01359250806101408e01351115613b73578182fd5b50613b858d6101408e01358e0161366f565b90509295989b509295989b9093969950565b600080600060608486031215613bab578081fd5b833592506020840135915060408401356001600160401b03811115613bce578182fd5b613bda8682870161366f565b9150509250925092565b6000815180845260208085019450808401835b83811015613c1c5781516001600160a01b031687529582019590820190600101613bf7565b509495945050505050565b6000815180845260208085019450808401835b83811015613c1c57815187529582019590820190600101613c3a565b60008151808452815b81811015613c7b57602081850181015186830182015201613c5f565b81811115613c8c5782602083870101525b50601f01601f19169290920160200192915050565b60006101a082518452602083015160208501526040830151816040860152613ccb82860182613c56565b91505060608301518482036060860152613ce58282613c56565b91505060808301518482036080860152613cff8282613c56565b91505060a083015184820360a0860152613d198282613c56565b91505060c083015184820360c0860152613d338282613c56565b91505060e083015160e085015261010080840151613d548287018215159052565b50506101208084015185830382870152613d6e8382613c56565b925050506101408084015181860152506101608084015185830382870152613d968382613be4565b925050506101808084015185830382870152613db28382613c56565b9695505050505050565b6001600160a01b0386811682528516602082015260a060408201819052600090613de890830186613c27565b8281036060840152613dfa8186613c27565b90508281036080840152613e0e8185613c56565b98975050505050505050565b6001600160a01b03868116825285166020820152604081018490526060810183905260a060808201819052600090613e5490830184613c56565b979650505050505050565b6000602080830181845280855180835260408601915060408160051b8701019250838701855b82811015613eb357603f19888603018452613ea1858351613ca1565b94509285019290850190600101613e85565b5092979650505050505050565b6020815260006136f76020830184613c27565b604081526000613ee66040830185613c27565b8281036020840152613ef88185613c27565b95945050505050565b6020815260006136f76020830184613c56565b60208082526028908201527f455243313135353a204552433131353552656365697665722072656a656374656040820152676420746f6b656e7360c01b606082015260800190565b60208082526025908201527f455243313135353a207472616e7366657220746f20746865207a65726f206164604082015264647265737360d81b606082015260800190565b6020808252602a908201527f455243313135353a20696e73756666696369656e742062616c616e636520666f60408201526939103a3930b739b332b960b11b606082015260800190565b6020808252818101527f4f776e61626c653a2063616c6c6572206973206e6f7420746865206f776e6572604082015260600190565b6020808252601d908201527f796f7520646964206e6f7420617474656e642074686973206576656e74000000604082015260600190565b60208082526028908201527f455243313135353a2069647320616e6420616d6f756e7473206c656e677468206040820152670dad2e6dac2e8c6d60c31b606082015260800190565b60208082526021908201527f455243313135353a206d696e7420746f20746865207a65726f206164647265736040820152607360f81b606082015260800190565b6020815260006136f76020830184613ca1565b60006001600160401b0382111561410c5761410c61421c565b5060051b60200190565b6000821982111561412957614129614206565b500190565b60008261414957634e487b7160e01b81526012600452602481fd5b500490565b600081600019048311821515161561416857614168614206565b500290565b60008282101561417f5761417f614206565b500390565b600181811c9082168061419857607f821691505b602082108114156141b957634e487b7160e01b600052602260045260246000fd5b50919050565b601f8201601f191681016001600160401b03811182821017156141e4576141e461421c565b6040525050565b60006000198214156141ff576141ff614206565b5060010190565b634e487b7160e01b600052601160045260246000fd5b634e487b7160e01b600052604160045260246000fd5b600060033d111561424757600481823e5160e01c5b90565b600060443d10156142585790565b6040516003193d81016004833e81513d6001600160401b03816024840111818411171561428757505050505090565b828501915081518181111561429f5750505050505090565b843d87010160208285010111156142b95750505050505090565b6142c8602082860101876141bf565b509095945050505050565b6001600160e01b0319811681146126e957600080fdfea26469706673582212208a871865954ecb5e1b9e244bf8bb82fb00005cbe9831837b7b5275bfb67d9c0664736f6c63430008040033",
  "linkReferences": {},
  "deployedLinkReferences": {}
}