{
  "_format": "hh-sol-artifact-1",
  "contractName": "NFTicket1155",
  "sourceName": "hardhat/contracts/NFTicket1155.sol",
  "abi": [
    {
      "inputs": [],
      "stateMutability": "nonpayable",
      "type": "constructor"
    },
    {
      "anonymous": false,
      "inputs": [
        {
          "indexed": true,
          "internalType": "address",
          "name": "account",
          "type": "address"
        },
        {
          "indexed": true,
          "internalType": "address",
          "name": "operator",
          "type": "address"
        },
        {
          "indexed": false,
          "internalType": "bool",
          "name": "approved",
          "type": "bool"
        }
      ],
      "name": "ApprovalForAll",
      "type": "event"
    },
    {
      "anonymous": false,
      "inputs": [
        {
          "indexed": true,
          "internalType": "address",
          "name": "previousOwner",
          "type": "address"
        },
        {
          "indexed": true,
          "internalType": "address",
          "name": "newOwner",
          "type": "address"
        }
      ],
      "name": "OwnershipTransferred",
      "type": "event"
    },
    {
      "anonymous": false,
      "inputs": [
        {
          "indexed": true,
          "internalType": "address",
          "name": "operator",
          "type": "address"
        },
        {
          "indexed": true,
          "internalType": "address",
          "name": "from",
          "type": "address"
        },
        {
          "indexed": true,
          "internalType": "address",
          "name": "to",
          "type": "address"
        },
        {
          "indexed": false,
          "internalType": "uint256[]",
          "name": "ids",
          "type": "uint256[]"
        },
        {
          "indexed": false,
          "internalType": "uint256[]",
          "name": "values",
          "type": "uint256[]"
        }
      ],
      "name": "TransferBatch",
      "type": "event"
    },
    {
      "anonymous": false,
      "inputs": [
        {
          "indexed": true,
          "internalType": "address",
          "name": "operator",
          "type": "address"
        },
        {
          "indexed": true,
          "internalType": "address",
          "name": "from",
          "type": "address"
        },
        {
          "indexed": true,
          "internalType": "address",
          "name": "to",
          "type": "address"
        },
        {
          "indexed": false,
          "internalType": "uint256",
          "name": "id",
          "type": "uint256"
        },
        {
          "indexed": false,
          "internalType": "uint256",
          "name": "value",
          "type": "uint256"
        }
      ],
      "name": "TransferSingle",
      "type": "event"
    },
    {
      "anonymous": false,
      "inputs": [
        {
          "indexed": false,
          "internalType": "string",
          "name": "value",
          "type": "string"
        },
        {
          "indexed": true,
          "internalType": "uint256",
          "name": "id",
          "type": "uint256"
        }
      ],
      "name": "URI",
      "type": "event"
    },
    {
      "inputs": [
        {
          "internalType": "address",
          "name": "account",
          "type": "address"
        },
        {
          "internalType": "uint256",
          "name": "id",
          "type": "uint256"
        }
      ],
      "name": "balanceOf",
      "outputs": [
        {
          "internalType": "uint256",
          "name": "",
          "type": "uint256"
        }
      ],
      "stateMutability": "view",
      "type": "function"
    },
    {
      "inputs": [
        {
          "internalType": "address[]",
          "name": "accounts",
          "type": "address[]"
        },
        {
          "internalType": "uint256[]",
          "name": "ids",
          "type": "uint256[]"
        }
      ],
      "name": "balanceOfBatch",
      "outputs": [
        {
          "internalType": "uint256[]",
          "name": "",
          "type": "uint256[]"
        }
      ],
      "stateMutability": "view",
      "type": "function"
    },
    {
      "inputs": [
        {
          "internalType": "uint256",
          "name": "",
          "type": "uint256"
        },
        {
          "internalType": "address",
          "name": "",
          "type": "address"
        }
      ],
      "name": "bought",
      "outputs": [
        {
          "internalType": "bool",
          "name": "",
          "type": "bool"
        }
      ],
      "stateMutability": "view",
      "type": "function"
    },
    {
      "inputs": [
        {
          "internalType": "uint256",
          "name": "_id",
          "type": "uint256"
        },
        {
          "internalType": "address",
          "name": "_user",
          "type": "address"
        }
      ],
      "name": "claimTicket",
      "outputs": [],
      "stateMutability": "nonpayable",
      "type": "function"
    },
    {
      "inputs": [
        {
          "internalType": "uint256",
          "name": "_supply",
          "type": "uint256"
        },
        {
          "internalType": "uint256",
          "name": "_eventDate",
          "type": "uint256"
        },
        {
          "internalType": "string",
          "name": "newuri",
          "type": "string"
        }
      ],
      "name": "createEvent",
      "outputs": [],
      "stateMutability": "nonpayable",
      "type": "function"
    },
    {
      "inputs": [
        {
          "internalType": "uint256",
          "name": "_supply",
          "type": "uint256"
        },
        {
          "internalType": "uint256",
          "name": "_eventDate",
          "type": "uint256"
        },
        {
          "internalType": "address[]",
          "name": "_buyers",
          "type": "address[]"
        },
        {
          "internalType": "string",
          "name": "tokenURI",
          "type": "string"
        }
      ],
      "name": "createEvent",
      "outputs": [],
      "stateMutability": "nonpayable",
      "type": "function"
    },
    {
      "inputs": [
        {
          "internalType": "uint256",
          "name": "_id",
          "type": "uint256"
        },
        {
          "internalType": "address",
          "name": "user",
          "type": "address"
        }
      ],
      "name": "didUserBuy",
      "outputs": [
        {
          "internalType": "bool",
          "name": "",
          "type": "bool"
        }
      ],
      "stateMutability": "nonpayable",
      "type": "function"
    },
    {
      "inputs": [
        {
          "internalType": "uint256",
          "name": "",
          "type": "uint256"
        }
      ],
      "name": "eventOwner",
      "outputs": [
        {
          "internalType": "address",
          "name": "",
          "type": "address"
        }
      ],
      "stateMutability": "view",
      "type": "function"
    },
    {
      "inputs": [],
      "name": "getActiveEvents",
      "outputs": [
        {
          "components": [
            {
              "internalType": "uint256",
              "name": "id",
              "type": "uint256"
            },
            {
              "internalType": "uint256",
              "name": "supply",
              "type": "uint256"
            },
            {
              "internalType": "uint256",
              "name": "eventDate",
              "type": "uint256"
            },
            {
              "internalType": "bool",
              "name": "hasWhitelist",
              "type": "bool"
            }
          ],
          "internalType": "struct NFTicket1155.Event[]",
          "name": "",
          "type": "tuple[]"
        }
      ],
      "stateMutability": "view",
      "type": "function"
    },
    {
      "inputs": [
        {
          "internalType": "uint256",
          "name": "_id",
          "type": "uint256"
        }
      ],
      "name": "getEventOwner",
      "outputs": [
        {
          "internalType": "address",
          "name": "",
          "type": "address"
        }
      ],
      "stateMutability": "nonpayable",
      "type": "function"
    },
    {
      "inputs": [
        {
          "internalType": "address",
          "name": "account",
          "type": "address"
        },
        {
          "internalType": "address",
          "name": "operator",
          "type": "address"
        }
      ],
      "name": "isApprovedForAll",
      "outputs": [
        {
          "internalType": "bool",
          "name": "",
          "type": "bool"
        }
      ],
      "stateMutability": "view",
      "type": "function"
    },
    {
      "inputs": [
        {
          "internalType": "uint256",
          "name": "id",
          "type": "uint256"
        },
        {
          "internalType": "uint256",
          "name": "amount",
          "type": "uint256"
        },
        {
          "internalType": "bytes",
          "name": "data",
          "type": "bytes"
        }
      ],
      "name": "mint",
      "outputs": [],
      "stateMutability": "nonpayable",
      "type": "function"
    },
    {
      "inputs": [
        {
          "internalType": "address",
          "name": "to",
          "type": "address"
        },
        {
          "internalType": "uint256[]",
          "name": "ids",
          "type": "uint256[]"
        },
        {
          "internalType": "uint256[]",
          "name": "amounts",
          "type": "uint256[]"
        },
        {
          "internalType": "bytes",
          "name": "data",
          "type": "bytes"
        }
      ],
      "name": "mintBatch",
      "outputs": [],
      "stateMutability": "nonpayable",
      "type": "function"
    },
    {
      "inputs": [],
      "name": "owner",
      "outputs": [
        {
          "internalType": "address",
          "name": "",
          "type": "address"
        }
      ],
      "stateMutability": "view",
      "type": "function"
    },
    {
      "inputs": [
        {
          "internalType": "uint256",
          "name": "_id",
          "type": "uint256"
        },
        {
          "internalType": "address",
          "name": "_user",
          "type": "address"
        }
      ],
      "name": "queryPassword",
      "outputs": [
        {
          "internalType": "bytes32",
          "name": "",
          "type": "bytes32"
        }
      ],
      "stateMutability": "view",
      "type": "function"
    },
    {
      "inputs": [],
      "name": "renounceOwnership",
      "outputs": [],
      "stateMutability": "nonpayable",
      "type": "function"
    },
    {
      "inputs": [
        {
          "internalType": "address",
          "name": "from",
          "type": "address"
        },
        {
          "internalType": "address",
          "name": "to",
          "type": "address"
        },
        {
          "internalType": "uint256[]",
          "name": "ids",
          "type": "uint256[]"
        },
        {
          "internalType": "uint256[]",
          "name": "amounts",
          "type": "uint256[]"
        },
        {
          "internalType": "bytes",
          "name": "data",
          "type": "bytes"
        }
      ],
      "name": "safeBatchTransferFrom",
      "outputs": [],
      "stateMutability": "nonpayable",
      "type": "function"
    },
    {
      "inputs": [
        {
          "internalType": "address",
          "name": "from",
          "type": "address"
        },
        {
          "internalType": "address",
          "name": "to",
          "type": "address"
        },
        {
          "internalType": "uint256",
          "name": "id",
          "type": "uint256"
        },
        {
          "internalType": "uint256",
          "name": "amount",
          "type": "uint256"
        },
        {
          "internalType": "bytes",
          "name": "data",
          "type": "bytes"
        }
      ],
      "name": "safeTransferFrom",
      "outputs": [],
      "stateMutability": "nonpayable",
      "type": "function"
    },
    {
      "inputs": [
        {
          "internalType": "address",
          "name": "operator",
          "type": "address"
        },
        {
          "internalType": "bool",
          "name": "approved",
          "type": "bool"
        }
      ],
      "name": "setApprovalForAll",
      "outputs": [],
      "stateMutability": "nonpayable",
      "type": "function"
    },
    {
      "inputs": [
        {
          "internalType": "bytes4",
          "name": "interfaceId",
          "type": "bytes4"
        }
      ],
      "name": "supportsInterface",
      "outputs": [
        {
          "internalType": "bool",
          "name": "",
          "type": "bool"
        }
      ],
      "stateMutability": "view",
      "type": "function"
    },
    {
      "inputs": [
        {
          "internalType": "address",
          "name": "newOwner",
          "type": "address"
        }
      ],
      "name": "transferOwnership",
      "outputs": [],
      "stateMutability": "nonpayable",
      "type": "function"
    },
    {
      "inputs": [
        {
          "internalType": "uint256",
          "name": "id",
          "type": "uint256"
        }
      ],
      "name": "uri",
      "outputs": [
        {
          "internalType": "string",
          "name": "",
          "type": "string"
        }
      ],
      "stateMutability": "view",
      "type": "function"
    }
  ],
  "bytecode": "0x60806040523480156200001157600080fd5b506040805160208101909152600081526200002c816200003e565b50620000383362000057565b6200018c565b805162000053906002906020840190620000a9565b5050565b600380546001600160a01b038381166001600160a01b0319831681179093556040519116919082907f8be0079c531659141344cd1fd0a4f28419497f9722a3daafe3b4186f6b6457e090600090a35050565b828054620000b7906200014f565b90600052602060002090601f016020900481019282620000db576000855562000126565b82601f10620000f657805160ff191683800117855562000126565b8280016001018555821562000126579182015b828111156200012657825182559160200191906001019062000109565b506200013492915062000138565b5090565b5b8082111562000134576000815560010162000139565b600181811c908216806200016457607f821691505b602082108114156200018657634e487b7160e01b600052602260045260246000fd5b50919050565b612297806200019c6000396000f3fe608060405234801561001057600080fd5b50600436106101415760003560e01c80637091e77c116100b8578063b4d59d271161007c578063b4d59d27146102ff578063c75cb44814610328578063e985e9c51461033b578063f242432a14610377578063f2fde38b1461038a578063fe210f691461039d57600080fd5b80637091e77c14610273578063715018a6146102865780638da5cb5b1461028e578063a22cb465146102b3578063a52901b5146102c657600080fd5b80631f7fdffa1161010a5780631f7fdffa146101d7578063294e0d56146101ea5780632c9b5e96146101fd5780632eb2c2d61461022b5780633612280f1461023e5780634e1273f41461025357600080fd5b8062fdd58e1461014657806301ffc9a71461016c57806307556b831461018f57806308dc9f42146101a45780630e89341c146101b7575b600080fd5b610159610154366004611bf8565b6103c6565b6040519081526020015b60405180910390f35b61017f61017a366004611c82565b61045d565b6040519015158152602001610163565b6101a261019d366004611cd2565b6104af565b005b6101a26101b2366004611d3a565b610575565b6101ca6101c5366004611cba565b6105e9565b6040516101639190611f57565b6101a26101e5366004611b29565b61068b565b6101a26101f8366004611d3a565b6106c7565b61017f61020b366004611cd2565b600960209081526000928352604080842090915290825290205460ff1681565b6101a2610239366004611a20565b610833565b6102466108ca565b6040516101639190611eb0565b610266610261366004611c21565b610a62565b6040516101639190611f16565b6101a2610281366004611cf4565b610bc4565b6101a2610dc5565b6003546001600160a01b03165b6040516001600160a01b039091168152602001610163565b6101a26102c1366004611bbe565b610dfb565b61017f6102d4366004611cd2565b60009182526009602090815260408084206001600160a01b0393909316845291905290205460ff1690565b61029b61030d366004611cba565b6004602052600090815260409020546001600160a01b031681565b610159610336366004611cd2565b610e0a565b61017f6103493660046119ee565b6001600160a01b03918216600090815260016020908152604080832093909416825291909152205460ff1690565b6101a2610385366004611ac6565b610e60565b6101a26103983660046119cd565b610ee7565b61029b6103ab366004611cba565b6000908152600460205260409020546001600160a01b031690565b60006001600160a01b0383166104375760405162461bcd60e51b815260206004820152602b60248201527f455243313135353a2062616c616e636520717565727920666f7220746865207a60448201526a65726f206164647265737360a81b60648201526084015b60405180910390fd5b506000908152602081815260408083206001600160a01b03949094168352929052205490565b60006001600160e01b03198216636cdb3d1360e11b148061048e57506001600160e01b031982166303a24d0760e21b145b806104a957506301ffc9a760e01b6001600160e01b03198316145b92915050565b6003546001600160a01b031633146104d95760405162461bcd60e51b815260040161042e90612041565b60008281526008602090815260408083206001600160a01b038516845290915290205460ff16156105455760405162461bcd60e51b81526020600482015260166024820152751d1a58dad95d08185b1c9958591e4818db185a5b595960521b604482015260640161042e565b60009182526008602090815260408084206001600160a01b0390931684529190529020805460ff19166001179055565b60008381526009602090815260408083203384529091529020805460ff191690558260405162461bcd60e51b815260040161042e906020808252601e908201527f63616c6c657220616c7265616479206d696e7465642061207469636b65740000604082015260600190565b505050505050565b6000818152600a60205260409020805460609190610606906120fa565b80601f0160208091040260200160405190810160405280929190818152602001828054610632906120fa565b801561067f5780601f106106545761010080835404028352916020019161067f565b820191906000526020600020905b81548152906001019060200180831161066257829003601f168201915b50505050509050919050565b6003546001600160a01b031633146106b55760405162461bcd60e51b815260040161042e90612041565b6106c184848484610f8b565b50505050565b600b546000818152600460205260409020546001600160a01b031633146107305760405162461bcd60e51b815260206004820152601d60248201527f63616c6c6572206973206e6f7420746865206576656e74206f776e6572000000604482015260640161042e565b6001600b600082825461074391906120e2565b90915550504283106107975760405162461bcd60e51b815260206004820152601f60248201527f6576656e74206d7573742068617070656e20696e207468652066757475726500604482015260640161042e565b60408051608081018252600b8054808352602080840189815284860189815260006060870181815294815260058452878120965187559151600187015551600286015591516003909401805460ff19169415159490941790935590548152600a825291909120835161080b928501906117c7565b5050600b54600090815260046020526040902080546001600160a01b03191633179055505050565b6001600160a01b03851633148061084f575061084f8533610349565b6108b65760405162461bcd60e51b815260206004820152603260248201527f455243313135353a207472616e736665722063616c6c6572206973206e6f74206044820152711bdddb995c881b9bdc88185c1c1c9bdd995960721b606482015260840161042e565b6108c3858585858561112c565b5050505050565b60606000805b600b548110156109135760008181526005602052604090206002015442111561090157816108fd81612162565b9250505b8061090b81612162565b9150506108d0565b5060008167ffffffffffffffff81111561093d57634e487b7160e01b600052604160045260246000fd5b60405190808252806020026020018201604052801561099b57816020015b61098860405180608001604052806000815260200160008152602001600081526020016000151581525090565b81526020019060019003908161095b5790505b5090506000805b600b54811015610a5957600081815260056020526040902060020154421115610a475760008181526005602090815260409182902082516080810184528154815260018201549281019290925260028101549282019290925260039091015460ff16151560608201528351849084908110610a2d57634e487b7160e01b600052603260045260246000fd5b60200260200101819052508180610a4390612162565b9250505b80610a5181612162565b9150506109a2565b50909392505050565b60608151835114610ac75760405162461bcd60e51b815260206004820152602960248201527f455243313135353a206163636f756e747320616e6420696473206c656e677468604482015268040dad2e6dac2e8c6d60bb1b606482015260840161042e565b6000835167ffffffffffffffff811115610af157634e487b7160e01b600052604160045260246000fd5b604051908082528060200260200182016040528015610b1a578160200160208202803683370190505b50905060005b8451811015610bbc57610b81858281518110610b4c57634e487b7160e01b600052603260045260246000fd5b6020026020010151858381518110610b7457634e487b7160e01b600052603260045260246000fd5b60200260200101516103c6565b828281518110610ba157634e487b7160e01b600052603260045260246000fd5b6020908102919091010152610bb581612162565b9050610b20565b509392505050565b600b546000818152600460205260409020546001600160a01b03163314610c2d5760405162461bcd60e51b815260206004820152601d60248201527f63616c6c6572206973206e6f7420746865206576656e74206f776e6572000000604482015260640161042e565b6001600b6000828254610c4091906120e2565b9091555050428410610c945760405162461bcd60e51b815260206004820152601f60248201527f6576656e74206d7573742068617070656e20696e207468652066757475726500604482015260640161042e565b60408051608081018252600b54808252602080830189815283850189815260016060860181815260009586526005909452958420945185559051948401949094559251600283015591516003909101805460ff19169115159190911790555b8351811015610d7957600160066000600b5481526020019081526020016000206000868481518110610d3557634e487b7160e01b600052603260045260246000fd5b6020908102919091018101516001600160a01b03168252810191909152604001600020805460ff191691151591909117905580610d7181612162565b915050610cf3565b50600b546000908152600a602090815260409091208351610d9c928501906117c7565b5050600b54600090815260046020526040902080546001600160a01b0319163317905550505050565b6003546001600160a01b03163314610def5760405162461bcd60e51b815260040161042e90612041565b610df960006112dc565b565b610e0633838361132e565b5050565b6003546000906001600160a01b03163314610e375760405162461bcd60e51b815260040161042e90612041565b5060009182526007602090815260408084206001600160a01b0393909316845291905290205490565b6001600160a01b038516331480610e7c5750610e7c8533610349565b610eda5760405162461bcd60e51b815260206004820152602960248201527f455243313135353a2063616c6c6572206973206e6f74206f776e6572206e6f7260448201526808185c1c1c9bdd995960ba1b606482015260840161042e565b6108c3858585858561140f565b6003546001600160a01b03163314610f115760405162461bcd60e51b815260040161042e90612041565b6001600160a01b038116610f765760405162461bcd60e51b815260206004820152602660248201527f4f776e61626c653a206e6577206f776e657220697320746865207a65726f206160448201526564647265737360d01b606482015260840161042e565b610f7f816112dc565b50565b50505050505050565b6001600160a01b038416610feb5760405162461bcd60e51b815260206004820152602160248201527f455243313135353a206d696e7420746f20746865207a65726f206164647265736044820152607360f81b606482015260840161042e565b815183511461100c5760405162461bcd60e51b815260040161042e90612076565b3360005b84518110156110c45783818151811061103957634e487b7160e01b600052603260045260246000fd5b602002602001015160008087848151811061106457634e487b7160e01b600052603260045260246000fd5b602002602001015181526020019081526020016000206000886001600160a01b03166001600160a01b0316815260200190815260200160002060008282546110ac91906120e2565b909155508190506110bc81612162565b915050611010565b50846001600160a01b031660006001600160a01b0316826001600160a01b03167f4a39dc06d4c0dbc64b70af90fd698a233a518aa5d07e595d983b8c0526c8f7fb8787604051611115929190611f29565b60405180910390a46108c3816000878787876116fd565b815183511461114d5760405162461bcd60e51b815260040161042e90612076565b6001600160a01b0384166111735760405162461bcd60e51b815260040161042e90611fb2565b3360005b84518110156112765760008582815181106111a257634e487b7160e01b600052603260045260246000fd5b6020026020010151905060008583815181106111ce57634e487b7160e01b600052603260045260246000fd5b602090810291909101810151600084815280835260408082206001600160a01b038e16835290935291909120549091508181101561121e5760405162461bcd60e51b815260040161042e90611ff7565b6000838152602081815260408083206001600160a01b038e8116855292528083208585039055908b1682528120805484929061125b9084906120e2565b925050819055505050508061126f90612162565b9050611177565b50846001600160a01b0316866001600160a01b0316826001600160a01b03167f4a39dc06d4c0dbc64b70af90fd698a233a518aa5d07e595d983b8c0526c8f7fb87876040516112c6929190611f29565b60405180910390a46105e18187878787876116fd565b600380546001600160a01b038381166001600160a01b0319831681179093556040519116919082907f8be0079c531659141344cd1fd0a4f28419497f9722a3daafe3b4186f6b6457e090600090a35050565b816001600160a01b0316836001600160a01b031614156113a25760405162461bcd60e51b815260206004820152602960248201527f455243313135353a2073657474696e6720617070726f76616c20737461747573604482015268103337b91039b2b63360b91b606482015260840161042e565b6001600160a01b03838116600081815260016020908152604080832094871680845294825291829020805460ff191686151590811790915591519182527f17307eab39ab6107e8899845ad3d59bd9653f200f220920489ca2b5937696c31910160405180910390a3505050565b6001600160a01b0384166114355760405162461bcd60e51b815260040161042e90611fb2565b33600061144185611539565b9050600061144e85611539565b90506000868152602081815260408083206001600160a01b038c168452909152902054858110156114915760405162461bcd60e51b815260040161042e90611ff7565b6000878152602081815260408083206001600160a01b038d8116855292528083208985039055908a168252812080548892906114ce9084906120e2565b909155505060408051888152602081018890526001600160a01b03808b16928c821692918816917fc3d58168c5ae7397731d063d5bbf3d657854427343f4c083240f7aacaa2d0f62910160405180910390a461152e848a8a8a8a8a611592565b505050505050505050565b6040805160018082528183019092526060916000919060208083019080368337019050509050828160008151811061158157634e487b7160e01b600052603260045260246000fd5b602090810291909101015292915050565b6001600160a01b0384163b156105e15760405163f23a6e6160e01b81526001600160a01b0385169063f23a6e61906115d69089908990889088908890600401611e6b565b602060405180830381600087803b1580156115f057600080fd5b505af1925050508015611620575060408051601f3d908101601f1916820190925261161d91810190611c9e565b60015b6116cd5761162c6121a9565b806308c379a0141561166657506116416121c1565b8061164c5750611668565b8060405162461bcd60e51b815260040161042e9190611f57565b505b60405162461bcd60e51b815260206004820152603460248201527f455243313135353a207472616e7366657220746f206e6f6e20455243313135356044820152732932b1b2b4bb32b91034b6b83632b6b2b73a32b960611b606482015260840161042e565b6001600160e01b0319811663f23a6e6160e01b14610f825760405162461bcd60e51b815260040161042e90611f6a565b6001600160a01b0384163b156105e15760405163bc197c8160e01b81526001600160a01b0385169063bc197c81906117419089908990889088908890600401611e0d565b602060405180830381600087803b15801561175b57600080fd5b505af192505050801561178b575060408051601f3d908101601f1916820190925261178891810190611c9e565b60015b6117975761162c6121a9565b6001600160e01b0319811663bc197c8160e01b14610f825760405162461bcd60e51b815260040161042e90611f6a565b8280546117d3906120fa565b90600052602060002090601f0160209004810192826117f5576000855561183b565b82601f1061180e57805160ff191683800117855561183b565b8280016001018555821561183b579182015b8281111561183b578251825591602001919060010190611820565b5061184792915061184b565b5090565b5b80821115611847576000815560010161184c565b80356001600160a01b038116811461187757600080fd5b919050565b600082601f83011261188c578081fd5b81356020611899826120be565b6040516118a68282612135565b8381528281019150858301600585901b870184018810156118c5578586fd5b855b858110156118ea576118d882611860565b845292840192908401906001016118c7565b5090979650505050505050565b600082601f830112611907578081fd5b81356020611914826120be565b6040516119218282612135565b8381528281019150858301600585901b87018401881015611940578586fd5b855b858110156118ea57813584529284019290840190600101611942565b600082601f83011261196e578081fd5b813567ffffffffffffffff81111561198857611988612193565b60405161199f601f8301601f191660200182612135565b8181528460208386010111156119b3578283fd5b816020850160208301379081016020019190915292915050565b6000602082840312156119de578081fd5b6119e782611860565b9392505050565b60008060408385031215611a00578081fd5b611a0983611860565b9150611a1760208401611860565b90509250929050565b600080600080600060a08688031215611a37578081fd5b611a4086611860565b9450611a4e60208701611860565b9350604086013567ffffffffffffffff80821115611a6a578283fd5b611a7689838a016118f7565b94506060880135915080821115611a8b578283fd5b611a9789838a016118f7565b93506080880135915080821115611aac578283fd5b50611ab98882890161195e565b9150509295509295909350565b600080600080600060a08688031215611add578081fd5b611ae686611860565b9450611af460208701611860565b93506040860135925060608601359150608086013567ffffffffffffffff811115611b1d578182fd5b611ab98882890161195e565b60008060008060808587031215611b3e578384fd5b611b4785611860565b9350602085013567ffffffffffffffff80821115611b63578485fd5b611b6f888389016118f7565b94506040870135915080821115611b84578384fd5b611b90888389016118f7565b93506060870135915080821115611ba5578283fd5b50611bb28782880161195e565b91505092959194509250565b60008060408385031215611bd0578182fd5b611bd983611860565b915060208301358015158114611bed578182fd5b809150509250929050565b60008060408385031215611c0a578182fd5b611c1383611860565b946020939093013593505050565b60008060408385031215611c33578182fd5b823567ffffffffffffffff80821115611c4a578384fd5b611c568683870161187c565b93506020850135915080821115611c6b578283fd5b50611c78858286016118f7565b9150509250929050565b600060208284031215611c93578081fd5b81356119e78161224b565b600060208284031215611caf578081fd5b81516119e78161224b565b600060208284031215611ccb578081fd5b5035919050565b60008060408385031215611ce4578182fd5b82359150611a1760208401611860565b60008060008060808587031215611d09578182fd5b8435935060208501359250604085013567ffffffffffffffff80821115611d2e578384fd5b611b908883890161187c565b600080600060608486031215611d4e578081fd5b8335925060208401359150604084013567ffffffffffffffff811115611d72578182fd5b611d7e8682870161195e565b9150509250925092565b6000815180845260208085019450808401835b83811015611db757815187529582019590820190600101611d9b565b509495945050505050565b60008151808452815b81811015611de757602081850181015186830182015201611dcb565b81811115611df85782602083870101525b50601f01601f19169290920160200192915050565b6001600160a01b0386811682528516602082015260a060408201819052600090611e3990830186611d88565b8281036060840152611e4b8186611d88565b90508281036080840152611e5f8185611dc2565b98975050505050505050565b6001600160a01b03868116825285166020820152604081018490526060810183905260a060808201819052600090611ea590830184611dc2565b979650505050505050565b602080825282518282018190526000919060409081850190868401855b82811015611f09578151805185528681015187860152858101518686015260609081015115159085015260809093019290850190600101611ecd565b5091979650505050505050565b6020815260006119e76020830184611d88565b604081526000611f3c6040830185611d88565b8281036020840152611f4e8185611d88565b95945050505050565b6020815260006119e76020830184611dc2565b60208082526028908201527f455243313135353a204552433131353552656365697665722072656a656374656040820152676420746f6b656e7360c01b606082015260800190565b60208082526025908201527f455243313135353a207472616e7366657220746f20746865207a65726f206164604082015264647265737360d81b606082015260800190565b6020808252602a908201527f455243313135353a20696e73756666696369656e742062616c616e636520666f60408201526939103a3930b739b332b960b11b606082015260800190565b6020808252818101527f4f776e61626c653a2063616c6c6572206973206e6f7420746865206f776e6572604082015260600190565b60208082526028908201527f455243313135353a2069647320616e6420616d6f756e7473206c656e677468206040820152670dad2e6dac2e8c6d60c31b606082015260800190565b600067ffffffffffffffff8211156120d8576120d8612193565b5060051b60200190565b600082198211156120f5576120f561217d565b500190565b600181811c9082168061210e57607f821691505b6020821081141561212f57634e487b7160e01b600052602260045260246000fd5b50919050565b601f8201601f1916810167ffffffffffffffff8111828210171561215b5761215b612193565b6040525050565b60006000198214156121765761217661217d565b5060010190565b634e487b7160e01b600052601160045260246000fd5b634e487b7160e01b600052604160045260246000fd5b600060033d11156121be57600481823e5160e01c5b90565b600060443d10156121cf5790565b6040516003193d81016004833e81513d67ffffffffffffffff81602484011181841117156121ff57505050505090565b82850191508151818111156122175750505050505090565b843d87010160208285010111156122315750505050505090565b61224060208286010187612135565b509095945050505050565b6001600160e01b031981168114610f7f57600080fdfea2646970667358221220335f7a9e350225727db923aad9c692eab874ff526addde9aa1670738c095984464736f6c63430008040033",
  "linkReferences": {},
  "deployedLinkReferences": {}
}