{
  "_format": "hh-sol-artifact-1",
  "contractName": "NFTicket1155",
  "sourceName": "hardhat/contracts/NFTicket1155.sol",
  "abi": [
    {
      "inputs": [],
      "stateMutability": "nonpayable",
      "type": "constructor"
    },
    {
      "anonymous": false,
      "inputs": [
        {
          "indexed": true,
          "internalType": "address",
          "name": "account",
          "type": "address"
        },
        {
          "indexed": true,
          "internalType": "address",
          "name": "operator",
          "type": "address"
        },
        {
          "indexed": false,
          "internalType": "bool",
          "name": "approved",
          "type": "bool"
        }
      ],
      "name": "ApprovalForAll",
      "type": "event"
    },
    {
      "anonymous": false,
      "inputs": [
        {
          "indexed": true,
          "internalType": "address",
          "name": "previousOwner",
          "type": "address"
        },
        {
          "indexed": true,
          "internalType": "address",
          "name": "newOwner",
          "type": "address"
        }
      ],
      "name": "OwnershipTransferred",
      "type": "event"
    },
    {
      "anonymous": false,
      "inputs": [
        {
          "indexed": true,
          "internalType": "address",
          "name": "operator",
          "type": "address"
        },
        {
          "indexed": true,
          "internalType": "address",
          "name": "from",
          "type": "address"
        },
        {
          "indexed": true,
          "internalType": "address",
          "name": "to",
          "type": "address"
        },
        {
          "indexed": false,
          "internalType": "uint256[]",
          "name": "ids",
          "type": "uint256[]"
        },
        {
          "indexed": false,
          "internalType": "uint256[]",
          "name": "values",
          "type": "uint256[]"
        }
      ],
      "name": "TransferBatch",
      "type": "event"
    },
    {
      "anonymous": false,
      "inputs": [
        {
          "indexed": true,
          "internalType": "address",
          "name": "operator",
          "type": "address"
        },
        {
          "indexed": true,
          "internalType": "address",
          "name": "from",
          "type": "address"
        },
        {
          "indexed": true,
          "internalType": "address",
          "name": "to",
          "type": "address"
        },
        {
          "indexed": false,
          "internalType": "uint256",
          "name": "id",
          "type": "uint256"
        },
        {
          "indexed": false,
          "internalType": "uint256",
          "name": "value",
          "type": "uint256"
        }
      ],
      "name": "TransferSingle",
      "type": "event"
    },
    {
      "anonymous": false,
      "inputs": [
        {
          "indexed": false,
          "internalType": "string",
          "name": "value",
          "type": "string"
        },
        {
          "indexed": true,
          "internalType": "uint256",
          "name": "id",
          "type": "uint256"
        }
      ],
      "name": "URI",
      "type": "event"
    },
    {
      "inputs": [
        {
          "internalType": "address",
          "name": "account",
          "type": "address"
        },
        {
          "internalType": "uint256",
          "name": "id",
          "type": "uint256"
        }
      ],
      "name": "balanceOf",
      "outputs": [
        {
          "internalType": "uint256",
          "name": "",
          "type": "uint256"
        }
      ],
      "stateMutability": "view",
      "type": "function"
    },
    {
      "inputs": [
        {
          "internalType": "address[]",
          "name": "accounts",
          "type": "address[]"
        },
        {
          "internalType": "uint256[]",
          "name": "ids",
          "type": "uint256[]"
        }
      ],
      "name": "balanceOfBatch",
      "outputs": [
        {
          "internalType": "uint256[]",
          "name": "",
          "type": "uint256[]"
        }
      ],
      "stateMutability": "view",
      "type": "function"
    },
    {
      "inputs": [
        {
          "internalType": "uint256",
          "name": "",
          "type": "uint256"
        },
        {
          "internalType": "address",
          "name": "",
          "type": "address"
        }
      ],
      "name": "bought",
      "outputs": [
        {
          "internalType": "bool",
          "name": "",
          "type": "bool"
        }
      ],
      "stateMutability": "view",
      "type": "function"
    },
    {
      "inputs": [
        {
          "internalType": "uint256",
          "name": "_id",
          "type": "uint256"
        },
        {
          "internalType": "address",
          "name": "_user",
          "type": "address"
        }
      ],
      "name": "claimTicket",
      "outputs": [],
      "stateMutability": "nonpayable",
      "type": "function"
    },
    {
      "inputs": [
        {
          "internalType": "uint256",
          "name": "_supply",
          "type": "uint256"
        },
        {
          "internalType": "string",
          "name": "_name",
          "type": "string"
        },
        {
          "internalType": "string",
          "name": "_description",
          "type": "string"
        },
        {
          "internalType": "string",
          "name": "_image",
          "type": "string"
        },
        {
          "internalType": "string",
          "name": "_location",
          "type": "string"
        },
        {
          "internalType": "address",
          "name": "_host",
          "type": "address"
        },
        {
          "internalType": "uint256",
          "name": "_eventDate",
          "type": "uint256"
        },
        {
          "internalType": "bool",
          "name": "_hasWhitelist",
          "type": "bool"
        },
        {
          "internalType": "string",
          "name": "_tokenURI",
          "type": "string"
        },
        {
          "internalType": "uint256",
          "name": "_price",
          "type": "uint256"
        },
        {
          "internalType": "string",
          "name": "_link",
          "type": "string"
        }
      ],
      "name": "createEvent",
      "outputs": [],
      "stateMutability": "nonpayable",
      "type": "function"
    },
    {
      "inputs": [
        {
          "internalType": "uint256",
          "name": "_id",
          "type": "uint256"
        },
        {
          "internalType": "address",
          "name": "user",
          "type": "address"
        }
      ],
      "name": "didUserBuy",
      "outputs": [
        {
          "internalType": "bool",
          "name": "",
          "type": "bool"
        }
      ],
      "stateMutability": "view",
      "type": "function"
    },
    {
      "inputs": [
        {
          "internalType": "uint256",
          "name": "",
          "type": "uint256"
        }
      ],
      "name": "eventOwner",
      "outputs": [
        {
          "internalType": "address",
          "name": "",
          "type": "address"
        }
      ],
      "stateMutability": "view",
      "type": "function"
    },
    {
      "inputs": [
        {
          "internalType": "uint256",
          "name": "id",
          "type": "uint256"
        }
      ],
      "name": "exists",
      "outputs": [
        {
          "internalType": "bool",
          "name": "",
          "type": "bool"
        }
      ],
      "stateMutability": "view",
      "type": "function"
    },
    {
      "inputs": [],
      "name": "getActiveEvents",
      "outputs": [
        {
          "components": [
            {
              "internalType": "uint256",
              "name": "id",
              "type": "uint256"
            },
            {
              "internalType": "uint256",
              "name": "supply",
              "type": "uint256"
            },
            {
              "internalType": "string",
              "name": "name",
              "type": "string"
            },
            {
              "internalType": "string",
              "name": "description",
              "type": "string"
            },
            {
              "internalType": "string",
              "name": "image",
              "type": "string"
            },
            {
              "internalType": "string",
              "name": "location",
              "type": "string"
            },
            {
              "internalType": "address",
              "name": "host",
              "type": "address"
            },
            {
              "internalType": "uint256",
              "name": "eventDate",
              "type": "uint256"
            },
            {
              "internalType": "bool",
              "name": "hasWhitelist",
              "type": "bool"
            },
            {
              "internalType": "uint256",
              "name": "price",
              "type": "uint256"
            },
            {
              "internalType": "address[]",
              "name": "whitelisted",
              "type": "address[]"
            },
            {
              "internalType": "string",
              "name": "link",
              "type": "string"
            }
          ],
          "internalType": "struct NFTicket1155.Event[]",
          "name": "",
          "type": "tuple[]"
        }
      ],
      "stateMutability": "view",
      "type": "function"
    },
    {
      "inputs": [
        {
          "internalType": "uint256",
          "name": "_eventId",
          "type": "uint256"
        }
      ],
      "name": "getEvent",
      "outputs": [
        {
          "components": [
            {
              "internalType": "uint256",
              "name": "id",
              "type": "uint256"
            },
            {
              "internalType": "uint256",
              "name": "supply",
              "type": "uint256"
            },
            {
              "internalType": "string",
              "name": "name",
              "type": "string"
            },
            {
              "internalType": "string",
              "name": "description",
              "type": "string"
            },
            {
              "internalType": "string",
              "name": "image",
              "type": "string"
            },
            {
              "internalType": "string",
              "name": "location",
              "type": "string"
            },
            {
              "internalType": "address",
              "name": "host",
              "type": "address"
            },
            {
              "internalType": "uint256",
              "name": "eventDate",
              "type": "uint256"
            },
            {
              "internalType": "bool",
              "name": "hasWhitelist",
              "type": "bool"
            },
            {
              "internalType": "uint256",
              "name": "price",
              "type": "uint256"
            },
            {
              "internalType": "address[]",
              "name": "whitelisted",
              "type": "address[]"
            },
            {
              "internalType": "string",
              "name": "link",
              "type": "string"
            }
          ],
          "internalType": "struct NFTicket1155.Event",
          "name": "",
          "type": "tuple"
        }
      ],
      "stateMutability": "view",
      "type": "function"
    },
    {
      "inputs": [
        {
          "internalType": "uint256",
          "name": "_id",
          "type": "uint256"
        }
      ],
      "name": "getEventOwner",
      "outputs": [
        {
          "internalType": "address",
          "name": "",
          "type": "address"
        }
      ],
      "stateMutability": "view",
      "type": "function"
    },
    {
      "inputs": [
        {
          "internalType": "address",
          "name": "_user",
          "type": "address"
        }
      ],
      "name": "getEventsByUser",
      "outputs": [
        {
          "components": [
            {
              "internalType": "uint256",
              "name": "id",
              "type": "uint256"
            },
            {
              "internalType": "uint256",
              "name": "supply",
              "type": "uint256"
            },
            {
              "internalType": "string",
              "name": "name",
              "type": "string"
            },
            {
              "internalType": "string",
              "name": "description",
              "type": "string"
            },
            {
              "internalType": "string",
              "name": "image",
              "type": "string"
            },
            {
              "internalType": "string",
              "name": "location",
              "type": "string"
            },
            {
              "internalType": "address",
              "name": "host",
              "type": "address"
            },
            {
              "internalType": "uint256",
              "name": "eventDate",
              "type": "uint256"
            },
            {
              "internalType": "bool",
              "name": "hasWhitelist",
              "type": "bool"
            },
            {
              "internalType": "uint256",
              "name": "price",
              "type": "uint256"
            },
            {
              "internalType": "address[]",
              "name": "whitelisted",
              "type": "address[]"
            },
            {
              "internalType": "string",
              "name": "link",
              "type": "string"
            }
          ],
          "internalType": "struct NFTicket1155.Event[]",
          "name": "",
          "type": "tuple[]"
        }
      ],
      "stateMutability": "view",
      "type": "function"
    },
    {
      "inputs": [
        {
          "internalType": "uint256",
          "name": "_id",
          "type": "uint256"
        },
        {
          "internalType": "address",
          "name": "_user",
          "type": "address"
        }
      ],
      "name": "getPassword",
      "outputs": [
        {
          "internalType": "bytes32",
          "name": "",
          "type": "bytes32"
        }
      ],
      "stateMutability": "view",
      "type": "function"
    },
    {
      "inputs": [
        {
          "internalType": "uint256",
          "name": "id",
          "type": "uint256"
        }
      ],
      "name": "getURI",
      "outputs": [
        {
          "internalType": "string",
          "name": "",
          "type": "string"
        }
      ],
      "stateMutability": "view",
      "type": "function"
    },
    {
      "inputs": [
        {
          "internalType": "address",
          "name": "account",
          "type": "address"
        },
        {
          "internalType": "address",
          "name": "operator",
          "type": "address"
        }
      ],
      "name": "isApprovedForAll",
      "outputs": [
        {
          "internalType": "bool",
          "name": "",
          "type": "bool"
        }
      ],
      "stateMutability": "view",
      "type": "function"
    },
    {
      "inputs": [
        {
          "internalType": "uint256",
          "name": "id",
          "type": "uint256"
        },
        {
          "internalType": "uint256",
          "name": "amount",
          "type": "uint256"
        },
        {
          "internalType": "bytes",
          "name": "data",
          "type": "bytes"
        }
      ],
      "name": "mint",
      "outputs": [],
      "stateMutability": "payable",
      "type": "function"
    },
    {
      "inputs": [
        {
          "internalType": "address",
          "name": "to",
          "type": "address"
        },
        {
          "internalType": "uint256[]",
          "name": "ids",
          "type": "uint256[]"
        },
        {
          "internalType": "uint256[]",
          "name": "amounts",
          "type": "uint256[]"
        },
        {
          "internalType": "bytes",
          "name": "data",
          "type": "bytes"
        }
      ],
      "name": "mintBatch",
      "outputs": [],
      "stateMutability": "nonpayable",
      "type": "function"
    },
    {
      "inputs": [],
      "name": "owner",
      "outputs": [
        {
          "internalType": "address",
          "name": "",
          "type": "address"
        }
      ],
      "stateMutability": "view",
      "type": "function"
    },
    {
      "inputs": [
        {
          "internalType": "uint256",
          "name": "_eventId",
          "type": "uint256"
        }
      ],
      "name": "payEventOwner",
      "outputs": [
        {
          "internalType": "bool",
          "name": "",
          "type": "bool"
        }
      ],
      "stateMutability": "nonpayable",
      "type": "function"
    },
    {
      "inputs": [],
      "name": "renounceOwnership",
      "outputs": [],
      "stateMutability": "nonpayable",
      "type": "function"
    },
    {
      "inputs": [
        {
          "internalType": "address",
          "name": "from",
          "type": "address"
        },
        {
          "internalType": "address",
          "name": "to",
          "type": "address"
        },
        {
          "internalType": "uint256[]",
          "name": "ids",
          "type": "uint256[]"
        },
        {
          "internalType": "uint256[]",
          "name": "amounts",
          "type": "uint256[]"
        },
        {
          "internalType": "bytes",
          "name": "data",
          "type": "bytes"
        }
      ],
      "name": "safeBatchTransferFrom",
      "outputs": [],
      "stateMutability": "nonpayable",
      "type": "function"
    },
    {
      "inputs": [
        {
          "internalType": "address",
          "name": "from",
          "type": "address"
        },
        {
          "internalType": "address",
          "name": "to",
          "type": "address"
        },
        {
          "internalType": "uint256",
          "name": "id",
          "type": "uint256"
        },
        {
          "internalType": "uint256",
          "name": "amount",
          "type": "uint256"
        },
        {
          "internalType": "bytes",
          "name": "data",
          "type": "bytes"
        }
      ],
      "name": "safeTransferFrom",
      "outputs": [],
      "stateMutability": "nonpayable",
      "type": "function"
    },
    {
      "inputs": [
        {
          "internalType": "address",
          "name": "operator",
          "type": "address"
        },
        {
          "internalType": "bool",
          "name": "approved",
          "type": "bool"
        }
      ],
      "name": "setApprovalForAll",
      "outputs": [],
      "stateMutability": "nonpayable",
      "type": "function"
    },
    {
      "inputs": [
        {
          "internalType": "uint256",
          "name": "_eventId",
          "type": "uint256"
        },
        {
          "internalType": "bytes32",
          "name": "_password",
          "type": "bytes32"
        }
      ],
      "name": "setPassword",
      "outputs": [],
      "stateMutability": "nonpayable",
      "type": "function"
    },
    {
      "inputs": [
        {
          "internalType": "uint256",
          "name": "_eventId",
          "type": "uint256"
        },
        {
          "internalType": "address[]",
          "name": "_whitelisted",
          "type": "address[]"
        }
      ],
      "name": "setWhitelist",
      "outputs": [],
      "stateMutability": "nonpayable",
      "type": "function"
    },
    {
      "inputs": [
        {
          "internalType": "bytes4",
          "name": "interfaceId",
          "type": "bytes4"
        }
      ],
      "name": "supportsInterface",
      "outputs": [
        {
          "internalType": "bool",
          "name": "",
          "type": "bool"
        }
      ],
      "stateMutability": "view",
      "type": "function"
    },
    {
      "inputs": [
        {
          "internalType": "uint256",
          "name": "id",
          "type": "uint256"
        }
      ],
      "name": "totalSupply",
      "outputs": [
        {
          "internalType": "uint256",
          "name": "",
          "type": "uint256"
        }
      ],
      "stateMutability": "view",
      "type": "function"
    },
    {
      "inputs": [
        {
          "internalType": "address",
          "name": "newOwner",
          "type": "address"
        }
      ],
      "name": "transferOwnership",
      "outputs": [],
      "stateMutability": "nonpayable",
      "type": "function"
    },
    {
      "inputs": [
        {
          "internalType": "uint256",
          "name": "",
          "type": "uint256"
        }
      ],
      "name": "uri",
      "outputs": [
        {
          "internalType": "string",
          "name": "",
          "type": "string"
        }
      ],
      "stateMutability": "view",
      "type": "function"
    },
    {
      "inputs": [
        {
          "internalType": "uint256",
          "name": "_eventId",
          "type": "uint256"
        }
      ],
      "name": "voteOnComplaint",
      "outputs": [],
      "stateMutability": "nonpayable",
      "type": "function"
    },
    {
      "inputs": [
        {
          "internalType": "uint256",
          "name": "_eventId",
          "type": "uint256"
        }
      ],
      "name": "withdrawDeposit",
      "outputs": [],
      "stateMutability": "nonpayable",
      "type": "function"
    }
  ],
  "bytecode": "0x60806040523480156200001157600080fd5b506040805160208101909152600081526200002c816200003e565b50620000383362000057565b6200018c565b805162000053906002906020840190620000a9565b5050565b600380546001600160a01b038381166001600160a01b0319831681179093556040519116919082907f8be0079c531659141344cd1fd0a4f28419497f9722a3daafe3b4186f6b6457e090600090a35050565b828054620000b7906200014f565b90600052602060002090601f016020900481019282620000db576000855562000126565b82601f10620000f657805160ff191683800117855562000126565b8280016001018555821562000126579182015b828111156200012657825182559160200191906001019062000109565b506200013492915062000138565b5090565b5b8082111562000134576000815560010162000139565b600181811c908216806200016457607f821691505b602082108114156200018657634e487b7160e01b600052602260045260246000fd5b50919050565b613f91806200019c6000396000f3fe6080604052600436106101d75760003560e01c80634f558e7911610102578063b4d59d2711610095578063e985e9c511610064578063e985e9c51461061a578063f242432a14610663578063f2fde38b14610683578063fe210f69146106a357600080fd5b8063b4d59d2714610577578063bd85b039146105ad578063c219d5e9146105da578063e49cde77146105fa57600080fd5b80637b6b3f18116100d15780637b6b3f18146104bf5780638da5cb5b146104df578063a22cb46514610511578063a52901b51461053157600080fd5b80634f558e791461042e57806365e07abe1461045d5780636d1884e01461047d578063715018a6146104aa57600080fd5b80631f7fdffa1161017a57806333289a461161014957806333289a461461039f5780633612280f146103bf5780634e1273f4146103e15780634e50c9261461040e57600080fd5b80631f7fdffa146102e15780632c9b5e96146103015780632eb2c2d61461033c57806330cd52821461035c57600080fd5b806308dc9f42116101b657806308dc9f42146102615780630e89341c1461027457806310240899146102a15780631aa347dc146102c157600080fd5b8062fdd58e146101dc57806301ffc9a71461020f57806307556b831461023f575b600080fd5b3480156101e857600080fd5b506101fc6101f7366004613596565b6106d9565b6040519081526020015b60405180910390f35b34801561021b57600080fd5b5061022f61022a36600461361f565b610770565b6040519015158152602001610206565b34801561024b57600080fd5b5061025f61025a36600461366f565b6107c2565b005b61025f61026f366004613825565b610888565b34801561028057600080fd5b5061029461028f366004613657565b610b30565b6040516102069190613b73565b3480156102ad57600080fd5b5061025f6102bc366004613657565b610bc4565b3480156102cd57600080fd5b506102946102dc366004613657565b610c7a565b3480156102ed57600080fd5b5061025f6102fc3660046134d9565b610c97565b34801561030d57600080fd5b5061022f61031c36600461366f565b600b60209081526000928352604080842090915290825290205460ff1681565b34801561034857600080fd5b5061025f6103573660046133d2565b610cd3565b34801561036857600080fd5b506101fc61037736600461366f565b60009182526009602090815260408084206001600160a01b0393909316845291905290205490565b3480156103ab57600080fd5b5061025f6103ba366004613657565b610d6a565b3480156103cb57600080fd5b506103d4610ed6565b6040516102069190613ad1565b3480156103ed57600080fd5b506104016103fc3660046135bf565b6113ac565b6040516102069190613b32565b34801561041a57600080fd5b5061025f6104293660046136ec565b61150d565b34801561043a57600080fd5b5061022f610449366004613657565b600090815260046020526040902054151590565b34801561046957600080fd5b506103d461047836600461337f565b611753565b34801561048957600080fd5b5061049d610498366004613657565b611c1c565b6040516102069190613d52565b3480156104b657600080fd5b5061025f611fdd565b3480156104cb57600080fd5b5061025f6104da3660046136cb565b612013565b3480156104eb57600080fd5b506003546001600160a01b03165b6040516001600160a01b039091168152602001610206565b34801561051d57600080fd5b5061025f61052c36600461356d565b612071565b34801561053d57600080fd5b5061022f61054c36600461366f565b6000918252600b602090815260408084206001600160a01b0393909316845291905290205460ff1690565b34801561058357600080fd5b506104f9610592366004613657565b6005602052600090815260409020546001600160a01b031681565b3480156105b957600080fd5b506101fc6105c8366004613657565b60009081526004602052604090205490565b3480156105e657600080fd5b5061022f6105f5366004613657565b612080565b34801561060657600080fd5b5061025f610615366004613691565b6121dc565b34801561062657600080fd5b5061022f6106353660046133a0565b6001600160a01b03918216600090815260016020908152604080832093909416825291909152205460ff1690565b34801561066f57600080fd5b5061025f61067e366004613477565b61226a565b34801561068f57600080fd5b5061025f61069e36600461337f565b6122f1565b3480156106af57600080fd5b506104f96106be366004613657565b6000908152600560205260409020546001600160a01b031690565b60006001600160a01b03831661074a5760405162461bcd60e51b815260206004820152602b60248201527f455243313135353a2062616c616e636520717565727920666f7220746865207a60448201526a65726f206164647265737360a81b60648201526084015b60405180910390fd5b506000908152602081815260408083206001600160a01b03949094168352929052205490565b60006001600160e01b03198216636cdb3d1360e11b14806107a157506001600160e01b031982166303a24d0760e21b145b806107bc57506301ffc9a760e01b6001600160e01b03198316145b92915050565b6003546001600160a01b031633146107ec5760405162461bcd60e51b815260040161074190613c5d565b6000828152600a602090815260408083206001600160a01b038516845290915290205460ff16156108585760405162461bcd60e51b81526020600482015260166024820152751d1a58dad95d08185b1c9958591e4818db185a5b595960521b6044820152606401610741565b6000918252600a602090815260408084206001600160a01b0390931684529190529020805460ff19166001179055565b6000838152600b60209081526040808320338452909152902054839060ff16156108f45760405162461bcd60e51b815260206004820152601e60248201527f63616c6c657220616c7265616479206d696e7465642061207469636b657400006044820152606401610741565b600084815260066020526040902060070154849042106109495760405162461bcd60e51b815260206004820152601060248201526f195d995b9d081a185cc81c185cdcd95960821b6044820152606401610741565b60008581526006602090815260408083206001810154600490935292205411156109b55760405162461bcd60e51b815260206004820152601a60248201527f616c6c207469636b6574732068617665206265656e20736f6c640000000000006044820152606401610741565b600881015460ff1615610a3a57600086815260086020908152604080832033845290915290205460ff161515600114610a3a5760405162461bcd60e51b815260206004820152602160248201527f796f7520617265206e6f7420696e766974656420746f2074686973206576656e6044820152601d60fa1b6064820152608401610741565b80600901543414610a845760405162461bcd60e51b81526020600482015260146024820152731a5b98dbdc9c9958dd081c1c9a58d9481cd95b9d60621b6044820152606401610741565b6000868152600d602052604081208054349290610aa2908490613d88565b90915550506000868152600b6020908152604080832033808552908352818420805460ff191660019081179091558a855260078452828520805480830182559086528486200180546001600160a01b0319168317905560098601548b8652600e85528386208387528552838620558251938401909252928252610b28929189919061238c565b505050505050565b606060028054610b3f90613df6565b80601f0160208091040260200160405190810160405280929190818152602001828054610b6b90613df6565b8015610bb85780601f10610b8d57610100808354040283529160200191610bb8565b820191906000526020600020905b815481529060010190602001808311610b9b57829003601f168201915b50505050509050919050565b6000818152600b60209081526040808320338452909152902054819060ff161515600114610c045760405162461bcd60e51b815260040161074190613c92565b6000828152600f60205260408120805460019290610c23908490613d88565b9091555050600082815260076020908152604080832054600f909252822054610c4c9190613da0565b610c57906064613dc0565b9050605a8110610c7557610c753384610c7033876106d9565b612475565b505050565b6000818152600c60205260409020805460609190610b3f90613df6565b6003546001600160a01b03163314610cc15760405162461bcd60e51b815260040161074190613c5d565b610ccd84848484612605565b50505050565b6001600160a01b038516331480610cef5750610cef8533610635565b610d565760405162461bcd60e51b815260206004820152603260248201527f455243313135353a207472616e736665722063616c6c6572206973206e6f74206044820152711bdddb995c881b9bdc88185c1c1c9bdd995960721b6064820152608401610741565b610d63858585858561277b565b5050505050565b6000818152600b60209081526040808320338452909152902054819060ff161515600114610daa5760405162461bcd60e51b815260040161074190613c92565b6000828152600e6020908152604080832033845290915290205480610e115760405162461bcd60e51b815260206004820152601e60248201527f616d6f756e74206d6179206e6f74206265207a65726f206f72206c65737300006044820152606401610741565b80471015610e585760405162461bcd60e51b8152602060048201526014602482015273636f6e7472616374206c61636b732066756e647360601b6044820152606401610741565b6000838152600e6020908152604080832033808552925280832083905551909183156108fc02918491818181858888f19350505050158015610e9e573d6000803e3d6000fd5b50600083815260066020908152604080832060090154600d9092528220805491929091610ecc908490613ddf565b9091555050505050565b60606000805b601054811015610f1f57600081815260066020526040902060070154421015610f0d5781610f0981613e5d565b9250505b80610f1781613e5d565b915050610edc565b506000816001600160401b03811115610f4857634e487b7160e01b600052604160045260246000fd5b604051908082528060200260200182016040528015610f8157816020015b610f6e6130ae565b815260200190600190039081610f665790505b5090506000805b6010548110156113a3576000818152600660205260409020600701544210156113915760066000828152602001908152602001600020604051806101800160405290816000820154815260200160018201548152602001600282018054610fee90613df6565b80601f016020809104026020016040519081016040528092919081815260200182805461101a90613df6565b80156110675780601f1061103c57610100808354040283529160200191611067565b820191906000526020600020905b81548152906001019060200180831161104a57829003601f168201915b5050505050815260200160038201805461108090613df6565b80601f01602080910402602001604051908101604052809291908181526020018280546110ac90613df6565b80156110f95780601f106110ce576101008083540402835291602001916110f9565b820191906000526020600020905b8154815290600101906020018083116110dc57829003601f168201915b5050505050815260200160048201805461111290613df6565b80601f016020809104026020016040519081016040528092919081815260200182805461113e90613df6565b801561118b5780601f106111605761010080835404028352916020019161118b565b820191906000526020600020905b81548152906001019060200180831161116e57829003601f168201915b505050505081526020016005820180546111a490613df6565b80601f01602080910402602001604051908101604052809291908181526020018280546111d090613df6565b801561121d5780601f106111f25761010080835404028352916020019161121d565b820191906000526020600020905b81548152906001019060200180831161120057829003601f168201915b505050918352505060068201546001600160a01b03166020808301919091526007830154604080840191909152600884015460ff161515606084015260098401546080840152600a8401805482518185028101850190935280835260a09094019391929091908301828280156112bc57602002820191906000526020600020905b81546001600160a01b0316815260019091019060200180831161129e575b50505050508152602001600b820180546112d590613df6565b80601f016020809104026020016040519081016040528092919081815260200182805461130190613df6565b801561134e5780601f106113235761010080835404028352916020019161134e565b820191906000526020600020905b81548152906001019060200180831161133157829003601f168201915b50505050508152505083838151811061137757634e487b7160e01b600052603260045260246000fd5b6020026020010181905250818061138d90613e5d565b9250505b8061139b81613e5d565b915050610f88565b50909392505050565b606081518351146114115760405162461bcd60e51b815260206004820152602960248201527f455243313135353a206163636f756e747320616e6420696473206c656e677468604482015268040dad2e6dac2e8c6d60bb1b6064820152608401610741565b600083516001600160401b0381111561143a57634e487b7160e01b600052604160045260246000fd5b604051908082528060200260200182016040528015611463578160200160208202803683370190505b50905060005b8451811015611505576114ca85828151811061149557634e487b7160e01b600052603260045260246000fd5b60200260200101518583815181106114bd57634e487b7160e01b600052603260045260246000fd5b60200260200101516106d9565b8282815181106114ea57634e487b7160e01b600052603260045260246000fd5b60209081029190910101526114fe81613e5d565b9050611469565b509392505050565b42851161155c5760405162461bcd60e51b815260206004820152601f60248201527f6576656e74206d7573742068617070656e20696e2074686520667574757265006044820152606401610741565b606060405180610180016040528060105481526020018d81526020018c81526020018b81526020018a8152602001898152602001886001600160a01b031681526020018781526020018615158152602001848152602001828152602001838152506006600060105481526020019081526020016000206000820151816000015560208201518160010155604082015181600201908051906020019061160292919061311a565b506060820151805161161e91600384019160209091019061311a565b506080820151805161163a91600484019160209091019061311a565b5060a0820151805161165691600584019160209091019061311a565b5060c08201516006820180546001600160a01b0319166001600160a01b0390921691909117905560e0820151600782015561010082015160088201805460ff1916911515919091179055610120820151600982015561014082015180516116c791600a84019160209091019061319e565b5061016082015180516116e491600b84019160209091019061311a565b50506010546000908152600c60209081526040909120865161170b9350909187019061311a565b5060108054600090815260056020526040812080546001600160a01b0319163317905581546001929190611740908490613d88565b9091555050505050505050505050505050565b60606000805b60105481101561179557600061176f85836106d9565b1115611783578161177f81613e5d565b9250505b8061178d81613e5d565b915050611759565b506000816001600160401b038111156117be57634e487b7160e01b600052604160045260246000fd5b6040519080825280602002602001820160405280156117f757816020015b6117e46130ae565b8152602001906001900390816117dc5790505b5090506000805b601054811015611c1257600061181487836106d9565b1115611c00576006600082815260200190815260200160002060405180610180016040529081600082015481526020016001820154815260200160028201805461185d90613df6565b80601f016020809104026020016040519081016040528092919081815260200182805461188990613df6565b80156118d65780601f106118ab576101008083540402835291602001916118d6565b820191906000526020600020905b8154815290600101906020018083116118b957829003601f168201915b505050505081526020016003820180546118ef90613df6565b80601f016020809104026020016040519081016040528092919081815260200182805461191b90613df6565b80156119685780601f1061193d57610100808354040283529160200191611968565b820191906000526020600020905b81548152906001019060200180831161194b57829003601f168201915b5050505050815260200160048201805461198190613df6565b80601f01602080910402602001604051908101604052809291908181526020018280546119ad90613df6565b80156119fa5780601f106119cf576101008083540402835291602001916119fa565b820191906000526020600020905b8154815290600101906020018083116119dd57829003601f168201915b50505050508152602001600582018054611a1390613df6565b80601f0160208091040260200160405190810160405280929190818152602001828054611a3f90613df6565b8015611a8c5780601f10611a6157610100808354040283529160200191611a8c565b820191906000526020600020905b815481529060010190602001808311611a6f57829003601f168201915b505050918352505060068201546001600160a01b03166020808301919091526007830154604080840191909152600884015460ff161515606084015260098401546080840152600a8401805482518185028101850190935280835260a0909401939192909190830182828015611b2b57602002820191906000526020600020905b81546001600160a01b03168152600190910190602001808311611b0d575b50505050508152602001600b82018054611b4490613df6565b80601f0160208091040260200160405190810160405280929190818152602001828054611b7090613df6565b8015611bbd5780601f10611b9257610100808354040283529160200191611bbd565b820191906000526020600020905b815481529060010190602001808311611ba057829003601f168201915b505050505081525050838381518110611be657634e487b7160e01b600052603260045260246000fd5b60200260200101819052508180611bfc90613e5d565b9250505b80611c0a81613e5d565b9150506117fe565b5090949350505050565b611c246130ae565b600060066000848152602001908152602001600020905080604051806101800160405290816000820154815260200160018201548152602001600282018054611c6c90613df6565b80601f0160208091040260200160405190810160405280929190818152602001828054611c9890613df6565b8015611ce55780601f10611cba57610100808354040283529160200191611ce5565b820191906000526020600020905b815481529060010190602001808311611cc857829003601f168201915b50505050508152602001600382018054611cfe90613df6565b80601f0160208091040260200160405190810160405280929190818152602001828054611d2a90613df6565b8015611d775780601f10611d4c57610100808354040283529160200191611d77565b820191906000526020600020905b815481529060010190602001808311611d5a57829003601f168201915b50505050508152602001600482018054611d9090613df6565b80601f0160208091040260200160405190810160405280929190818152602001828054611dbc90613df6565b8015611e095780601f10611dde57610100808354040283529160200191611e09565b820191906000526020600020905b815481529060010190602001808311611dec57829003601f168201915b50505050508152602001600582018054611e2290613df6565b80601f0160208091040260200160405190810160405280929190818152602001828054611e4e90613df6565b8015611e9b5780601f10611e7057610100808354040283529160200191611e9b565b820191906000526020600020905b815481529060010190602001808311611e7e57829003601f168201915b505050918352505060068201546001600160a01b03166020808301919091526007830154604080840191909152600884015460ff161515606084015260098401546080840152600a8401805482518185028101850190935280835260a0909401939192909190830182828015611f3a57602002820191906000526020600020905b81546001600160a01b03168152600190910190602001808311611f1c575b50505050508152602001600b82018054611f5390613df6565b80601f0160208091040260200160405190810160405280929190818152602001828054611f7f90613df6565b8015611fcc5780601f10611fa157610100808354040283529160200191611fcc565b820191906000526020600020905b815481529060010190602001808311611faf57829003601f168201915b505050505081525050915050919050565b6003546001600160a01b031633146120075760405162461bcd60e51b815260040161074190613c5d565b6120116000612939565b565b6000828152600b60209081526040808320338452909152902054829060ff1615156001146120535760405162461bcd60e51b815260040161074190613c92565b50600091825260096020908152604080842033855290915290912055565b61207c33838361298b565b5050565b6003546000906001600160a01b031633146120ad5760405162461bcd60e51b815260040161074190613c5d565b6000828152600660205260409020600781015442906120cf9062093a80613d88565b1061211c5760405162461bcd60e51b815260206004820181905260248201527f64616d61676520636c61696d20706572696f64206e6f74206f766572207965746044820152606401610741565b6000838152600d6020908152604080832054600590925280832054905191926001600160a01b0390911691829084908381818185875af1925050503d8060008114612183576040519150601f19603f3d011682016040523d82523d6000602084013e612188565b606091505b50509050806121ce5760405162461bcd60e51b81526020600482015260126024820152711d1c985b9cd858dd1a5bdb8819985a5b195960721b6044820152606401610741565b60019450505050505b919050565b60008281526005602052604090205482906001600160a01b031633146122445760405162461bcd60e51b815260206004820152601d60248201527f63616c6c6572206973206e6f7420746865206576656e74206f776e65720000006044820152606401610741565b600083815260066020908152604090912083519091610d6391600a84019186019061319e565b6001600160a01b03851633148061228657506122868533610635565b6122e45760405162461bcd60e51b815260206004820152602960248201527f455243313135353a2063616c6c6572206973206e6f74206f776e6572206e6f7260448201526808185c1c1c9bdd995960ba1b6064820152608401610741565b610d638585858585612a6c565b6003546001600160a01b0316331461231b5760405162461bcd60e51b815260040161074190613c5d565b6001600160a01b0381166123805760405162461bcd60e51b815260206004820152602660248201527f4f776e61626c653a206e6577206f776e657220697320746865207a65726f206160448201526564647265737360d01b6064820152608401610741565b61238981612939565b50565b6001600160a01b0384166123b25760405162461bcd60e51b815260040161074190613d11565b3360006123be85612ba4565b905060006123cb85612ba4565b90506123dc83600089858589612bfd565b6000868152602081815260408083206001600160a01b038b1684529091528120805487929061240c908490613d88565b909155505060408051878152602081018790526001600160a01b03808a1692600092918716917fc3d58168c5ae7397731d063d5bbf3d657854427343f4c083240f7aacaa2d0f62910160405180910390a461246c83600089898989612cc8565b50505050505050565b6001600160a01b0383166124d75760405162461bcd60e51b815260206004820152602360248201527f455243313135353a206275726e2066726f6d20746865207a65726f206164647260448201526265737360e81b6064820152608401610741565b3360006124e384612ba4565b905060006124f084612ba4565b905061251083876000858560405180602001604052806000815250612bfd565b6000858152602081815260408083206001600160a01b038a1684529091529020548481101561258d5760405162461bcd60e51b8152602060048201526024808201527f455243313135353a206275726e20616d6f756e7420657863656564732062616c604482015263616e636560e01b6064820152608401610741565b6000868152602081815260408083206001600160a01b038b81168086529184528285208a8703905582518b81529384018a90529092908816917fc3d58168c5ae7397731d063d5bbf3d657854427343f4c083240f7aacaa2d0f62910160405180910390a460408051602081019091526000905261246c565b6001600160a01b03841661262b5760405162461bcd60e51b815260040161074190613d11565b815183511461264c5760405162461bcd60e51b815260040161074190613cc9565b3361265c81600087878787612bfd565b60005b84518110156127135783818151811061268857634e487b7160e01b600052603260045260246000fd5b60200260200101516000808784815181106126b357634e487b7160e01b600052603260045260246000fd5b602002602001015181526020019081526020016000206000886001600160a01b03166001600160a01b0316815260200190815260200160002060008282546126fb9190613d88565b9091555081905061270b81613e5d565b91505061265f565b50846001600160a01b031660006001600160a01b0316826001600160a01b03167f4a39dc06d4c0dbc64b70af90fd698a233a518aa5d07e595d983b8c0526c8f7fb8787604051612764929190613b45565b60405180910390a4610d6381600087878787612e33565b815183511461279c5760405162461bcd60e51b815260040161074190613cc9565b6001600160a01b0384166127c25760405162461bcd60e51b815260040161074190613bce565b336127d1818787878787612bfd565b60005b84518110156128d35760008582815181106127ff57634e487b7160e01b600052603260045260246000fd5b60200260200101519050600085838151811061282b57634e487b7160e01b600052603260045260246000fd5b602090810291909101810151600084815280835260408082206001600160a01b038e16835290935291909120549091508181101561287b5760405162461bcd60e51b815260040161074190613c13565b6000838152602081815260408083206001600160a01b038e8116855292528083208585039055908b168252812080548492906128b8908490613d88565b92505081905550505050806128cc90613e5d565b90506127d4565b50846001600160a01b0316866001600160a01b0316826001600160a01b03167f4a39dc06d4c0dbc64b70af90fd698a233a518aa5d07e595d983b8c0526c8f7fb8787604051612923929190613b45565b60405180910390a4610b28818787878787612e33565b600380546001600160a01b038381166001600160a01b0319831681179093556040519116919082907f8be0079c531659141344cd1fd0a4f28419497f9722a3daafe3b4186f6b6457e090600090a35050565b816001600160a01b0316836001600160a01b031614156129ff5760405162461bcd60e51b815260206004820152602960248201527f455243313135353a2073657474696e6720617070726f76616c20737461747573604482015268103337b91039b2b63360b91b6064820152608401610741565b6001600160a01b03838116600081815260016020908152604080832094871680845294825291829020805460ff191686151590811790915591519182527f17307eab39ab6107e8899845ad3d59bd9653f200f220920489ca2b5937696c31910160405180910390a3505050565b6001600160a01b038416612a925760405162461bcd60e51b815260040161074190613bce565b336000612a9e85612ba4565b90506000612aab85612ba4565b9050612abb838989858589612bfd565b6000868152602081815260408083206001600160a01b038c16845290915290205485811015612afc5760405162461bcd60e51b815260040161074190613c13565b6000878152602081815260408083206001600160a01b038d8116855292528083208985039055908a16825281208054889290612b39908490613d88565b909155505060408051888152602081018890526001600160a01b03808b16928c821692918816917fc3d58168c5ae7397731d063d5bbf3d657854427343f4c083240f7aacaa2d0f62910160405180910390a4612b99848a8a8a8a8a612cc8565b505050505050505050565b60408051600180825281830190925260609160009190602080830190803683370190505090508281600081518110612bec57634e487b7160e01b600052603260045260246000fd5b602090810291909101015292915050565b60005b8351811015612cb957600060066000868481518110612c2f57634e487b7160e01b600052603260045260246000fd5b60200260200101518152602001908152602001600020905042816007015411612ca65760405162461bcd60e51b815260206004820152602360248201527f43616e6e6f74207472616e73666572206166746572206576656e7420737461726044820152621d195960ea1b6064820152608401610741565b5080612cb181613e5d565b915050612c00565b50610b28868686868686612efd565b6001600160a01b0384163b15610b285760405163f23a6e6160e01b81526001600160a01b0385169063f23a6e6190612d0c9089908990889088908890600401613a8c565b602060405180830381600087803b158015612d2657600080fd5b505af1925050508015612d56575060408051601f3d908101601f19168201909252612d539181019061363b565b60015b612e0357612d62613ea4565b806308c379a01415612d9c5750612d77613ebc565b80612d825750612d9e565b8060405162461bcd60e51b81526004016107419190613b73565b505b60405162461bcd60e51b815260206004820152603460248201527f455243313135353a207472616e7366657220746f206e6f6e20455243313135356044820152732932b1b2b4bb32b91034b6b83632b6b2b73a32b960611b6064820152608401610741565b6001600160e01b0319811663f23a6e6160e01b1461246c5760405162461bcd60e51b815260040161074190613b86565b6001600160a01b0384163b15610b285760405163bc197c8160e01b81526001600160a01b0385169063bc197c8190612e779089908990889088908890600401613a2e565b602060405180830381600087803b158015612e9157600080fd5b505af1925050508015612ec1575060408051601f3d908101601f19168201909252612ebe9181019061363b565b60015b612ecd57612d62613ea4565b6001600160e01b0319811663bc197c8160e01b1461246c5760405162461bcd60e51b815260040161074190613b86565b6001600160a01b038516612fa05760005b8351811015612f9e57828181518110612f3757634e487b7160e01b600052603260045260246000fd5b602002602001015160046000868481518110612f6357634e487b7160e01b600052603260045260246000fd5b602002602001015181526020019081526020016000206000828254612f889190613d88565b90915550612f97905081613e5d565b9050612f0e565b505b6001600160a01b038416610b285760005b835181101561246c576000848281518110612fdc57634e487b7160e01b600052603260045260246000fd5b60200260200101519050600084838151811061300857634e487b7160e01b600052603260045260246000fd5b602002602001015190506000600460008481526020019081526020016000205490508181101561308b5760405162461bcd60e51b815260206004820152602860248201527f455243313135353a206275726e20616d6f756e74206578636565647320746f74604482015267616c537570706c7960c01b6064820152608401610741565b600092835260046020526040909220910390556130a781613e5d565b9050612fb1565b60405180610180016040528060008152602001600081526020016060815260200160608152602001606081526020016060815260200160006001600160a01b03168152602001600081526020016000151581526020016000815260200160608152602001606081525090565b82805461312690613df6565b90600052602060002090601f016020900481019282613148576000855561318e565b82601f1061316157805160ff191683800117855561318e565b8280016001018555821561318e579182015b8281111561318e578251825591602001919060010190613173565b5061319a9291506131f3565b5090565b82805482825590600052602060002090810192821561318e579160200282015b8281111561318e57825182546001600160a01b0319166001600160a01b039091161782556020909201916001909101906131be565b5b8082111561319a57600081556001016131f4565b80356001600160a01b03811681146121d757600080fd5b600082601f83011261322f578081fd5b8135602061323c82613d65565b6040516132498282613e31565b8381528281019150858301600585901b87018401881015613268578586fd5b855b8581101561328d5761327b82613208565b8452928401929084019060010161326a565b5090979650505050505050565b600082601f8301126132aa578081fd5b813560206132b782613d65565b6040516132c48282613e31565b8381528281019150858301600585901b870184018810156132e3578586fd5b855b8581101561328d578135845292840192908401906001016132e5565b803580151581146121d757600080fd5b600082601f830112613321578081fd5b81356001600160401b0381111561333a5761333a613e8e565b604051613351601f8301601f191660200182613e31565b818152846020838601011115613365578283fd5b816020850160208301379081016020019190915292915050565b600060208284031215613390578081fd5b61339982613208565b9392505050565b600080604083850312156133b2578081fd5b6133bb83613208565b91506133c960208401613208565b90509250929050565b600080600080600060a086880312156133e9578081fd5b6133f286613208565b945061340060208701613208565b935060408601356001600160401b038082111561341b578283fd5b61342789838a0161329a565b9450606088013591508082111561343c578283fd5b61344889838a0161329a565b9350608088013591508082111561345d578283fd5b5061346a88828901613311565b9150509295509295909350565b600080600080600060a0868803121561348e578081fd5b61349786613208565b94506134a560208701613208565b9350604086013592506060860135915060808601356001600160401b038111156134cd578182fd5b61346a88828901613311565b600080600080608085870312156134ee578384fd5b6134f785613208565b935060208501356001600160401b0380821115613512578485fd5b61351e8883890161329a565b94506040870135915080821115613533578384fd5b61353f8883890161329a565b93506060870135915080821115613554578283fd5b5061356187828801613311565b91505092959194509250565b6000806040838503121561357f578182fd5b61358883613208565b91506133c960208401613301565b600080604083850312156135a8578182fd5b6135b183613208565b946020939093013593505050565b600080604083850312156135d1578182fd5b82356001600160401b03808211156135e7578384fd5b6135f38683870161321f565b93506020850135915080821115613608578283fd5b506136158582860161329a565b9150509250929050565b600060208284031215613630578081fd5b813561339981613f45565b60006020828403121561364c578081fd5b815161339981613f45565b600060208284031215613668578081fd5b5035919050565b60008060408385031215613681578182fd5b823591506133c960208401613208565b600080604083850312156136a3578182fd5b8235915060208301356001600160401b038111156136bf578182fd5b6136158582860161321f565b600080604083850312156136dd578182fd5b50508035926020909101359150565b60008060008060008060008060008060006101608c8e03121561370d578889fd5b8b359a506001600160401b038060208e0135111561372957898afd5b6137398e60208f01358f01613311565b9a508060408e0135111561374b57898afd5b61375b8e60408f01358f01613311565b99508060608e0135111561376d578687fd5b61377d8e60608f01358f01613311565b98508060808e0135111561378f578687fd5b61379f8e60808f01358f01613311565b97506137ad60a08e01613208565b965060c08d013595506137c260e08e01613301565b9450806101008e013511156137d5578384fd5b6137e68e6101008f01358f01613311565b93506101208d01359250806101408e01351115613801578182fd5b506138138d6101408e01358e01613311565b90509295989b509295989b9093969950565b600080600060608486031215613839578081fd5b833592506020840135915060408401356001600160401b0381111561385c578182fd5b61386886828701613311565b9150509250925092565b6000815180845260208085019450808401835b838110156138aa5781516001600160a01b031687529582019590820190600101613885565b509495945050505050565b6000815180845260208085019450808401835b838110156138aa578151875295820195908201906001016138c8565b60008151808452815b81811015613909576020818501810151868301820152016138ed565b8181111561391a5782602083870101525b50601f01601f19169290920160200192915050565b600061018082518452602083015160208501526040830151816040860152613959828601826138e4565b9150506060830151848203606086015261397382826138e4565b9150506080830151848203608086015261398d82826138e4565b91505060a083015184820360a08601526139a782826138e4565b91505060c08301516139c460c08601826001600160a01b03169052565b5060e083015160e0850152610100808401516139e38287018215159052565b505061012083810151908501526101408084015185830382870152613a088382613872565b925050506101608084015185830382870152613a2483826138e4565b9695505050505050565b6001600160a01b0386811682528516602082015260a060408201819052600090613a5a908301866138b5565b8281036060840152613a6c81866138b5565b90508281036080840152613a8081856138e4565b98975050505050505050565b6001600160a01b03868116825285166020820152604081018490526060810183905260a060808201819052600090613ac6908301846138e4565b979650505050505050565b6000602080830181845280855180835260408601915060408160051b8701019250838701855b82811015613b2557603f19888603018452613b1385835161392f565b94509285019290850190600101613af7565b5092979650505050505050565b60208152600061339960208301846138b5565b604081526000613b5860408301856138b5565b8281036020840152613b6a81856138b5565b95945050505050565b60208152600061339960208301846138e4565b60208082526028908201527f455243313135353a204552433131353552656365697665722072656a656374656040820152676420746f6b656e7360c01b606082015260800190565b60208082526025908201527f455243313135353a207472616e7366657220746f20746865207a65726f206164604082015264647265737360d81b606082015260800190565b6020808252602a908201527f455243313135353a20696e73756666696369656e742062616c616e636520666f60408201526939103a3930b739b332b960b11b606082015260800190565b6020808252818101527f4f776e61626c653a2063616c6c6572206973206e6f7420746865206f776e6572604082015260600190565b6020808252601d908201527f796f7520646964206e6f7420617474656e642074686973206576656e74000000604082015260600190565b60208082526028908201527f455243313135353a2069647320616e6420616d6f756e7473206c656e677468206040820152670dad2e6dac2e8c6d60c31b606082015260800190565b60208082526021908201527f455243313135353a206d696e7420746f20746865207a65726f206164647265736040820152607360f81b606082015260800190565b602081526000613399602083018461392f565b60006001600160401b03821115613d7e57613d7e613e8e565b5060051b60200190565b60008219821115613d9b57613d9b613e78565b500190565b600082613dbb57634e487b7160e01b81526012600452602481fd5b500490565b6000816000190483118215151615613dda57613dda613e78565b500290565b600082821015613df157613df1613e78565b500390565b600181811c90821680613e0a57607f821691505b60208210811415613e2b57634e487b7160e01b600052602260045260246000fd5b50919050565b601f8201601f191681016001600160401b0381118282101715613e5657613e56613e8e565b6040525050565b6000600019821415613e7157613e71613e78565b5060010190565b634e487b7160e01b600052601160045260246000fd5b634e487b7160e01b600052604160045260246000fd5b600060033d1115613eb957600481823e5160e01c5b90565b600060443d1015613eca5790565b6040516003193d81016004833e81513d6001600160401b038160248401118184111715613ef957505050505090565b8285019150815181811115613f115750505050505090565b843d8701016020828501011115613f2b5750505050505090565b613f3a60208286010187613e31565b509095945050505050565b6001600160e01b03198116811461238957600080fdfea264697066735822122071fe5d9cf9b7437dfab262b840b5e3bd87f2848252ebdf238cce5d77a1814e1564736f6c63430008040033",
  "linkReferences": {},
  "deployedLinkReferences": {}
}