{
  "_format": "hh-sol-artifact-1",
  "contractName": "NFTicket1155",
  "sourceName": "hardhat/contracts/NFTicket1155.sol",
  "abi": [
    {
      "inputs": [],
      "stateMutability": "nonpayable",
      "type": "constructor"
    },
    {
      "anonymous": false,
      "inputs": [
        {
          "indexed": true,
          "internalType": "address",
          "name": "account",
          "type": "address"
        },
        {
          "indexed": true,
          "internalType": "address",
          "name": "operator",
          "type": "address"
        },
        {
          "indexed": false,
          "internalType": "bool",
          "name": "approved",
          "type": "bool"
        }
      ],
      "name": "ApprovalForAll",
      "type": "event"
    },
    {
      "anonymous": false,
      "inputs": [
        {
          "indexed": true,
          "internalType": "address",
          "name": "previousOwner",
          "type": "address"
        },
        {
          "indexed": true,
          "internalType": "address",
          "name": "newOwner",
          "type": "address"
        }
      ],
      "name": "OwnershipTransferred",
      "type": "event"
    },
    {
      "anonymous": false,
      "inputs": [
        {
          "indexed": true,
          "internalType": "address",
          "name": "operator",
          "type": "address"
        },
        {
          "indexed": true,
          "internalType": "address",
          "name": "from",
          "type": "address"
        },
        {
          "indexed": true,
          "internalType": "address",
          "name": "to",
          "type": "address"
        },
        {
          "indexed": false,
          "internalType": "uint256[]",
          "name": "ids",
          "type": "uint256[]"
        },
        {
          "indexed": false,
          "internalType": "uint256[]",
          "name": "values",
          "type": "uint256[]"
        }
      ],
      "name": "TransferBatch",
      "type": "event"
    },
    {
      "anonymous": false,
      "inputs": [
        {
          "indexed": true,
          "internalType": "address",
          "name": "operator",
          "type": "address"
        },
        {
          "indexed": true,
          "internalType": "address",
          "name": "from",
          "type": "address"
        },
        {
          "indexed": true,
          "internalType": "address",
          "name": "to",
          "type": "address"
        },
        {
          "indexed": false,
          "internalType": "uint256",
          "name": "id",
          "type": "uint256"
        },
        {
          "indexed": false,
          "internalType": "uint256",
          "name": "value",
          "type": "uint256"
        }
      ],
      "name": "TransferSingle",
      "type": "event"
    },
    {
      "anonymous": false,
      "inputs": [
        {
          "indexed": false,
          "internalType": "string",
          "name": "value",
          "type": "string"
        },
        {
          "indexed": true,
          "internalType": "uint256",
          "name": "id",
          "type": "uint256"
        }
      ],
      "name": "URI",
      "type": "event"
    },
    {
      "inputs": [
        {
          "internalType": "uint256",
          "name": "_eventId",
          "type": "uint256"
        },
        {
          "internalType": "address[]",
          "name": "_whitelisted",
          "type": "address[]"
        }
      ],
      "name": "addToWhitelist",
      "outputs": [],
      "stateMutability": "nonpayable",
      "type": "function"
    },
    {
      "inputs": [
        {
          "internalType": "address",
          "name": "account",
          "type": "address"
        },
        {
          "internalType": "uint256",
          "name": "id",
          "type": "uint256"
        }
      ],
      "name": "balanceOf",
      "outputs": [
        {
          "internalType": "uint256",
          "name": "",
          "type": "uint256"
        }
      ],
      "stateMutability": "view",
      "type": "function"
    },
    {
      "inputs": [
        {
          "internalType": "address[]",
          "name": "accounts",
          "type": "address[]"
        },
        {
          "internalType": "uint256[]",
          "name": "ids",
          "type": "uint256[]"
        }
      ],
      "name": "balanceOfBatch",
      "outputs": [
        {
          "internalType": "uint256[]",
          "name": "",
          "type": "uint256[]"
        }
      ],
      "stateMutability": "view",
      "type": "function"
    },
    {
      "inputs": [
        {
          "internalType": "uint256",
          "name": "",
          "type": "uint256"
        },
        {
          "internalType": "address",
          "name": "",
          "type": "address"
        }
      ],
      "name": "bought",
      "outputs": [
        {
          "internalType": "bool",
          "name": "",
          "type": "bool"
        }
      ],
      "stateMutability": "view",
      "type": "function"
    },
    {
      "inputs": [
        {
          "internalType": "uint256",
          "name": "_id",
          "type": "uint256"
        },
        {
          "internalType": "address",
          "name": "_user",
          "type": "address"
        }
      ],
      "name": "claimTicket",
      "outputs": [],
      "stateMutability": "nonpayable",
      "type": "function"
    },
    {
      "inputs": [
        {
          "internalType": "uint256",
          "name": "_supply",
          "type": "uint256"
        },
        {
          "internalType": "string",
          "name": "_name",
          "type": "string"
        },
        {
          "internalType": "string",
          "name": "_description",
          "type": "string"
        },
        {
          "internalType": "string",
          "name": "_image",
          "type": "string"
        },
        {
          "internalType": "string",
          "name": "_location",
          "type": "string"
        },
        {
          "internalType": "address",
          "name": "_host",
          "type": "address"
        },
        {
          "internalType": "uint256",
          "name": "_eventDate",
          "type": "uint256"
        },
        {
          "internalType": "bool",
          "name": "_hasWhitelist",
          "type": "bool"
        },
        {
          "internalType": "string",
          "name": "_tokenURI",
          "type": "string"
        },
        {
          "internalType": "uint256",
          "name": "_price",
          "type": "uint256"
        },
        {
          "internalType": "string",
          "name": "_link",
          "type": "string"
        }
      ],
      "name": "createEvent",
      "outputs": [],
      "stateMutability": "nonpayable",
      "type": "function"
    },
    {
      "inputs": [
        {
          "internalType": "uint256",
          "name": "_id",
          "type": "uint256"
        },
        {
          "internalType": "address",
          "name": "user",
          "type": "address"
        }
      ],
      "name": "didUserBuy",
      "outputs": [
        {
          "internalType": "bool",
          "name": "",
          "type": "bool"
        }
      ],
      "stateMutability": "view",
      "type": "function"
    },
    {
      "inputs": [
        {
          "internalType": "uint256",
          "name": "",
          "type": "uint256"
        }
      ],
      "name": "eventOwner",
      "outputs": [
        {
          "internalType": "address",
          "name": "",
          "type": "address"
        }
      ],
      "stateMutability": "view",
      "type": "function"
    },
    {
      "inputs": [
        {
          "internalType": "uint256",
          "name": "id",
          "type": "uint256"
        }
      ],
      "name": "exists",
      "outputs": [
        {
          "internalType": "bool",
          "name": "",
          "type": "bool"
        }
      ],
      "stateMutability": "view",
      "type": "function"
    },
    {
      "inputs": [],
      "name": "getActiveEvents",
      "outputs": [
        {
          "components": [
            {
              "internalType": "uint256",
              "name": "id",
              "type": "uint256"
            },
            {
              "internalType": "uint256",
              "name": "supply",
              "type": "uint256"
            },
            {
              "internalType": "string",
              "name": "name",
              "type": "string"
            },
            {
              "internalType": "string",
              "name": "description",
              "type": "string"
            },
            {
              "internalType": "string",
              "name": "image",
              "type": "string"
            },
            {
              "internalType": "string",
              "name": "location",
              "type": "string"
            },
            {
              "internalType": "address",
              "name": "host",
              "type": "address"
            },
            {
              "internalType": "uint256",
              "name": "eventDate",
              "type": "uint256"
            },
            {
              "internalType": "bool",
              "name": "hasWhitelist",
              "type": "bool"
            },
            {
              "internalType": "uint256",
              "name": "price",
              "type": "uint256"
            },
            {
              "internalType": "address[]",
              "name": "whitelisted",
              "type": "address[]"
            },
            {
              "internalType": "string",
              "name": "link",
              "type": "string"
            }
          ],
          "internalType": "struct NFTicket1155.Event[]",
          "name": "",
          "type": "tuple[]"
        }
      ],
      "stateMutability": "view",
      "type": "function"
    },
    {
      "inputs": [
        {
          "internalType": "uint256",
          "name": "_eventId",
          "type": "uint256"
        }
      ],
      "name": "getEvent",
      "outputs": [
        {
          "components": [
            {
              "internalType": "uint256",
              "name": "id",
              "type": "uint256"
            },
            {
              "internalType": "uint256",
              "name": "supply",
              "type": "uint256"
            },
            {
              "internalType": "string",
              "name": "name",
              "type": "string"
            },
            {
              "internalType": "string",
              "name": "description",
              "type": "string"
            },
            {
              "internalType": "string",
              "name": "image",
              "type": "string"
            },
            {
              "internalType": "string",
              "name": "location",
              "type": "string"
            },
            {
              "internalType": "address",
              "name": "host",
              "type": "address"
            },
            {
              "internalType": "uint256",
              "name": "eventDate",
              "type": "uint256"
            },
            {
              "internalType": "bool",
              "name": "hasWhitelist",
              "type": "bool"
            },
            {
              "internalType": "uint256",
              "name": "price",
              "type": "uint256"
            },
            {
              "internalType": "address[]",
              "name": "whitelisted",
              "type": "address[]"
            },
            {
              "internalType": "string",
              "name": "link",
              "type": "string"
            }
          ],
          "internalType": "struct NFTicket1155.Event",
          "name": "",
          "type": "tuple"
        }
      ],
      "stateMutability": "view",
      "type": "function"
    },
    {
      "inputs": [
        {
          "internalType": "uint256",
          "name": "_id",
          "type": "uint256"
        }
      ],
      "name": "getEventOwner",
      "outputs": [
        {
          "internalType": "address",
          "name": "",
          "type": "address"
        }
      ],
      "stateMutability": "view",
      "type": "function"
    },
    {
      "inputs": [
        {
          "internalType": "address",
          "name": "_user",
          "type": "address"
        }
      ],
      "name": "getEventsByUser",
      "outputs": [
        {
          "components": [
            {
              "internalType": "uint256",
              "name": "id",
              "type": "uint256"
            },
            {
              "internalType": "uint256",
              "name": "supply",
              "type": "uint256"
            },
            {
              "internalType": "string",
              "name": "name",
              "type": "string"
            },
            {
              "internalType": "string",
              "name": "description",
              "type": "string"
            },
            {
              "internalType": "string",
              "name": "image",
              "type": "string"
            },
            {
              "internalType": "string",
              "name": "location",
              "type": "string"
            },
            {
              "internalType": "address",
              "name": "host",
              "type": "address"
            },
            {
              "internalType": "uint256",
              "name": "eventDate",
              "type": "uint256"
            },
            {
              "internalType": "bool",
              "name": "hasWhitelist",
              "type": "bool"
            },
            {
              "internalType": "uint256",
              "name": "price",
              "type": "uint256"
            },
            {
              "internalType": "address[]",
              "name": "whitelisted",
              "type": "address[]"
            },
            {
              "internalType": "string",
              "name": "link",
              "type": "string"
            }
          ],
          "internalType": "struct NFTicket1155.Event[]",
          "name": "",
          "type": "tuple[]"
        }
      ],
      "stateMutability": "view",
      "type": "function"
    },
    {
      "inputs": [
        {
          "internalType": "uint256",
          "name": "_id",
          "type": "uint256"
        },
        {
          "internalType": "address",
          "name": "_user",
          "type": "address"
        }
      ],
      "name": "getPassword",
      "outputs": [
        {
          "internalType": "bytes32",
          "name": "",
          "type": "bytes32"
        }
      ],
      "stateMutability": "view",
      "type": "function"
    },
    {
      "inputs": [
        {
          "internalType": "address",
          "name": "account",
          "type": "address"
        },
        {
          "internalType": "address",
          "name": "operator",
          "type": "address"
        }
      ],
      "name": "isApprovedForAll",
      "outputs": [
        {
          "internalType": "bool",
          "name": "",
          "type": "bool"
        }
      ],
      "stateMutability": "view",
      "type": "function"
    },
    {
      "inputs": [
        {
          "internalType": "uint256",
          "name": "id",
          "type": "uint256"
        }
      ],
      "name": "mint",
      "outputs": [],
      "stateMutability": "payable",
      "type": "function"
    },
    {
      "inputs": [
        {
          "internalType": "address",
          "name": "to",
          "type": "address"
        },
        {
          "internalType": "uint256[]",
          "name": "ids",
          "type": "uint256[]"
        },
        {
          "internalType": "uint256[]",
          "name": "amounts",
          "type": "uint256[]"
        },
        {
          "internalType": "bytes",
          "name": "data",
          "type": "bytes"
        }
      ],
      "name": "mintBatch",
      "outputs": [],
      "stateMutability": "nonpayable",
      "type": "function"
    },
    {
      "inputs": [],
      "name": "owner",
      "outputs": [
        {
          "internalType": "address",
          "name": "",
          "type": "address"
        }
      ],
      "stateMutability": "view",
      "type": "function"
    },
    {
      "inputs": [
        {
          "internalType": "uint256",
          "name": "_eventId",
          "type": "uint256"
        }
      ],
      "name": "payEventOwner",
      "outputs": [
        {
          "internalType": "bool",
          "name": "",
          "type": "bool"
        }
      ],
      "stateMutability": "nonpayable",
      "type": "function"
    },
    {
      "inputs": [],
      "name": "renounceOwnership",
      "outputs": [],
      "stateMutability": "nonpayable",
      "type": "function"
    },
    {
      "inputs": [
        {
          "internalType": "address",
          "name": "from",
          "type": "address"
        },
        {
          "internalType": "address",
          "name": "to",
          "type": "address"
        },
        {
          "internalType": "uint256[]",
          "name": "ids",
          "type": "uint256[]"
        },
        {
          "internalType": "uint256[]",
          "name": "amounts",
          "type": "uint256[]"
        },
        {
          "internalType": "bytes",
          "name": "data",
          "type": "bytes"
        }
      ],
      "name": "safeBatchTransferFrom",
      "outputs": [],
      "stateMutability": "nonpayable",
      "type": "function"
    },
    {
      "inputs": [
        {
          "internalType": "address",
          "name": "from",
          "type": "address"
        },
        {
          "internalType": "address",
          "name": "to",
          "type": "address"
        },
        {
          "internalType": "uint256",
          "name": "id",
          "type": "uint256"
        },
        {
          "internalType": "uint256",
          "name": "amount",
          "type": "uint256"
        },
        {
          "internalType": "bytes",
          "name": "data",
          "type": "bytes"
        }
      ],
      "name": "safeTransferFrom",
      "outputs": [],
      "stateMutability": "nonpayable",
      "type": "function"
    },
    {
      "inputs": [
        {
          "internalType": "address",
          "name": "operator",
          "type": "address"
        },
        {
          "internalType": "bool",
          "name": "approved",
          "type": "bool"
        }
      ],
      "name": "setApprovalForAll",
      "outputs": [],
      "stateMutability": "nonpayable",
      "type": "function"
    },
    {
      "inputs": [
        {
          "internalType": "uint256",
          "name": "_eventId",
          "type": "uint256"
        },
        {
          "internalType": "bytes32",
          "name": "_password",
          "type": "bytes32"
        }
      ],
      "name": "setPassword",
      "outputs": [],
      "stateMutability": "nonpayable",
      "type": "function"
    },
    {
      "inputs": [
        {
          "internalType": "bytes4",
          "name": "interfaceId",
          "type": "bytes4"
        }
      ],
      "name": "supportsInterface",
      "outputs": [
        {
          "internalType": "bool",
          "name": "",
          "type": "bool"
        }
      ],
      "stateMutability": "view",
      "type": "function"
    },
    {
      "inputs": [
        {
          "internalType": "uint256",
          "name": "id",
          "type": "uint256"
        }
      ],
      "name": "totalSupply",
      "outputs": [
        {
          "internalType": "uint256",
          "name": "",
          "type": "uint256"
        }
      ],
      "stateMutability": "view",
      "type": "function"
    },
    {
      "inputs": [
        {
          "internalType": "address",
          "name": "newOwner",
          "type": "address"
        }
      ],
      "name": "transferOwnership",
      "outputs": [],
      "stateMutability": "nonpayable",
      "type": "function"
    },
    {
      "inputs": [
        {
          "internalType": "uint256",
          "name": "id",
          "type": "uint256"
        }
      ],
      "name": "uri",
      "outputs": [
        {
          "internalType": "string",
          "name": "",
          "type": "string"
        }
      ],
      "stateMutability": "view",
      "type": "function"
    },
    {
      "inputs": [
        {
          "internalType": "uint256",
          "name": "_eventId",
          "type": "uint256"
        }
      ],
      "name": "voteOnComplaint",
      "outputs": [],
      "stateMutability": "nonpayable",
      "type": "function"
    },
    {
      "inputs": [
        {
          "internalType": "uint256",
          "name": "_eventId",
          "type": "uint256"
        }
      ],
      "name": "withdrawDeposit",
      "outputs": [],
      "stateMutability": "nonpayable",
      "type": "function"
    }
  ],
  "bytecode": "0x60806040523480156200001157600080fd5b506040805160208101909152600081526200002c816200003e565b50620000383362000057565b6200018c565b805162000053906002906020840190620000a9565b5050565b600380546001600160a01b038381166001600160a01b0319831681179093556040519116919082907f8be0079c531659141344cd1fd0a4f28419497f9722a3daafe3b4186f6b6457e090600090a35050565b828054620000b7906200014f565b90600052602060002090601f016020900481019282620000db576000855562000126565b82601f10620000f657805160ff191683800117855562000126565b8280016001018555821562000126579182015b828111156200012657825182559160200191906001019062000109565b506200013492915062000138565b5090565b5b8082111562000134576000815560010162000139565b600181811c908216806200016457607f821691505b602082108114156200018657634e487b7160e01b600052602260045260246000fd5b50919050565b61401c806200019c6000396000f3fe6080604052600436106101cc5760003560e01c80636d1884e0116100f7578063b4d59d2711610095578063f2295b1d11610064578063f2295b1d14610618578063f242432a14610638578063f2fde38b14610658578063fe210f691461067857600080fd5b8063b4d59d271461054c578063bd85b03914610582578063c219d5e9146105af578063e985e9c5146105cf57600080fd5b80638da5cb5b116100d15780638da5cb5b146104a1578063a0712d68146104d3578063a22cb465146104e6578063a52901b51461050657600080fd5b80636d1884e01461043f578063715018a61461046c5780637b6b3f181461048157600080fd5b80632eb2c2d61161016f5780634e1273f41161013e5780634e1273f4146103a35780634e50c926146103d05780634f558e79146103f057806365e07abe1461041f57600080fd5b80632eb2c2d6146102fe57806330cd52821461031e57806333289a46146103615780633612280f1461038157600080fd5b80630e89341c116101ab5780630e89341c1461025657806310240899146102835780631f7fdffa146102a35780632c9b5e96146102c357600080fd5b8062fdd58e146101d157806301ffc9a71461020457806307556b8314610234575b600080fd5b3480156101dd57600080fd5b506101f16101ec36600461366e565b6106ae565b6040519081526020015b60405180910390f35b34801561021057600080fd5b5061022461021f3660046136f7565b610745565b60405190151581526020016101fb565b34801561024057600080fd5b5061025461024f366004613747565b610797565b005b34801561026257600080fd5b5061027661027136600461372f565b61089c565b6040516101fb9190613bfe565b34801561028f57600080fd5b5061025461029e36600461372f565b61093e565b3480156102af57600080fd5b506102546102be3660046135b1565b6109f4565b3480156102cf57600080fd5b506102246102de366004613747565b600b60209081526000928352604080842090915290825290205460ff1681565b34801561030a57600080fd5b506102546103193660046134aa565b610a30565b34801561032a57600080fd5b506101f1610339366004613747565b60009182526009602090815260408084206001600160a01b0393909316845291905290205490565b34801561036d57600080fd5b5061025461037c36600461372f565b610ac7565b34801561038d57600080fd5b50610396610c33565b6040516101fb9190613b5c565b3480156103af57600080fd5b506103c36103be366004613697565b611109565b6040516101fb9190613bbd565b3480156103dc57600080fd5b506102546103eb3660046137c4565b61126a565b3480156103fc57600080fd5b5061022461040b36600461372f565b600090815260046020526040902054151590565b34801561042b57600080fd5b5061039661043a366004613457565b6114b0565b34801561044b57600080fd5b5061045f61045a36600461372f565b611979565b6040516101fb9190613ddd565b34801561047857600080fd5b50610254611d3a565b34801561048d57600080fd5b5061025461049c3660046137a3565b611d70565b3480156104ad57600080fd5b506003546001600160a01b03165b6040516001600160a01b0390911681526020016101fb565b6102546104e136600461372f565b611dce565b3480156104f257600080fd5b50610254610501366004613645565b61206e565b34801561051257600080fd5b50610224610521366004613747565b6000918252600b602090815260408084206001600160a01b0393909316845291905290205460ff1690565b34801561055857600080fd5b506104bb61056736600461372f565b6005602052600090815260409020546001600160a01b031681565b34801561058e57600080fd5b506101f161059d36600461372f565b60009081526004602052604090205490565b3480156105bb57600080fd5b506102246105ca36600461372f565b61207d565b3480156105db57600080fd5b506102246105ea366004613478565b6001600160a01b03918216600090815260016020908152604080832093909416825291909152205460ff1690565b34801561062457600080fd5b50610254610633366004613769565b6121d9565b34801561064457600080fd5b5061025461065336600461354f565b61233e565b34801561066457600080fd5b50610254610673366004613457565b6123c5565b34801561068457600080fd5b506104bb61069336600461372f565b6000908152600560205260409020546001600160a01b031690565b60006001600160a01b03831661071f5760405162461bcd60e51b815260206004820152602b60248201527f455243313135353a2062616c616e636520717565727920666f7220746865207a60448201526a65726f206164647265737360a81b60648201526084015b60405180910390fd5b506000908152602081815260408083206001600160a01b03949094168352929052205490565b60006001600160e01b03198216636cdb3d1360e11b148061077657506001600160e01b031982166303a24d0760e21b145b8061079157506301ffc9a760e01b6001600160e01b03198316145b92915050565b60008281526005602052604090205482906001600160a01b031633146107ff5760405162461bcd60e51b815260206004820152601d60248201527f63616c6c6572206973206e6f7420746865206576656e74206f776e65720000006044820152606401610716565b6000838152600a602090815260408083206001600160a01b038616845290915290205460ff161561086b5760405162461bcd60e51b81526020600482015260166024820152751d1a58dad95d08185b1c9958591e4818db185a5b595960521b6044820152606401610716565b506000918252600a602090815260408084206001600160a01b0390931684529190529020805460ff19166001179055565b6000818152600c602052604090208054606091906108b990613e81565b80601f01602080910402602001604051908101604052809291908181526020018280546108e590613e81565b80156109325780601f1061090757610100808354040283529160200191610932565b820191906000526020600020905b81548152906001019060200180831161091557829003601f168201915b50505050509050919050565b6000818152600b60209081526040808320338452909152902054819060ff16151560011461097e5760405162461bcd60e51b815260040161071690613d1d565b6000828152600f6020526040812080546001929061099d908490613e13565b9091555050600082815260076020908152604080832054600f9092528220546109c69190613e2b565b6109d1906064613e4b565b9050605a81106109ef576109ef33846109ea33876106ae565b612460565b505050565b6003546001600160a01b03163314610a1e5760405162461bcd60e51b815260040161071690613ce8565b610a2a848484846125f5565b50505050565b6001600160a01b038516331480610a4c5750610a4c85336105ea565b610ab35760405162461bcd60e51b815260206004820152603260248201527f455243313135353a207472616e736665722063616c6c6572206973206e6f74206044820152711bdddb995c881b9bdc88185c1c1c9bdd995960721b6064820152608401610716565b610ac0858585858561276b565b5050505050565b6000818152600b60209081526040808320338452909152902054819060ff161515600114610b075760405162461bcd60e51b815260040161071690613d1d565b6000828152600e6020908152604080832033845290915290205480610b6e5760405162461bcd60e51b815260206004820152601e60248201527f616d6f756e74206d6179206e6f74206265207a65726f206f72206c65737300006044820152606401610716565b80471015610bb55760405162461bcd60e51b8152602060048201526014602482015273636f6e7472616374206c61636b732066756e647360601b6044820152606401610716565b6000838152600e6020908152604080832033808552925280832083905551909183156108fc02918491818181858888f19350505050158015610bfb573d6000803e3d6000fd5b50600083815260066020908152604080832060090154600d9092528220805491929091610c29908490613e6a565b9091555050505050565b6060600060015b6010548111610c7c57600081815260066020526040902060070154421015610c6a5781610c6681613ee8565b9250505b80610c7481613ee8565b915050610c3a565b506000816001600160401b03811115610ca557634e487b7160e01b600052604160045260246000fd5b604051908082528060200260200182016040528015610cde57816020015b610ccb613186565b815260200190600190039081610cc35790505b509050600060015b6010548111611100576000818152600660205260409020600701544210156110ee5760066000828152602001908152602001600020604051806101800160405290816000820154815260200160018201548152602001600282018054610d4b90613e81565b80601f0160208091040260200160405190810160405280929190818152602001828054610d7790613e81565b8015610dc45780601f10610d9957610100808354040283529160200191610dc4565b820191906000526020600020905b815481529060010190602001808311610da757829003601f168201915b50505050508152602001600382018054610ddd90613e81565b80601f0160208091040260200160405190810160405280929190818152602001828054610e0990613e81565b8015610e565780601f10610e2b57610100808354040283529160200191610e56565b820191906000526020600020905b815481529060010190602001808311610e3957829003601f168201915b50505050508152602001600482018054610e6f90613e81565b80601f0160208091040260200160405190810160405280929190818152602001828054610e9b90613e81565b8015610ee85780601f10610ebd57610100808354040283529160200191610ee8565b820191906000526020600020905b815481529060010190602001808311610ecb57829003601f168201915b50505050508152602001600582018054610f0190613e81565b80601f0160208091040260200160405190810160405280929190818152602001828054610f2d90613e81565b8015610f7a5780601f10610f4f57610100808354040283529160200191610f7a565b820191906000526020600020905b815481529060010190602001808311610f5d57829003601f168201915b505050918352505060068201546001600160a01b03166020808301919091526007830154604080840191909152600884015460ff161515606084015260098401546080840152600a8401805482518185028101850190935280835260a090940193919290919083018282801561101957602002820191906000526020600020905b81546001600160a01b03168152600190910190602001808311610ffb575b50505050508152602001600b8201805461103290613e81565b80601f016020809104026020016040519081016040528092919081815260200182805461105e90613e81565b80156110ab5780601f10611080576101008083540402835291602001916110ab565b820191906000526020600020905b81548152906001019060200180831161108e57829003601f168201915b5050505050815250508383815181106110d457634e487b7160e01b600052603260045260246000fd5b602002602001018190525081806110ea90613ee8565b9250505b806110f881613ee8565b915050610ce6565b50909392505050565b6060815183511461116e5760405162461bcd60e51b815260206004820152602960248201527f455243313135353a206163636f756e747320616e6420696473206c656e677468604482015268040dad2e6dac2e8c6d60bb1b6064820152608401610716565b600083516001600160401b0381111561119757634e487b7160e01b600052604160045260246000fd5b6040519080825280602002602001820160405280156111c0578160200160208202803683370190505b50905060005b8451811015611262576112278582815181106111f257634e487b7160e01b600052603260045260246000fd5b602002602001015185838151811061121a57634e487b7160e01b600052603260045260246000fd5b60200260200101516106ae565b82828151811061124757634e487b7160e01b600052603260045260246000fd5b602090810291909101015261125b81613ee8565b90506111c6565b509392505050565b60016010600082825461127d9190613e13565b90915550504285116112d15760405162461bcd60e51b815260206004820152601f60248201527f6576656e74206d7573742068617070656e20696e2074686520667574757265006044820152606401610716565b606060405180610180016040528060105481526020018d81526020018c81526020018b81526020018a8152602001898152602001886001600160a01b03168152602001878152602001861515815260200184815260200182815260200183815250600660006010548152602001908152602001600020600082015181600001556020820151816001015560408201518160020190805190602001906113779291906131f2565b50606082015180516113939160038401916020909101906131f2565b50608082015180516113af9160048401916020909101906131f2565b5060a082015180516113cb9160058401916020909101906131f2565b5060c08201516006820180546001600160a01b0319166001600160a01b0390921691909117905560e0820151600782015561010082015160088201805460ff19169115159190911790556101208201516009820155610140820151805161143c91600a840191602090910190613276565b50610160820151805161145991600b8401916020909101906131f2565b50506010546000908152600c602090815260409091208651611480935090918701906131f2565b5050601054600090815260056020526040902080546001600160a01b031916331790555050505050505050505050565b6060600060015b60105481116114f25760006114cc85836106ae565b11156114e057816114dc81613ee8565b9250505b806114ea81613ee8565b9150506114b7565b506000816001600160401b0381111561151b57634e487b7160e01b600052604160045260246000fd5b60405190808252806020026020018201604052801561155457816020015b611541613186565b8152602001906001900390816115395790505b509050600060015b601054811161196f57600061157187836106ae565b111561195d57600660008281526020019081526020016000206040518061018001604052908160008201548152602001600182015481526020016002820180546115ba90613e81565b80601f01602080910402602001604051908101604052809291908181526020018280546115e690613e81565b80156116335780601f1061160857610100808354040283529160200191611633565b820191906000526020600020905b81548152906001019060200180831161161657829003601f168201915b5050505050815260200160038201805461164c90613e81565b80601f016020809104026020016040519081016040528092919081815260200182805461167890613e81565b80156116c55780601f1061169a576101008083540402835291602001916116c5565b820191906000526020600020905b8154815290600101906020018083116116a857829003601f168201915b505050505081526020016004820180546116de90613e81565b80601f016020809104026020016040519081016040528092919081815260200182805461170a90613e81565b80156117575780601f1061172c57610100808354040283529160200191611757565b820191906000526020600020905b81548152906001019060200180831161173a57829003601f168201915b5050505050815260200160058201805461177090613e81565b80601f016020809104026020016040519081016040528092919081815260200182805461179c90613e81565b80156117e95780601f106117be576101008083540402835291602001916117e9565b820191906000526020600020905b8154815290600101906020018083116117cc57829003601f168201915b505050918352505060068201546001600160a01b03166020808301919091526007830154604080840191909152600884015460ff161515606084015260098401546080840152600a8401805482518185028101850190935280835260a090940193919290919083018282801561188857602002820191906000526020600020905b81546001600160a01b0316815260019091019060200180831161186a575b50505050508152602001600b820180546118a190613e81565b80601f01602080910402602001604051908101604052809291908181526020018280546118cd90613e81565b801561191a5780601f106118ef5761010080835404028352916020019161191a565b820191906000526020600020905b8154815290600101906020018083116118fd57829003601f168201915b50505050508152505083838151811061194357634e487b7160e01b600052603260045260246000fd5b6020026020010181905250818061195990613ee8565b9250505b8061196781613ee8565b91505061155c565b5090949350505050565b611981613186565b6000600660008481526020019081526020016000209050806040518061018001604052908160008201548152602001600182015481526020016002820180546119c990613e81565b80601f01602080910402602001604051908101604052809291908181526020018280546119f590613e81565b8015611a425780601f10611a1757610100808354040283529160200191611a42565b820191906000526020600020905b815481529060010190602001808311611a2557829003601f168201915b50505050508152602001600382018054611a5b90613e81565b80601f0160208091040260200160405190810160405280929190818152602001828054611a8790613e81565b8015611ad45780601f10611aa957610100808354040283529160200191611ad4565b820191906000526020600020905b815481529060010190602001808311611ab757829003601f168201915b50505050508152602001600482018054611aed90613e81565b80601f0160208091040260200160405190810160405280929190818152602001828054611b1990613e81565b8015611b665780601f10611b3b57610100808354040283529160200191611b66565b820191906000526020600020905b815481529060010190602001808311611b4957829003601f168201915b50505050508152602001600582018054611b7f90613e81565b80601f0160208091040260200160405190810160405280929190818152602001828054611bab90613e81565b8015611bf85780601f10611bcd57610100808354040283529160200191611bf8565b820191906000526020600020905b815481529060010190602001808311611bdb57829003601f168201915b505050918352505060068201546001600160a01b03166020808301919091526007830154604080840191909152600884015460ff161515606084015260098401546080840152600a8401805482518185028101850190935280835260a0909401939192909190830182828015611c9757602002820191906000526020600020905b81546001600160a01b03168152600190910190602001808311611c79575b50505050508152602001600b82018054611cb090613e81565b80601f0160208091040260200160405190810160405280929190818152602001828054611cdc90613e81565b8015611d295780601f10611cfe57610100808354040283529160200191611d29565b820191906000526020600020905b815481529060010190602001808311611d0c57829003601f168201915b505050505081525050915050919050565b6003546001600160a01b03163314611d645760405162461bcd60e51b815260040161071690613ce8565b611d6e6000612931565b565b6000828152600b60209081526040808320338452909152902054829060ff161515600114611db05760405162461bcd60e51b815260040161071690613d1d565b50600091825260096020908152604080842033855290915290912055565b6000818152600b60209081526040808320338452909152902054819060ff1615611e3a5760405162461bcd60e51b815260206004820152601e60248201527f63616c6c657220616c7265616479206d696e7465642061207469636b657400006044820152606401610716565b60008281526006602052604090206007015482904210611e8f5760405162461bcd60e51b815260206004820152601060248201526f195d995b9d081a185cc81c185cdcd95960821b6044820152606401610716565b6000838152600660209081526040808320600181015460049093529220541115611efb5760405162461bcd60e51b815260206004820152601a60248201527f616c6c207469636b6574732068617665206265656e20736f6c640000000000006044820152606401610716565b600881015460ff1615611f8057600084815260086020908152604080832033845290915290205460ff161515600114611f805760405162461bcd60e51b815260206004820152602160248201527f796f7520617265206e6f7420696e766974656420746f2074686973206576656e6044820152601d60fa1b6064820152608401610716565b80600901543414611fca5760405162461bcd60e51b81526020600482015260146024820152731a5b98dbdc9c9958dd081c1c9a58d9481cd95b9d60621b6044820152606401610716565b6000848152600d602052604081208054349290611fe8908490613e13565b90915550506000848152600b6020908152604080832033808552908352818420805460ff1916600190811790915588855260078452828520805480830182559086528486200180546001600160a01b031916831790556009860154898652600e85528386208387528552838620558251938401909252928252610a2a9291879190612983565b612079338383612a63565b5050565b6003546000906001600160a01b031633146120aa5760405162461bcd60e51b815260040161071690613ce8565b6000828152600660205260409020600781015442906120cc9062093a80613e13565b106121195760405162461bcd60e51b815260206004820181905260248201527f64616d61676520636c61696d20706572696f64206e6f74206f766572207965746044820152606401610716565b6000838152600d6020908152604080832054600590925280832054905191926001600160a01b0390911691829084908381818185875af1925050503d8060008114612180576040519150601f19603f3d011682016040523d82523d6000602084013e612185565b606091505b50509050806121cb5760405162461bcd60e51b81526020600482015260126024820152711d1c985b9cd858dd1a5bdb8819985a5b195960721b6044820152606401610716565b60019450505050505b919050565b60008281526005602052604090205482906001600160a01b031633146122415760405162461bcd60e51b815260206004820152601d60248201527f63616c6c6572206973206e6f7420746865206576656e74206f776e65720000006044820152606401610716565b6000838152600660205260408120905b8351811015610ac057600085815260086020526040812085516001929087908590811061228e57634e487b7160e01b600052603260045260246000fd5b60200260200101516001600160a01b03166001600160a01b0316815260200190815260200160002060006101000a81548160ff02191690831515021790555081600a018482815181106122f157634e487b7160e01b600052603260045260246000fd5b60209081029190910181015182546001810184556000938452919092200180546001600160a01b0319166001600160a01b039092169190911790558061233681613ee8565b915050612251565b6001600160a01b03851633148061235a575061235a85336105ea565b6123b85760405162461bcd60e51b815260206004820152602960248201527f455243313135353a2063616c6c6572206973206e6f74206f776e6572206e6f7260448201526808185c1c1c9bdd995960ba1b6064820152608401610716565b610ac08585858585612b44565b6003546001600160a01b031633146123ef5760405162461bcd60e51b815260040161071690613ce8565b6001600160a01b0381166124545760405162461bcd60e51b815260206004820152602660248201527f4f776e61626c653a206e6577206f776e657220697320746865207a65726f206160448201526564647265737360d01b6064820152608401610716565b61245d81612931565b50565b6001600160a01b0383166124c25760405162461bcd60e51b815260206004820152602360248201527f455243313135353a206275726e2066726f6d20746865207a65726f206164647260448201526265737360e81b6064820152608401610716565b3360006124ce84612c7c565b905060006124db84612c7c565b90506124fb83876000858560405180602001604052806000815250612cd5565b6000858152602081815260408083206001600160a01b038a168452909152902054848110156125785760405162461bcd60e51b8152602060048201526024808201527f455243313135353a206275726e20616d6f756e7420657863656564732062616c604482015263616e636560e01b6064820152608401610716565b6000868152602081815260408083206001600160a01b038b81168086529184528285208a8703905582518b81529384018a90529092908816917fc3d58168c5ae7397731d063d5bbf3d657854427343f4c083240f7aacaa2d0f62910160405180910390a46040805160208101909152600090525b50505050505050565b6001600160a01b03841661261b5760405162461bcd60e51b815260040161071690613d9c565b815183511461263c5760405162461bcd60e51b815260040161071690613d54565b3361264c81600087878787612cd5565b60005b84518110156127035783818151811061267857634e487b7160e01b600052603260045260246000fd5b60200260200101516000808784815181106126a357634e487b7160e01b600052603260045260246000fd5b602002602001015181526020019081526020016000206000886001600160a01b03166001600160a01b0316815260200190815260200160002060008282546126eb9190613e13565b909155508190506126fb81613ee8565b91505061264f565b50846001600160a01b031660006001600160a01b0316826001600160a01b03167f4a39dc06d4c0dbc64b70af90fd698a233a518aa5d07e595d983b8c0526c8f7fb8787604051612754929190613bd0565b60405180910390a4610ac081600087878787612da0565b815183511461278c5760405162461bcd60e51b815260040161071690613d54565b6001600160a01b0384166127b25760405162461bcd60e51b815260040161071690613c59565b336127c1818787878787612cd5565b60005b84518110156128c35760008582815181106127ef57634e487b7160e01b600052603260045260246000fd5b60200260200101519050600085838151811061281b57634e487b7160e01b600052603260045260246000fd5b602090810291909101810151600084815280835260408082206001600160a01b038e16835290935291909120549091508181101561286b5760405162461bcd60e51b815260040161071690613c9e565b6000838152602081815260408083206001600160a01b038e8116855292528083208585039055908b168252812080548492906128a8908490613e13565b92505081905550505050806128bc90613ee8565b90506127c4565b50846001600160a01b0316866001600160a01b0316826001600160a01b03167f4a39dc06d4c0dbc64b70af90fd698a233a518aa5d07e595d983b8c0526c8f7fb8787604051612913929190613bd0565b60405180910390a4612929818787878787612da0565b505050505050565b600380546001600160a01b038381166001600160a01b0319831681179093556040519116919082907f8be0079c531659141344cd1fd0a4f28419497f9722a3daafe3b4186f6b6457e090600090a35050565b6001600160a01b0384166129a95760405162461bcd60e51b815260040161071690613d9c565b3360006129b585612c7c565b905060006129c285612c7c565b90506129d383600089858589612cd5565b6000868152602081815260408083206001600160a01b038b16845290915281208054879290612a03908490613e13565b909155505060408051878152602081018790526001600160a01b03808a1692600092918716917fc3d58168c5ae7397731d063d5bbf3d657854427343f4c083240f7aacaa2d0f62910160405180910390a46125ec83600089898989612f0b565b816001600160a01b0316836001600160a01b03161415612ad75760405162461bcd60e51b815260206004820152602960248201527f455243313135353a2073657474696e6720617070726f76616c20737461747573604482015268103337b91039b2b63360b91b6064820152608401610716565b6001600160a01b03838116600081815260016020908152604080832094871680845294825291829020805460ff191686151590811790915591519182527f17307eab39ab6107e8899845ad3d59bd9653f200f220920489ca2b5937696c31910160405180910390a3505050565b6001600160a01b038416612b6a5760405162461bcd60e51b815260040161071690613c59565b336000612b7685612c7c565b90506000612b8385612c7c565b9050612b93838989858589612cd5565b6000868152602081815260408083206001600160a01b038c16845290915290205485811015612bd45760405162461bcd60e51b815260040161071690613c9e565b6000878152602081815260408083206001600160a01b038d8116855292528083208985039055908a16825281208054889290612c11908490613e13565b909155505060408051888152602081018890526001600160a01b03808b16928c821692918816917fc3d58168c5ae7397731d063d5bbf3d657854427343f4c083240f7aacaa2d0f62910160405180910390a4612c71848a8a8a8a8a612f0b565b505050505050505050565b60408051600180825281830190925260609160009190602080830190803683370190505090508281600081518110612cc457634e487b7160e01b600052603260045260246000fd5b602090810291909101015292915050565b60005b8351811015612d9157600060066000868481518110612d0757634e487b7160e01b600052603260045260246000fd5b60200260200101518152602001908152602001600020905042816007015411612d7e5760405162461bcd60e51b815260206004820152602360248201527f43616e6e6f74207472616e73666572206166746572206576656e7420737461726044820152621d195960ea1b6064820152608401610716565b5080612d8981613ee8565b915050612cd8565b50612929868686868686612fd5565b6001600160a01b0384163b156129295760405163bc197c8160e01b81526001600160a01b0385169063bc197c8190612de49089908990889088908890600401613ab9565b602060405180830381600087803b158015612dfe57600080fd5b505af1925050508015612e2e575060408051601f3d908101601f19168201909252612e2b91810190613713565b60015b612edb57612e3a613f2f565b806308c379a01415612e745750612e4f613f47565b80612e5a5750612e76565b8060405162461bcd60e51b81526004016107169190613bfe565b505b60405162461bcd60e51b815260206004820152603460248201527f455243313135353a207472616e7366657220746f206e6f6e20455243313135356044820152732932b1b2b4bb32b91034b6b83632b6b2b73a32b960611b6064820152608401610716565b6001600160e01b0319811663bc197c8160e01b146125ec5760405162461bcd60e51b815260040161071690613c11565b6001600160a01b0384163b156129295760405163f23a6e6160e01b81526001600160a01b0385169063f23a6e6190612f4f9089908990889088908890600401613b17565b602060405180830381600087803b158015612f6957600080fd5b505af1925050508015612f99575060408051601f3d908101601f19168201909252612f9691810190613713565b60015b612fa557612e3a613f2f565b6001600160e01b0319811663f23a6e6160e01b146125ec5760405162461bcd60e51b815260040161071690613c11565b6001600160a01b0385166130785760005b83518110156130765782818151811061300f57634e487b7160e01b600052603260045260246000fd5b60200260200101516004600086848151811061303b57634e487b7160e01b600052603260045260246000fd5b6020026020010151815260200190815260200160002060008282546130609190613e13565b9091555061306f905081613ee8565b9050612fe6565b505b6001600160a01b0384166129295760005b83518110156125ec5760008482815181106130b457634e487b7160e01b600052603260045260246000fd5b6020026020010151905060008483815181106130e057634e487b7160e01b600052603260045260246000fd5b60200260200101519050600060046000848152602001908152602001600020549050818110156131635760405162461bcd60e51b815260206004820152602860248201527f455243313135353a206275726e20616d6f756e74206578636565647320746f74604482015267616c537570706c7960c01b6064820152608401610716565b6000928352600460205260409092209103905561317f81613ee8565b9050613089565b60405180610180016040528060008152602001600081526020016060815260200160608152602001606081526020016060815260200160006001600160a01b03168152602001600081526020016000151581526020016000815260200160608152602001606081525090565b8280546131fe90613e81565b90600052602060002090601f0160209004810192826132205760008555613266565b82601f1061323957805160ff1916838001178555613266565b82800160010185558215613266579182015b8281111561326657825182559160200191906001019061324b565b506132729291506132cb565b5090565b828054828255906000526020600020908101928215613266579160200282015b8281111561326657825182546001600160a01b0319166001600160a01b03909116178255602090920191600190910190613296565b5b8082111561327257600081556001016132cc565b80356001600160a01b03811681146121d457600080fd5b600082601f830112613307578081fd5b8135602061331482613df0565b6040516133218282613ebc565b8381528281019150858301600585901b87018401881015613340578586fd5b855b8581101561336557613353826132e0565b84529284019290840190600101613342565b5090979650505050505050565b600082601f830112613382578081fd5b8135602061338f82613df0565b60405161339c8282613ebc565b8381528281019150858301600585901b870184018810156133bb578586fd5b855b85811015613365578135845292840192908401906001016133bd565b803580151581146121d457600080fd5b600082601f8301126133f9578081fd5b81356001600160401b0381111561341257613412613f19565b604051613429601f8301601f191660200182613ebc565b81815284602083860101111561343d578283fd5b816020850160208301379081016020019190915292915050565b600060208284031215613468578081fd5b613471826132e0565b9392505050565b6000806040838503121561348a578081fd5b613493836132e0565b91506134a1602084016132e0565b90509250929050565b600080600080600060a086880312156134c1578081fd5b6134ca866132e0565b94506134d8602087016132e0565b935060408601356001600160401b03808211156134f3578283fd5b6134ff89838a01613372565b94506060880135915080821115613514578283fd5b61352089838a01613372565b93506080880135915080821115613535578283fd5b50613542888289016133e9565b9150509295509295909350565b600080600080600060a08688031215613566578081fd5b61356f866132e0565b945061357d602087016132e0565b9350604086013592506060860135915060808601356001600160401b038111156135a5578182fd5b613542888289016133e9565b600080600080608085870312156135c6578384fd5b6135cf856132e0565b935060208501356001600160401b03808211156135ea578485fd5b6135f688838901613372565b9450604087013591508082111561360b578384fd5b61361788838901613372565b9350606087013591508082111561362c578283fd5b50613639878288016133e9565b91505092959194509250565b60008060408385031215613657578182fd5b613660836132e0565b91506134a1602084016133d9565b60008060408385031215613680578182fd5b613689836132e0565b946020939093013593505050565b600080604083850312156136a9578182fd5b82356001600160401b03808211156136bf578384fd5b6136cb868387016132f7565b935060208501359150808211156136e0578283fd5b506136ed85828601613372565b9150509250929050565b600060208284031215613708578081fd5b813561347181613fd0565b600060208284031215613724578081fd5b815161347181613fd0565b600060208284031215613740578081fd5b5035919050565b60008060408385031215613759578182fd5b823591506134a1602084016132e0565b6000806040838503121561377b578182fd5b8235915060208301356001600160401b03811115613797578182fd5b6136ed858286016132f7565b600080604083850312156137b5578182fd5b50508035926020909101359150565b60008060008060008060008060008060006101608c8e0312156137e5578889fd5b8b359a506001600160401b038060208e0135111561380157898afd5b6138118e60208f01358f016133e9565b9a508060408e0135111561382357898afd5b6138338e60408f01358f016133e9565b99508060608e01351115613845578687fd5b6138558e60608f01358f016133e9565b98508060808e01351115613867578687fd5b6138778e60808f01358f016133e9565b975061388560a08e016132e0565b965060c08d0135955061389a60e08e016133d9565b9450806101008e013511156138ad578384fd5b6138be8e6101008f01358f016133e9565b93506101208d01359250806101408e013511156138d9578182fd5b506138eb8d6101408e01358e016133e9565b90509295989b509295989b9093969950565b6000815180845260208085019450808401835b838110156139355781516001600160a01b031687529582019590820190600101613910565b509495945050505050565b6000815180845260208085019450808401835b8381101561393557815187529582019590820190600101613953565b60008151808452815b8181101561399457602081850181015186830182015201613978565b818111156139a55782602083870101525b50601f01601f19169290920160200192915050565b6000610180825184526020830151602085015260408301518160408601526139e48286018261396f565b915050606083015184820360608601526139fe828261396f565b91505060808301518482036080860152613a18828261396f565b91505060a083015184820360a0860152613a32828261396f565b91505060c0830151613a4f60c08601826001600160a01b03169052565b5060e083015160e085015261010080840151613a6e8287018215159052565b505061012083810151908501526101408084015185830382870152613a9383826138fd565b925050506101608084015185830382870152613aaf838261396f565b9695505050505050565b6001600160a01b0386811682528516602082015260a060408201819052600090613ae590830186613940565b8281036060840152613af78186613940565b90508281036080840152613b0b818561396f565b98975050505050505050565b6001600160a01b03868116825285166020820152604081018490526060810183905260a060808201819052600090613b519083018461396f565b979650505050505050565b6000602080830181845280855180835260408601915060408160051b8701019250838701855b82811015613bb057603f19888603018452613b9e8583516139ba565b94509285019290850190600101613b82565b5092979650505050505050565b6020815260006134716020830184613940565b604081526000613be36040830185613940565b8281036020840152613bf58185613940565b95945050505050565b602081526000613471602083018461396f565b60208082526028908201527f455243313135353a204552433131353552656365697665722072656a656374656040820152676420746f6b656e7360c01b606082015260800190565b60208082526025908201527f455243313135353a207472616e7366657220746f20746865207a65726f206164604082015264647265737360d81b606082015260800190565b6020808252602a908201527f455243313135353a20696e73756666696369656e742062616c616e636520666f60408201526939103a3930b739b332b960b11b606082015260800190565b6020808252818101527f4f776e61626c653a2063616c6c6572206973206e6f7420746865206f776e6572604082015260600190565b6020808252601d908201527f796f7520646964206e6f7420617474656e642074686973206576656e74000000604082015260600190565b60208082526028908201527f455243313135353a2069647320616e6420616d6f756e7473206c656e677468206040820152670dad2e6dac2e8c6d60c31b606082015260800190565b60208082526021908201527f455243313135353a206d696e7420746f20746865207a65726f206164647265736040820152607360f81b606082015260800190565b60208152600061347160208301846139ba565b60006001600160401b03821115613e0957613e09613f19565b5060051b60200190565b60008219821115613e2657613e26613f03565b500190565b600082613e4657634e487b7160e01b81526012600452602481fd5b500490565b6000816000190483118215151615613e6557613e65613f03565b500290565b600082821015613e7c57613e7c613f03565b500390565b600181811c90821680613e9557607f821691505b60208210811415613eb657634e487b7160e01b600052602260045260246000fd5b50919050565b601f8201601f191681016001600160401b0381118282101715613ee157613ee1613f19565b6040525050565b6000600019821415613efc57613efc613f03565b5060010190565b634e487b7160e01b600052601160045260246000fd5b634e487b7160e01b600052604160045260246000fd5b600060033d1115613f4457600481823e5160e01c5b90565b600060443d1015613f555790565b6040516003193d81016004833e81513d6001600160401b038160248401118184111715613f8457505050505090565b8285019150815181811115613f9c5750505050505090565b843d8701016020828501011115613fb65750505050505090565b613fc560208286010187613ebc565b509095945050505050565b6001600160e01b03198116811461245d57600080fdfea264697066735822122047595d2946ae5f702e4f89e1eb3be0d5252ef8999d349737d18cba74ab31da5164736f6c63430008040033",
  "linkReferences": {},
  "deployedLinkReferences": {}
}