{
  "_format": "hh-sol-artifact-1",
  "contractName": "NFTicket1155",
  "sourceName": "hardhat/contracts/NFTicket1155.sol",
  "abi": [
    {
      "inputs": [],
      "stateMutability": "nonpayable",
      "type": "constructor"
    },
    {
      "anonymous": false,
      "inputs": [
        {
          "indexed": true,
          "internalType": "address",
          "name": "account",
          "type": "address"
        },
        {
          "indexed": true,
          "internalType": "address",
          "name": "operator",
          "type": "address"
        },
        {
          "indexed": false,
          "internalType": "bool",
          "name": "approved",
          "type": "bool"
        }
      ],
      "name": "ApprovalForAll",
      "type": "event"
    },
    {
      "anonymous": false,
      "inputs": [
        {
          "indexed": true,
          "internalType": "address",
          "name": "previousOwner",
          "type": "address"
        },
        {
          "indexed": true,
          "internalType": "address",
          "name": "newOwner",
          "type": "address"
        }
      ],
      "name": "OwnershipTransferred",
      "type": "event"
    },
    {
      "anonymous": false,
      "inputs": [
        {
          "indexed": true,
          "internalType": "address",
          "name": "operator",
          "type": "address"
        },
        {
          "indexed": true,
          "internalType": "address",
          "name": "from",
          "type": "address"
        },
        {
          "indexed": true,
          "internalType": "address",
          "name": "to",
          "type": "address"
        },
        {
          "indexed": false,
          "internalType": "uint256[]",
          "name": "ids",
          "type": "uint256[]"
        },
        {
          "indexed": false,
          "internalType": "uint256[]",
          "name": "values",
          "type": "uint256[]"
        }
      ],
      "name": "TransferBatch",
      "type": "event"
    },
    {
      "anonymous": false,
      "inputs": [
        {
          "indexed": true,
          "internalType": "address",
          "name": "operator",
          "type": "address"
        },
        {
          "indexed": true,
          "internalType": "address",
          "name": "from",
          "type": "address"
        },
        {
          "indexed": true,
          "internalType": "address",
          "name": "to",
          "type": "address"
        },
        {
          "indexed": false,
          "internalType": "uint256",
          "name": "id",
          "type": "uint256"
        },
        {
          "indexed": false,
          "internalType": "uint256",
          "name": "value",
          "type": "uint256"
        }
      ],
      "name": "TransferSingle",
      "type": "event"
    },
    {
      "anonymous": false,
      "inputs": [
        {
          "indexed": false,
          "internalType": "string",
          "name": "value",
          "type": "string"
        },
        {
          "indexed": true,
          "internalType": "uint256",
          "name": "id",
          "type": "uint256"
        }
      ],
      "name": "URI",
      "type": "event"
    },
    {
      "inputs": [
        {
          "internalType": "address",
          "name": "account",
          "type": "address"
        },
        {
          "internalType": "uint256",
          "name": "id",
          "type": "uint256"
        }
      ],
      "name": "balanceOf",
      "outputs": [
        {
          "internalType": "uint256",
          "name": "",
          "type": "uint256"
        }
      ],
      "stateMutability": "view",
      "type": "function"
    },
    {
      "inputs": [
        {
          "internalType": "address[]",
          "name": "accounts",
          "type": "address[]"
        },
        {
          "internalType": "uint256[]",
          "name": "ids",
          "type": "uint256[]"
        }
      ],
      "name": "balanceOfBatch",
      "outputs": [
        {
          "internalType": "uint256[]",
          "name": "",
          "type": "uint256[]"
        }
      ],
      "stateMutability": "view",
      "type": "function"
    },
    {
      "inputs": [
        {
          "internalType": "uint256",
          "name": "",
          "type": "uint256"
        },
        {
          "internalType": "address",
          "name": "",
          "type": "address"
        }
      ],
      "name": "bought",
      "outputs": [
        {
          "internalType": "bool",
          "name": "",
          "type": "bool"
        }
      ],
      "stateMutability": "view",
      "type": "function"
    },
    {
      "inputs": [
        {
          "internalType": "uint256",
          "name": "_id",
          "type": "uint256"
        },
        {
          "internalType": "address",
          "name": "_user",
          "type": "address"
        }
      ],
      "name": "claimTicket",
      "outputs": [],
      "stateMutability": "nonpayable",
      "type": "function"
    },
    {
      "inputs": [
        {
          "internalType": "uint256",
          "name": "_supply",
          "type": "uint256"
        },
        {
          "internalType": "string",
          "name": "_name",
          "type": "string"
        },
        {
          "internalType": "string",
          "name": "_description",
          "type": "string"
        },
        {
          "internalType": "string",
          "name": "_image",
          "type": "string"
        },
        {
          "internalType": "string",
          "name": "_location",
          "type": "string"
        },
        {
          "internalType": "address",
          "name": "_host",
          "type": "address"
        },
        {
          "internalType": "uint256",
          "name": "_eventDate",
          "type": "uint256"
        },
        {
          "internalType": "bool",
          "name": "_hasWhitelist",
          "type": "bool"
        },
        {
          "internalType": "string",
          "name": "_tokenURI",
          "type": "string"
        },
        {
          "internalType": "uint256",
          "name": "_price",
          "type": "uint256"
        },
        {
          "internalType": "string",
          "name": "_link",
          "type": "string"
        }
      ],
      "name": "createEvent",
      "outputs": [],
      "stateMutability": "nonpayable",
      "type": "function"
    },
    {
      "inputs": [
        {
          "internalType": "uint256",
          "name": "_id",
          "type": "uint256"
        },
        {
          "internalType": "address",
          "name": "user",
          "type": "address"
        }
      ],
      "name": "didUserBuy",
      "outputs": [
        {
          "internalType": "bool",
          "name": "",
          "type": "bool"
        }
      ],
      "stateMutability": "view",
      "type": "function"
    },
    {
      "inputs": [
        {
          "internalType": "uint256",
          "name": "",
          "type": "uint256"
        }
      ],
      "name": "eventOwner",
      "outputs": [
        {
          "internalType": "address",
          "name": "",
          "type": "address"
        }
      ],
      "stateMutability": "view",
      "type": "function"
    },
    {
      "inputs": [
        {
          "internalType": "uint256",
          "name": "id",
          "type": "uint256"
        }
      ],
      "name": "exists",
      "outputs": [
        {
          "internalType": "bool",
          "name": "",
          "type": "bool"
        }
      ],
      "stateMutability": "view",
      "type": "function"
    },
    {
      "inputs": [],
      "name": "getActiveEvents",
      "outputs": [
        {
          "components": [
            {
              "internalType": "uint256",
              "name": "id",
              "type": "uint256"
            },
            {
              "internalType": "uint256",
              "name": "supply",
              "type": "uint256"
            },
            {
              "internalType": "string",
              "name": "name",
              "type": "string"
            },
            {
              "internalType": "string",
              "name": "description",
              "type": "string"
            },
            {
              "internalType": "string",
              "name": "image",
              "type": "string"
            },
            {
              "internalType": "string",
              "name": "location",
              "type": "string"
            },
            {
              "internalType": "address",
              "name": "host",
              "type": "address"
            },
            {
              "internalType": "uint256",
              "name": "eventDate",
              "type": "uint256"
            },
            {
              "internalType": "bool",
              "name": "hasWhitelist",
              "type": "bool"
            },
            {
              "internalType": "uint256",
              "name": "price",
              "type": "uint256"
            },
            {
              "internalType": "address[]",
              "name": "whitelisted",
              "type": "address[]"
            },
            {
              "internalType": "string",
              "name": "link",
              "type": "string"
            }
          ],
          "internalType": "struct NFTicket1155.Event[]",
          "name": "",
          "type": "tuple[]"
        }
      ],
      "stateMutability": "view",
      "type": "function"
    },
    {
      "inputs": [
        {
          "internalType": "uint256",
          "name": "_eventId",
          "type": "uint256"
        }
      ],
      "name": "getEvent",
      "outputs": [
        {
          "components": [
            {
              "internalType": "uint256",
              "name": "id",
              "type": "uint256"
            },
            {
              "internalType": "uint256",
              "name": "supply",
              "type": "uint256"
            },
            {
              "internalType": "string",
              "name": "name",
              "type": "string"
            },
            {
              "internalType": "string",
              "name": "description",
              "type": "string"
            },
            {
              "internalType": "string",
              "name": "image",
              "type": "string"
            },
            {
              "internalType": "string",
              "name": "location",
              "type": "string"
            },
            {
              "internalType": "address",
              "name": "host",
              "type": "address"
            },
            {
              "internalType": "uint256",
              "name": "eventDate",
              "type": "uint256"
            },
            {
              "internalType": "bool",
              "name": "hasWhitelist",
              "type": "bool"
            },
            {
              "internalType": "uint256",
              "name": "price",
              "type": "uint256"
            },
            {
              "internalType": "address[]",
              "name": "whitelisted",
              "type": "address[]"
            },
            {
              "internalType": "string",
              "name": "link",
              "type": "string"
            }
          ],
          "internalType": "struct NFTicket1155.Event",
          "name": "",
          "type": "tuple"
        }
      ],
      "stateMutability": "view",
      "type": "function"
    },
    {
      "inputs": [
        {
          "internalType": "uint256",
          "name": "_id",
          "type": "uint256"
        }
      ],
      "name": "getEventOwner",
      "outputs": [
        {
          "internalType": "address",
          "name": "",
          "type": "address"
        }
      ],
      "stateMutability": "view",
      "type": "function"
    },
    {
      "inputs": [
        {
          "internalType": "address",
          "name": "_user",
          "type": "address"
        }
      ],
      "name": "getEventsByUser",
      "outputs": [
        {
          "components": [
            {
              "internalType": "uint256",
              "name": "id",
              "type": "uint256"
            },
            {
              "internalType": "uint256",
              "name": "supply",
              "type": "uint256"
            },
            {
              "internalType": "string",
              "name": "name",
              "type": "string"
            },
            {
              "internalType": "string",
              "name": "description",
              "type": "string"
            },
            {
              "internalType": "string",
              "name": "image",
              "type": "string"
            },
            {
              "internalType": "string",
              "name": "location",
              "type": "string"
            },
            {
              "internalType": "address",
              "name": "host",
              "type": "address"
            },
            {
              "internalType": "uint256",
              "name": "eventDate",
              "type": "uint256"
            },
            {
              "internalType": "bool",
              "name": "hasWhitelist",
              "type": "bool"
            },
            {
              "internalType": "uint256",
              "name": "price",
              "type": "uint256"
            },
            {
              "internalType": "address[]",
              "name": "whitelisted",
              "type": "address[]"
            },
            {
              "internalType": "string",
              "name": "link",
              "type": "string"
            }
          ],
          "internalType": "struct NFTicket1155.Event[]",
          "name": "",
          "type": "tuple[]"
        }
      ],
      "stateMutability": "view",
      "type": "function"
    },
    {
      "inputs": [
        {
          "internalType": "uint256",
          "name": "id",
          "type": "uint256"
        }
      ],
      "name": "getURI",
      "outputs": [
        {
          "internalType": "string",
          "name": "",
          "type": "string"
        }
      ],
      "stateMutability": "view",
      "type": "function"
    },
    {
      "inputs": [
        {
          "internalType": "address",
          "name": "account",
          "type": "address"
        },
        {
          "internalType": "address",
          "name": "operator",
          "type": "address"
        }
      ],
      "name": "isApprovedForAll",
      "outputs": [
        {
          "internalType": "bool",
          "name": "",
          "type": "bool"
        }
      ],
      "stateMutability": "view",
      "type": "function"
    },
    {
      "inputs": [
        {
          "internalType": "uint256",
          "name": "id",
          "type": "uint256"
        },
        {
          "internalType": "uint256",
          "name": "amount",
          "type": "uint256"
        },
        {
          "internalType": "bytes",
          "name": "data",
          "type": "bytes"
        }
      ],
      "name": "mint",
      "outputs": [],
      "stateMutability": "payable",
      "type": "function"
    },
    {
      "inputs": [
        {
          "internalType": "address",
          "name": "to",
          "type": "address"
        },
        {
          "internalType": "uint256[]",
          "name": "ids",
          "type": "uint256[]"
        },
        {
          "internalType": "uint256[]",
          "name": "amounts",
          "type": "uint256[]"
        },
        {
          "internalType": "bytes",
          "name": "data",
          "type": "bytes"
        }
      ],
      "name": "mintBatch",
      "outputs": [],
      "stateMutability": "nonpayable",
      "type": "function"
    },
    {
      "inputs": [],
      "name": "owner",
      "outputs": [
        {
          "internalType": "address",
          "name": "",
          "type": "address"
        }
      ],
      "stateMutability": "view",
      "type": "function"
    },
    {
      "inputs": [
        {
          "internalType": "uint256",
          "name": "_eventId",
          "type": "uint256"
        }
      ],
      "name": "payEventOwner",
      "outputs": [
        {
          "internalType": "bool",
          "name": "",
          "type": "bool"
        }
      ],
      "stateMutability": "nonpayable",
      "type": "function"
    },
    {
      "inputs": [
        {
          "internalType": "uint256",
          "name": "_id",
          "type": "uint256"
        },
        {
          "internalType": "address",
          "name": "_user",
          "type": "address"
        }
      ],
      "name": "queryPassword",
      "outputs": [
        {
          "internalType": "bytes32",
          "name": "",
          "type": "bytes32"
        }
      ],
      "stateMutability": "view",
      "type": "function"
    },
    {
      "inputs": [],
      "name": "renounceOwnership",
      "outputs": [],
      "stateMutability": "nonpayable",
      "type": "function"
    },
    {
      "inputs": [
        {
          "internalType": "address",
          "name": "from",
          "type": "address"
        },
        {
          "internalType": "address",
          "name": "to",
          "type": "address"
        },
        {
          "internalType": "uint256[]",
          "name": "ids",
          "type": "uint256[]"
        },
        {
          "internalType": "uint256[]",
          "name": "amounts",
          "type": "uint256[]"
        },
        {
          "internalType": "bytes",
          "name": "data",
          "type": "bytes"
        }
      ],
      "name": "safeBatchTransferFrom",
      "outputs": [],
      "stateMutability": "nonpayable",
      "type": "function"
    },
    {
      "inputs": [
        {
          "internalType": "address",
          "name": "from",
          "type": "address"
        },
        {
          "internalType": "address",
          "name": "to",
          "type": "address"
        },
        {
          "internalType": "uint256",
          "name": "id",
          "type": "uint256"
        },
        {
          "internalType": "uint256",
          "name": "amount",
          "type": "uint256"
        },
        {
          "internalType": "bytes",
          "name": "data",
          "type": "bytes"
        }
      ],
      "name": "safeTransferFrom",
      "outputs": [],
      "stateMutability": "nonpayable",
      "type": "function"
    },
    {
      "inputs": [
        {
          "internalType": "address",
          "name": "operator",
          "type": "address"
        },
        {
          "internalType": "bool",
          "name": "approved",
          "type": "bool"
        }
      ],
      "name": "setApprovalForAll",
      "outputs": [],
      "stateMutability": "nonpayable",
      "type": "function"
    },
    {
      "inputs": [
        {
          "internalType": "uint256",
          "name": "_eventId",
          "type": "uint256"
        },
        {
          "internalType": "bytes32",
          "name": "_password",
          "type": "bytes32"
        }
      ],
      "name": "setPassword",
      "outputs": [],
      "stateMutability": "nonpayable",
      "type": "function"
    },
    {
      "inputs": [
        {
          "internalType": "uint256",
          "name": "_eventId",
          "type": "uint256"
        },
        {
          "internalType": "address[]",
          "name": "_whitelisted",
          "type": "address[]"
        }
      ],
      "name": "setWhitelist",
      "outputs": [],
      "stateMutability": "nonpayable",
      "type": "function"
    },
    {
      "inputs": [
        {
          "internalType": "bytes4",
          "name": "interfaceId",
          "type": "bytes4"
        }
      ],
      "name": "supportsInterface",
      "outputs": [
        {
          "internalType": "bool",
          "name": "",
          "type": "bool"
        }
      ],
      "stateMutability": "view",
      "type": "function"
    },
    {
      "inputs": [
        {
          "internalType": "uint256",
          "name": "id",
          "type": "uint256"
        }
      ],
      "name": "totalSupply",
      "outputs": [
        {
          "internalType": "uint256",
          "name": "",
          "type": "uint256"
        }
      ],
      "stateMutability": "view",
      "type": "function"
    },
    {
      "inputs": [
        {
          "internalType": "address",
          "name": "newOwner",
          "type": "address"
        }
      ],
      "name": "transferOwnership",
      "outputs": [],
      "stateMutability": "nonpayable",
      "type": "function"
    },
    {
      "inputs": [
        {
          "internalType": "uint256",
          "name": "",
          "type": "uint256"
        }
      ],
      "name": "uri",
      "outputs": [
        {
          "internalType": "string",
          "name": "",
          "type": "string"
        }
      ],
      "stateMutability": "view",
      "type": "function"
    },
    {
      "inputs": [
        {
          "internalType": "uint256",
          "name": "_eventId",
          "type": "uint256"
        }
      ],
      "name": "voteOnComplaint",
      "outputs": [],
      "stateMutability": "nonpayable",
      "type": "function"
    },
    {
      "inputs": [
        {
          "internalType": "uint256",
          "name": "_eventId",
          "type": "uint256"
        }
      ],
      "name": "withdrawDeposit",
      "outputs": [],
      "stateMutability": "nonpayable",
      "type": "function"
    }
  ],
  "bytecode": "0x60806040523480156200001157600080fd5b506040805160208101909152600081526200002c816200003e565b50620000383362000057565b6200018c565b805162000053906002906020840190620000a9565b5050565b600380546001600160a01b038381166001600160a01b0319831681179093556040519116919082907f8be0079c531659141344cd1fd0a4f28419497f9722a3daafe3b4186f6b6457e090600090a35050565b828054620000b7906200014f565b90600052602060002090601f016020900481019282620000db576000855562000126565b82601f10620000f657805160ff191683800117855562000126565b8280016001018555821562000126579182015b828111156200012657825182559160200191906001019062000109565b506200013492915062000138565b5090565b5b8082111562000134576000815560010162000139565b600181811c908216806200016457607f821691505b602082108114156200018657634e487b7160e01b600052602260045260246000fd5b50919050565b613fb7806200019c6000396000f3fe6080604052600436106101d75760003560e01c806365e07abe11610102578063bd85b03911610095578063e985e9c511610064578063e985e9c5146105f7578063f242432a14610640578063f2fde38b14610660578063fe210f691461068057600080fd5b8063bd85b0391461056a578063c219d5e914610597578063c75cb448146105b7578063e49cde77146105d757600080fd5b80638da5cb5b116100d15780638da5cb5b1461049c578063a22cb465146104ce578063a52901b5146104ee578063b4d59d271461053457600080fd5b806365e07abe1461041a5780636d1884e01461043a578063715018a6146104675780637b6b3f181461047c57600080fd5b80631f7fdffa1161017a5780633612280f116101495780633612280f1461037c5780634e1273f41461039e5780634e50c926146103cb5780634f558e79146103eb57600080fd5b80631f7fdffa146102e15780632c9b5e96146103015780632eb2c2d61461033c57806333289a461461035c57600080fd5b806308dc9f42116101b657806308dc9f42146102615780630e89341c1461027457806310240899146102a15780631aa347dc146102c157600080fd5b8062fdd58e146101dc57806301ffc9a71461020f57806307556b831461023f575b600080fd5b3480156101e857600080fd5b506101fc6101f73660046135bc565b6106b6565b6040519081526020015b60405180910390f35b34801561021b57600080fd5b5061022f61022a366004613645565b61074d565b6040519015158152602001610206565b34801561024b57600080fd5b5061025f61025a366004613695565b61079f565b005b61025f61026f36600461384b565b610865565b34801561028057600080fd5b5061029461028f36600461367d565b610b00565b6040516102069190613b99565b3480156102ad57600080fd5b5061025f6102bc36600461367d565b610b94565b3480156102cd57600080fd5b506102946102dc36600461367d565b610c4a565b3480156102ed57600080fd5b5061025f6102fc3660046134ff565b610c67565b34801561030d57600080fd5b5061022f61031c366004613695565b600b60209081526000928352604080842090915290825290205460ff1681565b34801561034857600080fd5b5061025f6103573660046133f8565b610ca3565b34801561036857600080fd5b5061025f61037736600461367d565b610d3a565b34801561038857600080fd5b50610391610ea6565b6040516102069190613af7565b3480156103aa57600080fd5b506103be6103b93660046135e5565b61137c565b6040516102069190613b58565b3480156103d757600080fd5b5061025f6103e6366004613712565b6114dd565b3480156103f757600080fd5b5061022f61040636600461367d565b600090815260046020526040902054151590565b34801561042657600080fd5b506103916104353660046133a5565b611723565b34801561044657600080fd5b5061045a61045536600461367d565b611bec565b6040516102069190613d78565b34801561047357600080fd5b5061025f611fad565b34801561048857600080fd5b5061025f6104973660046136f1565b611fe3565b3480156104a857600080fd5b506003546001600160a01b03165b6040516001600160a01b039091168152602001610206565b3480156104da57600080fd5b5061025f6104e9366004613593565b612041565b3480156104fa57600080fd5b5061022f610509366004613695565b6000918252600b602090815260408084206001600160a01b0393909316845291905290205460ff1690565b34801561054057600080fd5b506104b661054f36600461367d565b6005602052600090815260409020546001600160a01b031681565b34801561057657600080fd5b506101fc61058536600461367d565b60009081526004602052604090205490565b3480156105a357600080fd5b5061022f6105b236600461367d565b612050565b3480156105c357600080fd5b506101fc6105d2366004613695565b6121ac565b3480156105e357600080fd5b5061025f6105f23660046136b7565b612202565b34801561060357600080fd5b5061022f6106123660046133c6565b6001600160a01b03918216600090815260016020908152604080832093909416825291909152205460ff1690565b34801561064c57600080fd5b5061025f61065b36600461349d565b612290565b34801561066c57600080fd5b5061025f61067b3660046133a5565b612317565b34801561068c57600080fd5b506104b661069b36600461367d565b6000908152600560205260409020546001600160a01b031690565b60006001600160a01b0383166107275760405162461bcd60e51b815260206004820152602b60248201527f455243313135353a2062616c616e636520717565727920666f7220746865207a60448201526a65726f206164647265737360a81b60648201526084015b60405180910390fd5b506000908152602081815260408083206001600160a01b03949094168352929052205490565b60006001600160e01b03198216636cdb3d1360e11b148061077e57506001600160e01b031982166303a24d0760e21b145b8061079957506301ffc9a760e01b6001600160e01b03198316145b92915050565b6003546001600160a01b031633146107c95760405162461bcd60e51b815260040161071e90613c83565b6000828152600a602090815260408083206001600160a01b038516845290915290205460ff16156108355760405162461bcd60e51b81526020600482015260166024820152751d1a58dad95d08185b1c9958591e4818db185a5b595960521b604482015260640161071e565b6000918252600a602090815260408084206001600160a01b0390931684529190529020805460ff19166001179055565b6000838152600b60209081526040808320338452909152902054839060ff16156108d15760405162461bcd60e51b815260206004820152601e60248201527f63616c6c657220616c7265616479206d696e7465642061207469636b65740000604482015260640161071e565b600084815260066020526040902060070154849042106109265760405162461bcd60e51b815260206004820152601060248201526f195d995b9d081a185cc81c185cdcd95960821b604482015260640161071e565b60008581526006602090815260408083206001810154600490935292205411156109925760405162461bcd60e51b815260206004820152601a60248201527f616c6c207469636b6574732068617665206265656e20736f6c64000000000000604482015260640161071e565b600881015460ff1615610a1757600086815260086020908152604080832033845290915290205460ff161515600114610a175760405162461bcd60e51b815260206004820152602160248201527f796f7520617265206e6f7420696e766974656420746f2074686973206576656e6044820152601d60fa1b606482015260840161071e565b80600901543414610a615760405162461bcd60e51b81526020600482015260146024820152731a5b98dbdc9c9958dd081c1c9a58d9481cd95b9d60621b604482015260640161071e565b6000868152600d602052604081208054349290610a7f908490613dae565b90915550506000868152600b6020908152604080832033808552908352818420805460ff191660019081179091558a8552600784528285208054918201815585528385200180546001600160a01b0319168217905560098501548a8552600e8452828520828652909352922055610af8908787876123b2565b505050505050565b606060028054610b0f90613e1c565b80601f0160208091040260200160405190810160405280929190818152602001828054610b3b90613e1c565b8015610b885780601f10610b5d57610100808354040283529160200191610b88565b820191906000526020600020905b815481529060010190602001808311610b6b57829003601f168201915b50505050509050919050565b6000818152600b60209081526040808320338452909152902054819060ff161515600114610bd45760405162461bcd60e51b815260040161071e90613cb8565b6000828152600f60205260408120805460019290610bf3908490613dae565b9091555050600082815260076020908152604080832054600f909252822054610c1c9190613dc6565b610c27906064613de6565b9050605a8110610c4557610c453384610c4033876106b6565b61249b565b505050565b6000818152600c60205260409020805460609190610b0f90613e1c565b6003546001600160a01b03163314610c915760405162461bcd60e51b815260040161071e90613c83565b610c9d8484848461262b565b50505050565b6001600160a01b038516331480610cbf5750610cbf8533610612565b610d265760405162461bcd60e51b815260206004820152603260248201527f455243313135353a207472616e736665722063616c6c6572206973206e6f74206044820152711bdddb995c881b9bdc88185c1c1c9bdd995960721b606482015260840161071e565b610d3385858585856127a1565b5050505050565b6000818152600b60209081526040808320338452909152902054819060ff161515600114610d7a5760405162461bcd60e51b815260040161071e90613cb8565b6000828152600e6020908152604080832033845290915290205480610de15760405162461bcd60e51b815260206004820152601e60248201527f616d6f756e74206d6179206e6f74206265207a65726f206f72206c6573730000604482015260640161071e565b80471015610e285760405162461bcd60e51b8152602060048201526014602482015273636f6e7472616374206c61636b732066756e647360601b604482015260640161071e565b6000838152600e6020908152604080832033808552925280832083905551909183156108fc02918491818181858888f19350505050158015610e6e573d6000803e3d6000fd5b50600083815260066020908152604080832060090154600d9092528220805491929091610e9c908490613e05565b9091555050505050565b60606000805b601054811015610eef57600081815260066020526040902060070154421015610edd5781610ed981613e83565b9250505b80610ee781613e83565b915050610eac565b506000816001600160401b03811115610f1857634e487b7160e01b600052604160045260246000fd5b604051908082528060200260200182016040528015610f5157816020015b610f3e6130d4565b815260200190600190039081610f365790505b5090506000805b601054811015611373576000818152600660205260409020600701544210156113615760066000828152602001908152602001600020604051806101800160405290816000820154815260200160018201548152602001600282018054610fbe90613e1c565b80601f0160208091040260200160405190810160405280929190818152602001828054610fea90613e1c565b80156110375780601f1061100c57610100808354040283529160200191611037565b820191906000526020600020905b81548152906001019060200180831161101a57829003601f168201915b5050505050815260200160038201805461105090613e1c565b80601f016020809104026020016040519081016040528092919081815260200182805461107c90613e1c565b80156110c95780601f1061109e576101008083540402835291602001916110c9565b820191906000526020600020905b8154815290600101906020018083116110ac57829003601f168201915b505050505081526020016004820180546110e290613e1c565b80601f016020809104026020016040519081016040528092919081815260200182805461110e90613e1c565b801561115b5780601f106111305761010080835404028352916020019161115b565b820191906000526020600020905b81548152906001019060200180831161113e57829003601f168201915b5050505050815260200160058201805461117490613e1c565b80601f01602080910402602001604051908101604052809291908181526020018280546111a090613e1c565b80156111ed5780601f106111c2576101008083540402835291602001916111ed565b820191906000526020600020905b8154815290600101906020018083116111d057829003601f168201915b505050918352505060068201546001600160a01b03166020808301919091526007830154604080840191909152600884015460ff161515606084015260098401546080840152600a8401805482518185028101850190935280835260a090940193919290919083018282801561128c57602002820191906000526020600020905b81546001600160a01b0316815260019091019060200180831161126e575b50505050508152602001600b820180546112a590613e1c565b80601f01602080910402602001604051908101604052809291908181526020018280546112d190613e1c565b801561131e5780601f106112f35761010080835404028352916020019161131e565b820191906000526020600020905b81548152906001019060200180831161130157829003601f168201915b50505050508152505083838151811061134757634e487b7160e01b600052603260045260246000fd5b6020026020010181905250818061135d90613e83565b9250505b8061136b81613e83565b915050610f58565b50909392505050565b606081518351146113e15760405162461bcd60e51b815260206004820152602960248201527f455243313135353a206163636f756e747320616e6420696473206c656e677468604482015268040dad2e6dac2e8c6d60bb1b606482015260840161071e565b600083516001600160401b0381111561140a57634e487b7160e01b600052604160045260246000fd5b604051908082528060200260200182016040528015611433578160200160208202803683370190505b50905060005b84518110156114d55761149a85828151811061146557634e487b7160e01b600052603260045260246000fd5b602002602001015185838151811061148d57634e487b7160e01b600052603260045260246000fd5b60200260200101516106b6565b8282815181106114ba57634e487b7160e01b600052603260045260246000fd5b60209081029190910101526114ce81613e83565b9050611439565b509392505050565b42851161152c5760405162461bcd60e51b815260206004820152601f60248201527f6576656e74206d7573742068617070656e20696e207468652066757475726500604482015260640161071e565b606060405180610180016040528060105481526020018d81526020018c81526020018b81526020018a8152602001898152602001886001600160a01b03168152602001878152602001861515815260200184815260200182815260200183815250600660006010548152602001908152602001600020600082015181600001556020820151816001015560408201518160020190805190602001906115d2929190613140565b50606082015180516115ee916003840191602090910190613140565b506080820151805161160a916004840191602090910190613140565b5060a08201518051611626916005840191602090910190613140565b5060c08201516006820180546001600160a01b0319166001600160a01b0390921691909117905560e0820151600782015561010082015160088201805460ff19169115159190911790556101208201516009820155610140820151805161169791600a8401916020909101906131c4565b5061016082015180516116b491600b840191602090910190613140565b50506010546000908152600c6020908152604090912086516116db93509091870190613140565b5060108054600090815260056020526040812080546001600160a01b0319163317905581546001929190611710908490613dae565b9091555050505050505050505050505050565b60606000805b60105481101561176557600061173f85836106b6565b1115611753578161174f81613e83565b9250505b8061175d81613e83565b915050611729565b506000816001600160401b0381111561178e57634e487b7160e01b600052604160045260246000fd5b6040519080825280602002602001820160405280156117c757816020015b6117b46130d4565b8152602001906001900390816117ac5790505b5090506000805b601054811015611be25760006117e487836106b6565b1115611bd0576006600082815260200190815260200160002060405180610180016040529081600082015481526020016001820154815260200160028201805461182d90613e1c565b80601f016020809104026020016040519081016040528092919081815260200182805461185990613e1c565b80156118a65780601f1061187b576101008083540402835291602001916118a6565b820191906000526020600020905b81548152906001019060200180831161188957829003601f168201915b505050505081526020016003820180546118bf90613e1c565b80601f01602080910402602001604051908101604052809291908181526020018280546118eb90613e1c565b80156119385780601f1061190d57610100808354040283529160200191611938565b820191906000526020600020905b81548152906001019060200180831161191b57829003601f168201915b5050505050815260200160048201805461195190613e1c565b80601f016020809104026020016040519081016040528092919081815260200182805461197d90613e1c565b80156119ca5780601f1061199f576101008083540402835291602001916119ca565b820191906000526020600020905b8154815290600101906020018083116119ad57829003601f168201915b505050505081526020016005820180546119e390613e1c565b80601f0160208091040260200160405190810160405280929190818152602001828054611a0f90613e1c565b8015611a5c5780601f10611a3157610100808354040283529160200191611a5c565b820191906000526020600020905b815481529060010190602001808311611a3f57829003601f168201915b505050918352505060068201546001600160a01b03166020808301919091526007830154604080840191909152600884015460ff161515606084015260098401546080840152600a8401805482518185028101850190935280835260a0909401939192909190830182828015611afb57602002820191906000526020600020905b81546001600160a01b03168152600190910190602001808311611add575b50505050508152602001600b82018054611b1490613e1c565b80601f0160208091040260200160405190810160405280929190818152602001828054611b4090613e1c565b8015611b8d5780601f10611b6257610100808354040283529160200191611b8d565b820191906000526020600020905b815481529060010190602001808311611b7057829003601f168201915b505050505081525050838381518110611bb657634e487b7160e01b600052603260045260246000fd5b60200260200101819052508180611bcc90613e83565b9250505b80611bda81613e83565b9150506117ce565b5090949350505050565b611bf46130d4565b600060066000848152602001908152602001600020905080604051806101800160405290816000820154815260200160018201548152602001600282018054611c3c90613e1c565b80601f0160208091040260200160405190810160405280929190818152602001828054611c6890613e1c565b8015611cb55780601f10611c8a57610100808354040283529160200191611cb5565b820191906000526020600020905b815481529060010190602001808311611c9857829003601f168201915b50505050508152602001600382018054611cce90613e1c565b80601f0160208091040260200160405190810160405280929190818152602001828054611cfa90613e1c565b8015611d475780601f10611d1c57610100808354040283529160200191611d47565b820191906000526020600020905b815481529060010190602001808311611d2a57829003601f168201915b50505050508152602001600482018054611d6090613e1c565b80601f0160208091040260200160405190810160405280929190818152602001828054611d8c90613e1c565b8015611dd95780601f10611dae57610100808354040283529160200191611dd9565b820191906000526020600020905b815481529060010190602001808311611dbc57829003601f168201915b50505050508152602001600582018054611df290613e1c565b80601f0160208091040260200160405190810160405280929190818152602001828054611e1e90613e1c565b8015611e6b5780601f10611e4057610100808354040283529160200191611e6b565b820191906000526020600020905b815481529060010190602001808311611e4e57829003601f168201915b505050918352505060068201546001600160a01b03166020808301919091526007830154604080840191909152600884015460ff161515606084015260098401546080840152600a8401805482518185028101850190935280835260a0909401939192909190830182828015611f0a57602002820191906000526020600020905b81546001600160a01b03168152600190910190602001808311611eec575b50505050508152602001600b82018054611f2390613e1c565b80601f0160208091040260200160405190810160405280929190818152602001828054611f4f90613e1c565b8015611f9c5780601f10611f7157610100808354040283529160200191611f9c565b820191906000526020600020905b815481529060010190602001808311611f7f57829003601f168201915b505050505081525050915050919050565b6003546001600160a01b03163314611fd75760405162461bcd60e51b815260040161071e90613c83565b611fe1600061295f565b565b6000828152600b60209081526040808320338452909152902054829060ff1615156001146120235760405162461bcd60e51b815260040161071e90613cb8565b50600091825260096020908152604080842033855290915290912055565b61204c3383836129b1565b5050565b6003546000906001600160a01b0316331461207d5760405162461bcd60e51b815260040161071e90613c83565b60008281526006602052604090206007810154429061209f9062093a80613dae565b106120ec5760405162461bcd60e51b815260206004820181905260248201527f64616d61676520636c61696d20706572696f64206e6f74206f76657220796574604482015260640161071e565b6000838152600d6020908152604080832054600590925280832054905191926001600160a01b0390911691829084908381818185875af1925050503d8060008114612153576040519150601f19603f3d011682016040523d82523d6000602084013e612158565b606091505b505090508061219e5760405162461bcd60e51b81526020600482015260126024820152711d1c985b9cd858dd1a5bdb8819985a5b195960721b604482015260640161071e565b60019450505050505b919050565b6003546000906001600160a01b031633146121d95760405162461bcd60e51b815260040161071e90613c83565b5060009182526009602090815260408084206001600160a01b0393909316845291905290205490565b60008281526005602052604090205482906001600160a01b0316331461226a5760405162461bcd60e51b815260206004820152601d60248201527f63616c6c6572206973206e6f7420746865206576656e74206f776e6572000000604482015260640161071e565b600083815260066020908152604090912083519091610d3391600a8401918601906131c4565b6001600160a01b0385163314806122ac57506122ac8533610612565b61230a5760405162461bcd60e51b815260206004820152602960248201527f455243313135353a2063616c6c6572206973206e6f74206f776e6572206e6f7260448201526808185c1c1c9bdd995960ba1b606482015260840161071e565b610d338585858585612a92565b6003546001600160a01b031633146123415760405162461bcd60e51b815260040161071e90613c83565b6001600160a01b0381166123a65760405162461bcd60e51b815260206004820152602660248201527f4f776e61626c653a206e6577206f776e657220697320746865207a65726f206160448201526564647265737360d01b606482015260840161071e565b6123af8161295f565b50565b6001600160a01b0384166123d85760405162461bcd60e51b815260040161071e90613d37565b3360006123e485612bca565b905060006123f185612bca565b905061240283600089858589612c23565b6000868152602081815260408083206001600160a01b038b16845290915281208054879290612432908490613dae565b909155505060408051878152602081018790526001600160a01b03808a1692600092918716917fc3d58168c5ae7397731d063d5bbf3d657854427343f4c083240f7aacaa2d0f62910160405180910390a461249283600089898989612cee565b50505050505050565b6001600160a01b0383166124fd5760405162461bcd60e51b815260206004820152602360248201527f455243313135353a206275726e2066726f6d20746865207a65726f206164647260448201526265737360e81b606482015260840161071e565b33600061250984612bca565b9050600061251684612bca565b905061253683876000858560405180602001604052806000815250612c23565b6000858152602081815260408083206001600160a01b038a168452909152902054848110156125b35760405162461bcd60e51b8152602060048201526024808201527f455243313135353a206275726e20616d6f756e7420657863656564732062616c604482015263616e636560e01b606482015260840161071e565b6000868152602081815260408083206001600160a01b038b81168086529184528285208a8703905582518b81529384018a90529092908816917fc3d58168c5ae7397731d063d5bbf3d657854427343f4c083240f7aacaa2d0f62910160405180910390a4604080516020810190915260009052612492565b6001600160a01b0384166126515760405162461bcd60e51b815260040161071e90613d37565b81518351146126725760405162461bcd60e51b815260040161071e90613cef565b3361268281600087878787612c23565b60005b8451811015612739578381815181106126ae57634e487b7160e01b600052603260045260246000fd5b60200260200101516000808784815181106126d957634e487b7160e01b600052603260045260246000fd5b602002602001015181526020019081526020016000206000886001600160a01b03166001600160a01b0316815260200190815260200160002060008282546127219190613dae565b9091555081905061273181613e83565b915050612685565b50846001600160a01b031660006001600160a01b0316826001600160a01b03167f4a39dc06d4c0dbc64b70af90fd698a233a518aa5d07e595d983b8c0526c8f7fb878760405161278a929190613b6b565b60405180910390a4610d3381600087878787612e59565b81518351146127c25760405162461bcd60e51b815260040161071e90613cef565b6001600160a01b0384166127e85760405162461bcd60e51b815260040161071e90613bf4565b336127f7818787878787612c23565b60005b84518110156128f957600085828151811061282557634e487b7160e01b600052603260045260246000fd5b60200260200101519050600085838151811061285157634e487b7160e01b600052603260045260246000fd5b602090810291909101810151600084815280835260408082206001600160a01b038e1683529093529190912054909150818110156128a15760405162461bcd60e51b815260040161071e90613c39565b6000838152602081815260408083206001600160a01b038e8116855292528083208585039055908b168252812080548492906128de908490613dae565b92505081905550505050806128f290613e83565b90506127fa565b50846001600160a01b0316866001600160a01b0316826001600160a01b03167f4a39dc06d4c0dbc64b70af90fd698a233a518aa5d07e595d983b8c0526c8f7fb8787604051612949929190613b6b565b60405180910390a4610af8818787878787612e59565b600380546001600160a01b038381166001600160a01b0319831681179093556040519116919082907f8be0079c531659141344cd1fd0a4f28419497f9722a3daafe3b4186f6b6457e090600090a35050565b816001600160a01b0316836001600160a01b03161415612a255760405162461bcd60e51b815260206004820152602960248201527f455243313135353a2073657474696e6720617070726f76616c20737461747573604482015268103337b91039b2b63360b91b606482015260840161071e565b6001600160a01b03838116600081815260016020908152604080832094871680845294825291829020805460ff191686151590811790915591519182527f17307eab39ab6107e8899845ad3d59bd9653f200f220920489ca2b5937696c31910160405180910390a3505050565b6001600160a01b038416612ab85760405162461bcd60e51b815260040161071e90613bf4565b336000612ac485612bca565b90506000612ad185612bca565b9050612ae1838989858589612c23565b6000868152602081815260408083206001600160a01b038c16845290915290205485811015612b225760405162461bcd60e51b815260040161071e90613c39565b6000878152602081815260408083206001600160a01b038d8116855292528083208985039055908a16825281208054889290612b5f908490613dae565b909155505060408051888152602081018890526001600160a01b03808b16928c821692918816917fc3d58168c5ae7397731d063d5bbf3d657854427343f4c083240f7aacaa2d0f62910160405180910390a4612bbf848a8a8a8a8a612cee565b505050505050505050565b60408051600180825281830190925260609160009190602080830190803683370190505090508281600081518110612c1257634e487b7160e01b600052603260045260246000fd5b602090810291909101015292915050565b60005b8351811015612cdf57600060066000868481518110612c5557634e487b7160e01b600052603260045260246000fd5b60200260200101518152602001908152602001600020905042816007015411612ccc5760405162461bcd60e51b815260206004820152602360248201527f43616e6e6f74207472616e73666572206166746572206576656e7420737461726044820152621d195960ea1b606482015260840161071e565b5080612cd781613e83565b915050612c26565b50610af8868686868686612f23565b6001600160a01b0384163b15610af85760405163f23a6e6160e01b81526001600160a01b0385169063f23a6e6190612d329089908990889088908890600401613ab2565b602060405180830381600087803b158015612d4c57600080fd5b505af1925050508015612d7c575060408051601f3d908101601f19168201909252612d7991810190613661565b60015b612e2957612d88613eca565b806308c379a01415612dc25750612d9d613ee2565b80612da85750612dc4565b8060405162461bcd60e51b815260040161071e9190613b99565b505b60405162461bcd60e51b815260206004820152603460248201527f455243313135353a207472616e7366657220746f206e6f6e20455243313135356044820152732932b1b2b4bb32b91034b6b83632b6b2b73a32b960611b606482015260840161071e565b6001600160e01b0319811663f23a6e6160e01b146124925760405162461bcd60e51b815260040161071e90613bac565b6001600160a01b0384163b15610af85760405163bc197c8160e01b81526001600160a01b0385169063bc197c8190612e9d9089908990889088908890600401613a54565b602060405180830381600087803b158015612eb757600080fd5b505af1925050508015612ee7575060408051601f3d908101601f19168201909252612ee491810190613661565b60015b612ef357612d88613eca565b6001600160e01b0319811663bc197c8160e01b146124925760405162461bcd60e51b815260040161071e90613bac565b6001600160a01b038516612fc65760005b8351811015612fc457828181518110612f5d57634e487b7160e01b600052603260045260246000fd5b602002602001015160046000868481518110612f8957634e487b7160e01b600052603260045260246000fd5b602002602001015181526020019081526020016000206000828254612fae9190613dae565b90915550612fbd905081613e83565b9050612f34565b505b6001600160a01b038416610af85760005b835181101561249257600084828151811061300257634e487b7160e01b600052603260045260246000fd5b60200260200101519050600084838151811061302e57634e487b7160e01b600052603260045260246000fd5b60200260200101519050600060046000848152602001908152602001600020549050818110156130b15760405162461bcd60e51b815260206004820152602860248201527f455243313135353a206275726e20616d6f756e74206578636565647320746f74604482015267616c537570706c7960c01b606482015260840161071e565b600092835260046020526040909220910390556130cd81613e83565b9050612fd7565b60405180610180016040528060008152602001600081526020016060815260200160608152602001606081526020016060815260200160006001600160a01b03168152602001600081526020016000151581526020016000815260200160608152602001606081525090565b82805461314c90613e1c565b90600052602060002090601f01602090048101928261316e57600085556131b4565b82601f1061318757805160ff19168380011785556131b4565b828001600101855582156131b4579182015b828111156131b4578251825591602001919060010190613199565b506131c0929150613219565b5090565b8280548282559060005260206000209081019282156131b4579160200282015b828111156131b457825182546001600160a01b0319166001600160a01b039091161782556020909201916001909101906131e4565b5b808211156131c0576000815560010161321a565b80356001600160a01b03811681146121a757600080fd5b600082601f830112613255578081fd5b8135602061326282613d8b565b60405161326f8282613e57565b8381528281019150858301600585901b8701840188101561328e578586fd5b855b858110156132b3576132a18261322e565b84529284019290840190600101613290565b5090979650505050505050565b600082601f8301126132d0578081fd5b813560206132dd82613d8b565b6040516132ea8282613e57565b8381528281019150858301600585901b87018401881015613309578586fd5b855b858110156132b35781358452928401929084019060010161330b565b803580151581146121a757600080fd5b600082601f830112613347578081fd5b81356001600160401b0381111561336057613360613eb4565b604051613377601f8301601f191660200182613e57565b81815284602083860101111561338b578283fd5b816020850160208301379081016020019190915292915050565b6000602082840312156133b6578081fd5b6133bf8261322e565b9392505050565b600080604083850312156133d8578081fd5b6133e18361322e565b91506133ef6020840161322e565b90509250929050565b600080600080600060a0868803121561340f578081fd5b6134188661322e565b94506134266020870161322e565b935060408601356001600160401b0380821115613441578283fd5b61344d89838a016132c0565b94506060880135915080821115613462578283fd5b61346e89838a016132c0565b93506080880135915080821115613483578283fd5b5061349088828901613337565b9150509295509295909350565b600080600080600060a086880312156134b4578081fd5b6134bd8661322e565b94506134cb6020870161322e565b9350604086013592506060860135915060808601356001600160401b038111156134f3578182fd5b61349088828901613337565b60008060008060808587031215613514578384fd5b61351d8561322e565b935060208501356001600160401b0380821115613538578485fd5b613544888389016132c0565b94506040870135915080821115613559578384fd5b613565888389016132c0565b9350606087013591508082111561357a578283fd5b5061358787828801613337565b91505092959194509250565b600080604083850312156135a5578182fd5b6135ae8361322e565b91506133ef60208401613327565b600080604083850312156135ce578182fd5b6135d78361322e565b946020939093013593505050565b600080604083850312156135f7578182fd5b82356001600160401b038082111561360d578384fd5b61361986838701613245565b9350602085013591508082111561362e578283fd5b5061363b858286016132c0565b9150509250929050565b600060208284031215613656578081fd5b81356133bf81613f6b565b600060208284031215613672578081fd5b81516133bf81613f6b565b60006020828403121561368e578081fd5b5035919050565b600080604083850312156136a7578182fd5b823591506133ef6020840161322e565b600080604083850312156136c9578182fd5b8235915060208301356001600160401b038111156136e5578182fd5b61363b85828601613245565b60008060408385031215613703578182fd5b50508035926020909101359150565b60008060008060008060008060008060006101608c8e031215613733578889fd5b8b359a506001600160401b038060208e0135111561374f57898afd5b61375f8e60208f01358f01613337565b9a508060408e0135111561377157898afd5b6137818e60408f01358f01613337565b99508060608e01351115613793578687fd5b6137a38e60608f01358f01613337565b98508060808e013511156137b5578687fd5b6137c58e60808f01358f01613337565b97506137d360a08e0161322e565b965060c08d013595506137e860e08e01613327565b9450806101008e013511156137fb578384fd5b61380c8e6101008f01358f01613337565b93506101208d01359250806101408e01351115613827578182fd5b506138398d6101408e01358e01613337565b90509295989b509295989b9093969950565b60008060006060848603121561385f578081fd5b833592506020840135915060408401356001600160401b03811115613882578182fd5b61388e86828701613337565b9150509250925092565b6000815180845260208085019450808401835b838110156138d05781516001600160a01b0316875295820195908201906001016138ab565b509495945050505050565b6000815180845260208085019450808401835b838110156138d0578151875295820195908201906001016138ee565b60008151808452815b8181101561392f57602081850181015186830182015201613913565b818111156139405782602083870101525b50601f01601f19169290920160200192915050565b60006101808251845260208301516020850152604083015181604086015261397f8286018261390a565b91505060608301518482036060860152613999828261390a565b915050608083015184820360808601526139b3828261390a565b91505060a083015184820360a08601526139cd828261390a565b91505060c08301516139ea60c08601826001600160a01b03169052565b5060e083015160e085015261010080840151613a098287018215159052565b505061012083810151908501526101408084015185830382870152613a2e8382613898565b925050506101608084015185830382870152613a4a838261390a565b9695505050505050565b6001600160a01b0386811682528516602082015260a060408201819052600090613a80908301866138db565b8281036060840152613a9281866138db565b90508281036080840152613aa6818561390a565b98975050505050505050565b6001600160a01b03868116825285166020820152604081018490526060810183905260a060808201819052600090613aec9083018461390a565b979650505050505050565b6000602080830181845280855180835260408601915060408160051b8701019250838701855b82811015613b4b57603f19888603018452613b39858351613955565b94509285019290850190600101613b1d565b5092979650505050505050565b6020815260006133bf60208301846138db565b604081526000613b7e60408301856138db565b8281036020840152613b9081856138db565b95945050505050565b6020815260006133bf602083018461390a565b60208082526028908201527f455243313135353a204552433131353552656365697665722072656a656374656040820152676420746f6b656e7360c01b606082015260800190565b60208082526025908201527f455243313135353a207472616e7366657220746f20746865207a65726f206164604082015264647265737360d81b606082015260800190565b6020808252602a908201527f455243313135353a20696e73756666696369656e742062616c616e636520666f60408201526939103a3930b739b332b960b11b606082015260800190565b6020808252818101527f4f776e61626c653a2063616c6c6572206973206e6f7420746865206f776e6572604082015260600190565b6020808252601d908201527f796f7520646964206e6f7420617474656e642074686973206576656e74000000604082015260600190565b60208082526028908201527f455243313135353a2069647320616e6420616d6f756e7473206c656e677468206040820152670dad2e6dac2e8c6d60c31b606082015260800190565b60208082526021908201527f455243313135353a206d696e7420746f20746865207a65726f206164647265736040820152607360f81b606082015260800190565b6020815260006133bf6020830184613955565b60006001600160401b03821115613da457613da4613eb4565b5060051b60200190565b60008219821115613dc157613dc1613e9e565b500190565b600082613de157634e487b7160e01b81526012600452602481fd5b500490565b6000816000190483118215151615613e0057613e00613e9e565b500290565b600082821015613e1757613e17613e9e565b500390565b600181811c90821680613e3057607f821691505b60208210811415613e5157634e487b7160e01b600052602260045260246000fd5b50919050565b601f8201601f191681016001600160401b0381118282101715613e7c57613e7c613eb4565b6040525050565b6000600019821415613e9757613e97613e9e565b5060010190565b634e487b7160e01b600052601160045260246000fd5b634e487b7160e01b600052604160045260246000fd5b600060033d1115613edf57600481823e5160e01c5b90565b600060443d1015613ef05790565b6040516003193d81016004833e81513d6001600160401b038160248401118184111715613f1f57505050505090565b8285019150815181811115613f375750505050505090565b843d8701016020828501011115613f515750505050505090565b613f6060208286010187613e57565b509095945050505050565b6001600160e01b0319811681146123af57600080fdfea264697066735822122036ed006958101480a09da5098d6553edffea2a3961c9723119f61c82e33b4e7d64736f6c63430008040033",
  "linkReferences": {},
  "deployedLinkReferences": {}
}